{
	"data": {
		"bytecode": {
			"linkReferences": {},
			"object": "60a06040526040518060400160405280600c81526020017f31303020646973636f756e74000000000000000000000000000000000000000081525060119081610048919061051c565b506040518060400160405280600b81526020017f353020646973636f756e740000000000000000000000000000000000000000008152506012908161008d919061051c565b506040518060400160405280600f81526020017f312d6d6f6e7468207072656d69756d0000000000000000000000000000000000815250601390816100d2919061051c565b503480156100de575f5ffd5b506040518060400160405280600481526020017f47696674000000000000000000000000000000000000000000000000000000008152506040518060400160405280600281526020017f475400000000000000000000000000000000000000000000000000000000000081525073a9d587a00a31a52ed70d6026794a8fc5e2f5dcb08073ffffffffffffffffffffffffffffffffffffffff1660808173ffffffffffffffffffffffffffffffffffffffff168152505050815f90816101a3919061064d565b5080600190816101b3919061064d565b5050506001600b5f3373ffffffffffffffffffffffffffffffffffffffff1673ffffffffffffffffffffffffffffffffffffffff1681526020019081526020015f205f6101000a81548160ff02191690831515021790555060405180606001604052806035815260200161588c603591396010601160405161023591906107a6565b9081526020016040518091039020908161024f919061064d565b50604051806060016040528060358152602001615857603591396010601260405161027a91906107a6565b90815260200160405180910390209081610294919061064d565b506040518060600160405280603581526020016158c160359139601060136040516102bf91906107a6565b908152602001604051809103902090816102d9919061064d565b506107bc565b5f81519050919050565b7f4e487b71000000000000000000000000000000000000000000000000000000005f52604160045260245ffd5b7f4e487b71000000000000000000000000000000000000000000000000000000005f52602260045260245ffd5b5f600282049050600182168061035a57607f821691505b60208210810361036d5761036c610316565b5b50919050565b5f819050815f5260205f209050919050565b5f6020601f8301049050919050565b5f82821b905092915050565b5f600883026103cf7fffffffffffffffffffffffffffffffffffffffffffffffffffffffffffffffff82610394565b6103d98683610394565b95508019841693508086168417925050509392505050565b5f819050919050565b5f819050919050565b5f61041d610418610413846103f1565b6103fa565b6103f1565b9050919050565b5f819050919050565b61043683610403565b61044a61044282610424565b8484546103a0565b825550505050565b5f5f905090565b610461610452565b61046c81848461042d565b505050565b5b8181101561048f576104845f82610459565b600181019050610472565b5050565b601f8211156104d4576104a581610373565b6104ae84610385565b810160208510156104bd578190505b6104d16104c985610385565b830182610471565b50505b505050565b5f82821c905092915050565b5f6104f45f19846008026104d9565b1980831691505092915050565b5f61050c83836104e5565b9150826002028217905092915050565b610525826102df565b67ffffffffffffffff81111561053e5761053d6102e9565b5b6105488254610343565b610553828285610493565b5f60209050601f831160018114610584575f8415610572578287015190505b61057c8582610501565b8655506105e3565b601f19841661059286610373565b5f5b828110156105b957848901518255600182019150602085019450602081019050610594565b868310156105d657848901516105d2601f8916826104e5565b8355505b6001600288020188555050505b505050505050565b5f81519050919050565b5f819050815f5260205f209050919050565b601f82111561064857610619816105f5565b61062284610385565b81016020851015610631578190505b61064561063d85610385565b830182610471565b50505b505050565b610656826105eb565b67ffffffffffffffff81111561066f5761066e6102e9565b5b6106798254610343565b610684828285610607565b5f60209050601f8311600181146106b5575f84156106a3578287015190505b6106ad8582610501565b865550610714565b601f1984166106c3866105f5565b5f5b828110156106ea578489015182556001820191506020850194506020810190506106c5565b868310156107075784890151610703601f8916826104e5565b8355505b6001600288020188555050505b505050505050565b5f81905092915050565b5f815461073281610343565b61073c818661071c565b9450600182165f8114610756576001811461076b5761079d565b60ff198316865281151582028601935061079d565b61077485610373565b5f5b8381101561079557815481890152600182019150602081019050610776565b838801955050505b50505092915050565b5f6107b18284610726565b915081905092915050565b60805161507c6107db5f395f818161077801526120fd015261507c5ff3fe608060405234801561000f575f5ffd5b50600436106101a7575f3560e01c806342842e0e116100f757806395d89b4111610095578063b88d4fde1161006f578063b88d4fde14610495578063c87b56dd146104b1578063e985e9c5146104e1578063f230b4c214610511576101a7565b806395d89b411461043d578063a22cb4651461045b578063b1e2174914610477576101a7565b80636352211e116100d15780636352211e146103b557806365372147146103e557806370a082311461040357806382bb0dfc14610433576101a7565b806342842e0e1461034b5780634b0795a81461036757806358875a4f14610385576101a7565b8063134d67e5116101645780632d00cf3b1161013e5780632d00cf3b146102d757806331f59102146102f357806333d608f11461030f5780633944ea3a1461032d576101a7565b8063134d67e51461027f57806317d70f7c1461029d57806323b872dd146102bb576101a7565b806301ffc9a7146101ab57806306fdde03146101db578063081812fc146101f9578063095ea7b3146102295780630ca76175146102455780630cde9f3c14610261575b5f5ffd5b6101c560048036038101906101c0919061333e565b61052f565b6040516101d29190613383565b60405180910390f35b6101e361058f565b6040516101f0919061340c565b60405180910390f35b610213600480360381019061020e919061345f565b61061e565b60405161022091906134c9565b60405180910390f35b610243600480360381019061023e919061350c565b610660565b005b61025f600480360381019061025a91906136a9565b610776565b005b610269610838565b6040516102769190613740565b60405180910390f35b61028761085e565b60405161029491906134c9565b60405180910390f35b6102a5610876565b6040516102b29190613768565b60405180910390f35b6102d560048036038101906102d09190613781565b61087c565b005b6102f160048036038101906102ec919061386f565b6108dc565b005b61030d600480360381019061030891906138e5565b610995565b005b610317610a76565b604051610324919061392e565b60405180910390f35b610335610a7d565b6040516103429190613999565b60405180910390f35b61036560048036038101906103609190613781565b610b09565b005b61036f610b28565b60405161037c9190613999565b60405180910390f35b61039f600480360381019061039a9190613b0e565b610bb4565b6040516103ac9190613740565b60405180910390f35b6103cf60048036038101906103ca919061345f565b610e03565b6040516103dc91906134c9565b60405180910390f35b6103ed610e87565b6040516103fa919061340c565b60405180910390f35b61041d600480360381019061041891906138e5565b610f13565b60405161042a9190613768565b60405180910390f35b61043b610fc7565b005b6104456110a6565b604051610452919061340c565b60405180910390f35b61047560048036038101906104709190613bcb565b611136565b005b61047f61114c565b60405161048c9190613740565b60405180910390f35b6104af60048036038101906104aa9190613c09565b611152565b005b6104cb60048036038101906104c6919061345f565b6111b4565b6040516104d8919061340c565b60405180910390f35b6104fb60048036038101906104f69190613c89565b6112be565b6040516105089190613383565b60405180910390f35b61051961134c565b604051610526919061340c565b60405180910390f35b5f634906490660e01b7bffffffffffffffffffffffffffffffffffffffffffffffffffffffff1916827bffffffffffffffffffffffffffffffffffffffffffffffffffffffff1916148061058857506105878261136b565b5b9050919050565b60605f805461059d90613cf4565b80601f01602080910402602001604051908101604052809291908181526020018280546105c990613cf4565b80156106145780601f106105eb57610100808354040283529160200191610614565b820191905f5260205f20905b8154815290600101906020018083116105f757829003601f168201915b5050505050905090565b5f6106288261144c565b60045f8381526020019081526020015f205f9054906101000a900473ffffffffffffffffffffffffffffffffffffffff169050919050565b5f61066a82610e03565b90508073ffffffffffffffffffffffffffffffffffffffff168373ffffffffffffffffffffffffffffffffffffffff16036106da576040517f08c379a00000000000000000000000000000000000000000000000000000000081526004016106d190613d94565b60405180910390fd5b8073ffffffffffffffffffffffffffffffffffffffff166106f9611497565b73ffffffffffffffffffffffffffffffffffffffff161480610728575061072781610722611497565b6112be565b5b610767576040517f08c379a000000000000000000000000000000000000000000000000000000000815260040161075e90613e22565b60405180910390fd5b610771838361149e565b505050565b7f000000000000000000000000000000000000000000000000000000000000000073ffffffffffffffffffffffffffffffffffffffff163373ffffffffffffffffffffffffffffffffffffffff16146107fb576040517fc6829f8300000000000000000000000000000000000000000000000000000000815260040160405180910390fd5b610806838383611554565b827f85e1543bf2f84fe80c6badbce3648c8539ad1df4d2b3d822938ca0538be727e660405160405180910390a2505050565b7f66756e2d6176616c616e6368652d66756a692d310000000000000000000000005f1b81565b73a9d587a00a31a52ed70d6026794a8fc5e2f5dcb081565b600f5481565b61088d610887611497565b8261180a565b6108cc576040517f08c379a00000000000000000000000000000000000000000000000000000000081526004016108c390613eb0565b60405180910390fd5b6108d783838361189e565b505050565b600b5f3373ffffffffffffffffffffffffffffffffffffffff1673ffffffffffffffffffffffffffffffffffffffff1681526020019081526020015f205f9054906101000a900460ff16610965576040517f08c379a000000000000000000000000000000000000000000000000000000000815260040161095c90613f3e565b60405180910390fd5b806010836040516109769190613f96565b90815260200160405180910390209081610990919061414c565b505050565b600b5f3373ffffffffffffffffffffffffffffffffffffffff1673ffffffffffffffffffffffffffffffffffffffff1681526020019081526020015f205f9054906101000a900460ff16610a1e576040517f08c379a0000000000000000000000000000000000000000000000000000000008152600401610a1590613f3e565b60405180910390fd5b6001600b5f8373ffffffffffffffffffffffffffffffffffffffff1673ffffffffffffffffffffffffffffffffffffffff1681526020019081526020015f205f6101000a81548160ff02191690831515021790555050565b620493e081565b60088054610a8a90613cf4565b80601f0160208091040260200160405190810160405280929190818152602001828054610ab690613cf4565b8015610b015780601f10610ad857610100808354040283529160200191610b01565b820191905f5260205f20905b815481529060010190602001808311610ae457829003601f168201915b505050505081565b610b2383838360405180602001604052805f815250611152565b505050565b60098054610b3590613cf4565b80601f0160208091040260200160405190810160405280929190818152602001828054610b6190613cf4565b8015610bac5780601f10610b8357610100808354040283529160200191610bac565b820191905f5260205f20905b815481529060010190602001808311610b8f57829003601f168201915b505050505081565b5f600b5f3373ffffffffffffffffffffffffffffffffffffffff1673ffffffffffffffffffffffffffffffffffffffff1681526020019081526020015f205f9054906101000a900460ff16610c3e576040517f08c379a0000000000000000000000000000000000000000000000000000000008152600401610c3590613f3e565b60405180910390fd5b5f845f81518110610c5257610c5161421b565b5b60200260200101519050600c81604051610c6c9190614282565b90815260200160405180910390205f9054906101000a900460ff1615610cc7576040517f08c379a0000000000000000000000000000000000000000000000000000000008152600401610cbe906142e2565b60405180910390fd5b610ccf613231565b610cfd604051806102a001604052806102778152602001614dd0610277913982611b8a90919063ffffffff16565b5f8767ffffffffffffffff161115610d2557610d24888883611b9a9092919063ffffffff16565b5b5f86511115610d4257610d418682611ca790919063ffffffff16565b5b610d7b610d4e82611cee565b86620493e07f66756e2d6176616c616e6368652d66756a692d310000000000000000000000005f1b6120f9565b60078190555083600d5f60075481526020019081526020015f205f6101000a81548173ffffffffffffffffffffffffffffffffffffffff021916908373ffffffffffffffffffffffffffffffffffffffff16021790555081600e5f60075481526020019081526020015f209081610df2919061414c565b506007549250505095945050505050565b5f5f610e0e836121d8565b90505f73ffffffffffffffffffffffffffffffffffffffff168173ffffffffffffffffffffffffffffffffffffffff1603610e7e576040517f08c379a0000000000000000000000000000000000000000000000000000000008152600401610e759061434a565b60405180910390fd5b80915050919050565b600a8054610e9490613cf4565b80601f0160208091040260200160405190810160405280929190818152602001828054610ec090613cf4565b8015610f0b5780601f10610ee257610100808354040283529160200191610f0b565b820191905f5260205f20905b815481529060010190602001808311610eee57829003601f168201915b505050505081565b5f5f73ffffffffffffffffffffffffffffffffffffffff168273ffffffffffffffffffffffffffffffffffffffff1603610f82576040517f08c379a0000000000000000000000000000000000000000000000000000000008152600401610f79906143d8565b60405180910390fd5b60035f8373ffffffffffffffffffffffffffffffffffffffff1673ffffffffffffffffffffffffffffffffffffffff1681526020019081526020015f20549050919050565b600b5f3373ffffffffffffffffffffffffffffffffffffffff1673ffffffffffffffffffffffffffffffffffffffff1681526020019081526020015f205f9054906101000a900460ff16611050576040517f08c379a000000000000000000000000000000000000000000000000000000000815260040161104790613f3e565b60405180910390fd5b5f600b5f3373ffffffffffffffffffffffffffffffffffffffff1673ffffffffffffffffffffffffffffffffffffffff1681526020019081526020015f205f6101000a81548160ff021916908315150217905550565b6060600180546110b590613cf4565b80601f01602080910402602001604051908101604052809291908181526020018280546110e190613cf4565b801561112c5780601f106111035761010080835404028352916020019161112c565b820191905f5260205f20905b81548152906001019060200180831161110f57829003601f168201915b5050505050905090565b611148611141611497565b8383612211565b5050565b60075481565b61116361115d611497565b8361180a565b6111a2576040517f08c379a000000000000000000000000000000000000000000000000000000000815260040161119990613eb0565b60405180910390fd5b6111ae84848484612378565b50505050565b60606111bf8261144c565b5f60065f8481526020019081526020015f2080546111dc90613cf4565b80601f016020809104026020016040519081016040528092919081815260200182805461120890613cf4565b80156112535780601f1061122a57610100808354040283529160200191611253565b820191905f5260205f20905b81548152906001019060200180831161123657829003601f168201915b505050505090505f6112636123d4565b90505f8151036112775781925050506112b9565b5f825111156112ab5780826040516020016112939291906143f6565b604051602081830303815290604052925050506112b9565b6112b4846123ea565b925050505b919050565b5f60055f8473ffffffffffffffffffffffffffffffffffffffff1673ffffffffffffffffffffffffffffffffffffffff1681526020019081526020015f205f8373ffffffffffffffffffffffffffffffffffffffff1673ffffffffffffffffffffffffffffffffffffffff1681526020019081526020015f205f9054906101000a900460ff16905092915050565b604051806102a001604052806102778152602001614dd0610277913981565b5f7f80ac58cd000000000000000000000000000000000000000000000000000000007bffffffffffffffffffffffffffffffffffffffffffffffffffffffff1916827bffffffffffffffffffffffffffffffffffffffffffffffffffffffff1916148061143557507f5b5e139f000000000000000000000000000000000000000000000000000000007bffffffffffffffffffffffffffffffffffffffffffffffffffffffff1916827bffffffffffffffffffffffffffffffffffffffffffffffffffffffff1916145b8061144557506114448261244f565b5b9050919050565b611455816124b8565b611494576040517f08c379a000000000000000000000000000000000000000000000000000000000815260040161148b9061434a565b60405180910390fd5b50565b5f33905090565b8160045f8381526020019081526020015f205f6101000a81548173ffffffffffffffffffffffffffffffffffffffff021916908373ffffffffffffffffffffffffffffffffffffffff160217905550808273ffffffffffffffffffffffffffffffffffffffff1661150e83610e03565b73ffffffffffffffffffffffffffffffffffffffff167f8c5be1e5ebec7d5bd14f71427d1e84f3dd0314c0f7b2291e5b200ac8c7c3b92560405160405180910390a45050565b826007541461159a57826040517fd068bf5b0000000000000000000000000000000000000000000000000000000081526004016115919190613740565b60405180910390fd5b81600890816115a99190614471565b5080600990816115b99190614471565b50827f7873807bf6ddc50401cd3d29bbe0decee23fd4d68d273f4b5eb83cded4d2f172600860096040516115ee9291906145c1565b60405180910390a26040518060400160405280600981526020017f6e6f7420666f756e6400000000000000000000000000000000000000000000008152508051906020012082805190602001200315611805575f815103611804575f600d5f8581526020019081526020015f205f9054906101000a900473ffffffffffffffffffffffffffffffffffffffff1690505f60108460405161168e9190613f96565b908152602001604051809103902080546116a790613cf4565b80601f01602080910402602001604051908101604052809291908181526020018280546116d390613cf4565b801561171e5780601f106116f55761010080835404028352916020019161171e565b820191905f5260205f20905b81548152906001019060200180831161170157829003601f168201915b5050505050905061172f82826124f8565b5f600e5f8781526020019081526020015f20805461174c90613cf4565b80601f016020809104026020016040519081016040528092919081815260200182805461177890613cf4565b80156117c35780601f1061179a576101008083540402835291602001916117c3565b820191905f5260205f20905b8154815290600101906020018083116117a657829003601f168201915b505050505090506001600c826040516117dc9190614282565b90815260200160405180910390205f6101000a81548160ff0219169083151502179055505050505b5b505050565b5f5f61181583610e03565b90508073ffffffffffffffffffffffffffffffffffffffff168473ffffffffffffffffffffffffffffffffffffffff161480611857575061185681856112be565b5b8061189557508373ffffffffffffffffffffffffffffffffffffffff1661187d8461061e565b73ffffffffffffffffffffffffffffffffffffffff16145b91505092915050565b8273ffffffffffffffffffffffffffffffffffffffff166118be82610e03565b73ffffffffffffffffffffffffffffffffffffffff1614611914576040517f08c379a000000000000000000000000000000000000000000000000000000000815260040161190b90614666565b60405180910390fd5b5f73ffffffffffffffffffffffffffffffffffffffff168273ffffffffffffffffffffffffffffffffffffffff1603611982576040517f08c379a0000000000000000000000000000000000000000000000000000000008152600401611979906146f4565b60405180910390fd5b61198f838383600161252b565b8273ffffffffffffffffffffffffffffffffffffffff166119af82610e03565b73ffffffffffffffffffffffffffffffffffffffff1614611a05576040517f08c379a00000000000000000000000000000000000000000000000000000000081526004016119fc90614666565b60405180910390fd5b60045f8281526020019081526020015f205f6101000a81549073ffffffffffffffffffffffffffffffffffffffff0219169055600160035f8573ffffffffffffffffffffffffffffffffffffffff1673ffffffffffffffffffffffffffffffffffffffff1681526020019081526020015f205f8282540392505081905550600160035f8473ffffffffffffffffffffffffffffffffffffffff1673ffffffffffffffffffffffffffffffffffffffff1681526020019081526020015f205f82825401925050819055508160025f8381526020019081526020015f205f6101000a81548173ffffffffffffffffffffffffffffffffffffffff021916908373ffffffffffffffffffffffffffffffffffffffff160217905550808273ffffffffffffffffffffffffffffffffffffffff168473ffffffffffffffffffffffffffffffffffffffff167fddf252ad1be2c89b69c2b068fc378daa952ba7f163c4a11628f55a4df523b3ef60405160405180910390a4611b858383836001612531565b505050565b611b96825f5f84612537565b5050565b5f611ba66101006125dd565b9050611bf06040518060400160405280600681526020017f736c6f74494400000000000000000000000000000000000000000000000000008152508261260290919063ffffffff16565b611c068360ff168261262a90919063ffffffff16565b611c4e6040518060400160405280600781526020017f76657273696f6e000000000000000000000000000000000000000000000000008152508261260290919063ffffffff16565b611c61828261262a90919063ffffffff16565b600284602001906002811115611c7a57611c79614712565b5b90816002811115611c8e57611c8d614712565b5b81525050805f01515f0151846080018190525050505050565b5f815103611ce1576040517ffe936cb700000000000000000000000000000000000000000000000000000000815260040160405180910390fd5b808260a001819052505050565b60605f611cfc6101006125dd565b9050611d466040518060400160405280600c81526020017f636f64654c6f636174696f6e00000000000000000000000000000000000000008152508261260290919063ffffffff16565b611d6e835f01516002811115611d5f57611d5e614712565b5b8261263990919063ffffffff16565b611db66040518060400160405280600881526020017f6c616e67756167650000000000000000000000000000000000000000000000008152508261260290919063ffffffff16565b611dde83604001515f811115611dcf57611dce614712565b5b8261263990919063ffffffff16565b611e266040518060400160405280600681526020017f736f7572636500000000000000000000000000000000000000000000000000008152508261260290919063ffffffff16565b611e3d83606001518261260290919063ffffffff16565b5f8360a00151511115611ef457611e926040518060400160405280600481526020017f61726773000000000000000000000000000000000000000000000000000000008152508261260290919063ffffffff16565b611e9b81612688565b5f5f90505b8360a0015151811015611ee957611ede8460a001518281518110611ec757611ec661421b565b5b60200260200101518361260290919063ffffffff16565b806001019050611ea0565b50611ef3816126b0565b5b5f8360800151511115612033575f6002811115611f1457611f13614712565b5b83602001516002811115611f2b57611f2a614712565b5b03611f62576040517fa80d31f700000000000000000000000000000000000000000000000000000000815260040160405180910390fd5b611faa6040518060400160405280600f81526020017f736563726574734c6f636174696f6e00000000000000000000000000000000008152508261260290919063ffffffff16565b611fd383602001516002811115611fc457611fc3614712565b5b8261263990919063ffffffff16565b61201b6040518060400160405280600781526020017f73656372657473000000000000000000000000000000000000000000000000008152508261260290919063ffffffff16565b6120328360800151826126d890919063ffffffff16565b5b5f8360c001515111156120ea576120886040518060400160405280600981526020017f62797465734172677300000000000000000000000000000000000000000000008152508261260290919063ffffffff16565b61209181612688565b5f5f90505b8360c00151518110156120df576120d48460c0015182815181106120bd576120bc61421b565b5b6020026020010151836126d890919063ffffffff16565b806001019050612096565b506120e9816126b0565b5b805f01515f0151915050919050565b5f5f7f000000000000000000000000000000000000000000000000000000000000000073ffffffffffffffffffffffffffffffffffffffff1663461d27628688600188886040518663ffffffff1660e01b815260040161215d95949392919061476a565b6020604051808303815f875af1158015612179573d5f5f3e3d5ffd5b505050506040513d601f19601f8201168201806040525081019061219d91906147d6565b9050807f1131472297a800fee664d1d89cfa8f7676ff07189ecc53f80bbb5f4969099db860405160405180910390a280915050949350505050565b5f60025f8381526020019081526020015f205f9054906101000a900473ffffffffffffffffffffffffffffffffffffffff169050919050565b8173ffffffffffffffffffffffffffffffffffffffff168373ffffffffffffffffffffffffffffffffffffffff160361227f576040517f08c379a00000000000000000000000000000000000000000000000000000000081526004016122769061484b565b60405180910390fd5b8060055f8573ffffffffffffffffffffffffffffffffffffffff1673ffffffffffffffffffffffffffffffffffffffff1681526020019081526020015f205f8473ffffffffffffffffffffffffffffffffffffffff1673ffffffffffffffffffffffffffffffffffffffff1681526020019081526020015f205f6101000a81548160ff0219169083151502179055508173ffffffffffffffffffffffffffffffffffffffff168373ffffffffffffffffffffffffffffffffffffffff167f17307eab39ab6107e8899845ad3d59bd9653f200f220920489ca2b5937696c318360405161236b9190613383565b60405180910390a3505050565b61238384848461189e565b61238f84848484612700565b6123ce576040517f08c379a00000000000000000000000000000000000000000000000000000000081526004016123c5906148d9565b60405180910390fd5b50505050565b606060405180602001604052805f815250905090565b60606123f58261144c565b5f6123fe6123d4565b90505f81511161241c5760405180602001604052805f815250612447565b8061242684612882565b6040516020016124379291906143f6565b6040516020818303038152906040525b915050919050565b5f7f01ffc9a7000000000000000000000000000000000000000000000000000000007bffffffffffffffffffffffffffffffffffffffffffffffffffffffff1916827bffffffffffffffffffffffffffffffffffffffffffffffffffffffff1916149050919050565b5f5f73ffffffffffffffffffffffffffffffffffffffff166124d9836121d8565b73ffffffffffffffffffffffffffffffffffffffff1614159050919050565b61250482600f5461294c565b612510600f5482612969565b600f5f81548092919061252290614924565b91905055505050565b50505050565b50505050565b5f815103612571576040517f22ce3edd00000000000000000000000000000000000000000000000000000000815260040160405180910390fd5b82845f0190600281111561258857612587614712565b5b9081600281111561259c5761259b614712565b5b815250508184604001905f8111156125b7576125b6614712565b5b90815f8111156125ca576125c9614712565b5b8152505080846060018190525050505050565b6125e56132a0565b6125f2815f015183612a0b565b505f816020018181525050919050565b61260f8260038351612a81565b61262581835f0151612c2190919063ffffffff16565b505050565b612635825f83612a81565b5050565b61265a60026005600660ff16901b17835f0151612c3d90919063ffffffff16565b5061268482826040516020016126709190613768565b6040516020818303038152906040526126d8565b5050565b612693816004612ca4565b6001816020018181516126a6919061496b565b9150818152505050565b6126bb816007612ca4565b6001816020018181516126ce919061499e565b9150818152505050565b6126e58260028351612a81565b6126fb81835f0151612c2190919063ffffffff16565b505050565b5f6127208473ffffffffffffffffffffffffffffffffffffffff16612cc9565b15612875578373ffffffffffffffffffffffffffffffffffffffff1663150b7a02612749611497565b8786866040518563ffffffff1660e01b815260040161276b94939291906149d1565b6020604051808303815f875af19250505080156127a657506040513d601f19601f820116820180604052508101906127a39190614a2f565b60015b612825573d805f81146127d4576040519150601f19603f3d011682016040523d82523d5f602084013e6127d9565b606091505b505f81510361281d576040517f08c379a0000000000000000000000000000000000000000000000000000000008152600401612814906148d9565b60405180910390fd5b805181602001fd5b63150b7a0260e01b7bffffffffffffffffffffffffffffffffffffffffffffffffffffffff1916817bffffffffffffffffffffffffffffffffffffffffffffffffffffffff19161491505061287a565b600190505b949350505050565b60605f600161289084612ceb565b0190505f8167ffffffffffffffff8111156128ae576128ad613585565b5b6040519080825280601f01601f1916602001820160405280156128e05781602001600182028036833780820191505090505b5090505f82602001820190505b600115612941578080600190039150507f3031323334353637383961626364656600000000000000000000000000000000600a86061a8153600a858161293657612935614a5a565b5b0494505f85036128ed575b819350505050919050565b612965828260405180602001604052805f815250612e3c565b5050565b612972826124b8565b6129b1576040517f08c379a00000000000000000000000000000000000000000000000000000000081526004016129a890614af7565b60405180910390fd5b8060065f8481526020019081526020015f2090816129cf919061414c565b507ff8e1a15aba9398e019f0b49df1a4fde98ee17ae345cb5f6b5e2c27f5033e8ce7826040516129ff9190613768565b60405180910390a15050565b612a136132bf565b5f602083612a219190614b15565b14612a4d57602082612a339190614b15565b6020612a3f919061499e565b82612a4a919061496b565b91505b818360200181815250506040518084525f815282810160200181811015612a72575f5ffd5b80604052505082905092915050565b60178167ffffffffffffffff1611612abb57612ab58160058460ff16901b60ff1617845f0151612c3d90919063ffffffff16565b50612c1c565b60ff8167ffffffffffffffff1611612b1757612aed601860058460ff16901b17845f0151612c3d90919063ffffffff16565b50612b118167ffffffffffffffff166001855f0151612e969092919063ffffffff16565b50612c1b565b61ffff8167ffffffffffffffff1611612b7457612b4a601960058460ff16901b17845f0151612c3d90919063ffffffff16565b50612b6e8167ffffffffffffffff166002855f0151612e969092919063ffffffff16565b50612c1a565b63ffffffff8167ffffffffffffffff1611612bd357612ba9601a60058460ff16901b17845f0151612c3d90919063ffffffff16565b50612bcd8167ffffffffffffffff166004855f0151612e969092919063ffffffff16565b50612c19565b612bf3601b60058460ff16901b17845f0151612c3d90919063ffffffff16565b50612c178167ffffffffffffffff166008855f0151612e969092919063ffffffff16565b505b5b5b5b505050565b612c296132bf565b612c3583838451612f1f565b905092915050565b612c456132bf565b5f835f01515190505f600182612c5b919061496b565b905084602001518210612c7f57612c7e85600283612c799190614b45565b612ffc565b5b84516020838201018581538151831115612c97578282525b5050849250505092915050565b612cc4601f60058360ff16901b17835f0151612c3d90919063ffffffff16565b505050565b5f5f8273ffffffffffffffffffffffffffffffffffffffff163b119050919050565b5f5f5f90507a184f03e93ff9f4daa797ed6e38ed64bf6a1f0100000000000000008310612d47577a184f03e93ff9f4daa797ed6e38ed64bf6a1f0100000000000000008381612d3d57612d3c614a5a565b5b0492506040810190505b6d04ee2d6d415b85acef81000000008310612d84576d04ee2d6d415b85acef81000000008381612d7a57612d79614a5a565b5b0492506020810190505b662386f26fc100008310612db357662386f26fc100008381612da957612da8614a5a565b5b0492506010810190505b6305f5e1008310612ddc576305f5e1008381612dd257612dd1614a5a565b5b0492506008810190505b6127108310612e01576127108381612df757612df6614a5a565b5b0492506004810190505b60648310612e245760648381612e1a57612e19614a5a565b5b0492506002810190505b600a8310612e33576001810190505b80915050919050565b612e46838361301e565b612e525f848484612700565b612e91576040517f08c379a0000000000000000000000000000000000000000000000000000000008152600401612e88906148d9565b60405180910390fd5b505050565b612e9e6132bf565b5f845f01515190505f8184612eb3919061496b565b90508560200151811115612ed857612ed786600283612ed29190614b45565b612ffc565b5b5f600185610100612ee99190614cb5565b612ef3919061499e565b905086518281018783198251161781528151841115612f10578382525b50508693505050509392505050565b612f276132bf565b8251821115612f34575f5ffd5b5f845f01515190505f8382612f49919061496b565b90508560200151811115612f6e57612f6d86600283612f689190614b45565b612ffc565b5b5f5f87518051856020830101935080851115612f88578482525b60208901925050505b60208610612fcf5780518252602082612faa919061496b565b9150602081612fb9919061496b565b9050602086612fc8919061499e565b9550612f91565b5f6001876020036101000a0390508019825116818451168181178552505050879450505050509392505050565b5f825f0151905061300d8383612a0b565b506130188382612c21565b50505050565b5f73ffffffffffffffffffffffffffffffffffffffff168273ffffffffffffffffffffffffffffffffffffffff160361308c576040517f08c379a000000000000000000000000000000000000000000000000000000000815260040161308390614d49565b60405180910390fd5b613095816124b8565b156130d5576040517f08c379a00000000000000000000000000000000000000000000000000000000081526004016130cc90614db1565b60405180910390fd5b6130e25f8383600161252b565b6130eb816124b8565b1561312b576040517f08c379a000000000000000000000000000000000000000000000000000000000815260040161312290614db1565b60405180910390fd5b600160035f8473ffffffffffffffffffffffffffffffffffffffff1673ffffffffffffffffffffffffffffffffffffffff1681526020019081526020015f205f82825401925050819055508160025f8381526020019081526020015f205f6101000a81548173ffffffffffffffffffffffffffffffffffffffff021916908373ffffffffffffffffffffffffffffffffffffffff160217905550808273ffffffffffffffffffffffffffffffffffffffff165f73ffffffffffffffffffffffffffffffffffffffff167fddf252ad1be2c89b69c2b068fc378daa952ba7f163c4a11628f55a4df523b3ef60405160405180910390a461322d5f83836001612531565b5050565b6040518060e001604052805f600281111561324f5761324e614712565b5b81526020015f600281111561326757613266614712565b5b81526020015f5f81111561327e5761327d614712565b5b8152602001606081526020016060815260200160608152602001606081525090565b60405180604001604052806132b36132bf565b81526020015f81525090565b6040518060400160405280606081526020015f81525090565b5f604051905090565b5f5ffd5b5f5ffd5b5f7fffffffff0000000000000000000000000000000000000000000000000000000082169050919050565b61331d816132e9565b8114613327575f5ffd5b50565b5f8135905061333881613314565b92915050565b5f60208284031215613353576133526132e1565b5b5f6133608482850161332a565b91505092915050565b5f8115159050919050565b61337d81613369565b82525050565b5f6020820190506133965f830184613374565b92915050565b5f81519050919050565b5f82825260208201905092915050565b8281835e5f83830152505050565b5f601f19601f8301169050919050565b5f6133de8261339c565b6133e881856133a6565b93506133f88185602086016133b6565b613401816133c4565b840191505092915050565b5f6020820190508181035f83015261342481846133d4565b905092915050565b5f819050919050565b61343e8161342c565b8114613448575f5ffd5b50565b5f8135905061345981613435565b92915050565b5f60208284031215613474576134736132e1565b5b5f6134818482850161344b565b91505092915050565b5f73ffffffffffffffffffffffffffffffffffffffff82169050919050565b5f6134b38261348a565b9050919050565b6134c3816134a9565b82525050565b5f6020820190506134dc5f8301846134ba565b92915050565b6134eb816134a9565b81146134f5575f5ffd5b50565b5f81359050613506816134e2565b92915050565b5f5f60408385031215613522576135216132e1565b5b5f61352f858286016134f8565b92505060206135408582860161344b565b9150509250929050565b5f819050919050565b61355c8161354a565b8114613566575f5ffd5b50565b5f8135905061357781613553565b92915050565b5f5ffd5b5f5ffd5b7f4e487b71000000000000000000000000000000000000000000000000000000005f52604160045260245ffd5b6135bb826133c4565b810181811067ffffffffffffffff821117156135da576135d9613585565b5b80604052505050565b5f6135ec6132d8565b90506135f882826135b2565b919050565b5f67ffffffffffffffff82111561361757613616613585565b5b613620826133c4565b9050602081019050919050565b828183375f83830152505050565b5f61364d613648846135fd565b6135e3565b90508281526020810184848401111561366957613668613581565b5b61367484828561362d565b509392505050565b5f82601f8301126136905761368f61357d565b5b81356136a084826020860161363b565b91505092915050565b5f5f5f606084860312156136c0576136bf6132e1565b5b5f6136cd86828701613569565b935050602084013567ffffffffffffffff8111156136ee576136ed6132e5565b5b6136fa8682870161367c565b925050604084013567ffffffffffffffff81111561371b5761371a6132e5565b5b6137278682870161367c565b9150509250925092565b61373a8161354a565b82525050565b5f6020820190506137535f830184613731565b92915050565b6137628161342c565b82525050565b5f60208201905061377b5f830184613759565b92915050565b5f5f5f60608486031215613798576137976132e1565b5b5f6137a5868287016134f8565b93505060206137b6868287016134f8565b92505060406137c78682870161344b565b9150509250925092565b5f67ffffffffffffffff8211156137eb576137ea613585565b5b6137f4826133c4565b9050602081019050919050565b5f61381361380e846137d1565b6135e3565b90508281526020810184848401111561382f5761382e613581565b5b61383a84828561362d565b509392505050565b5f82601f8301126138565761385561357d565b5b8135613866848260208601613801565b91505092915050565b5f5f60408385031215613885576138846132e1565b5b5f83013567ffffffffffffffff8111156138a2576138a16132e5565b5b6138ae85828601613842565b925050602083013567ffffffffffffffff8111156138cf576138ce6132e5565b5b6138db85828601613842565b9150509250929050565b5f602082840312156138fa576138f96132e1565b5b5f613907848285016134f8565b91505092915050565b5f63ffffffff82169050919050565b61392881613910565b82525050565b5f6020820190506139415f83018461391f565b92915050565b5f81519050919050565b5f82825260208201905092915050565b5f61396b82613947565b6139758185613951565b93506139858185602086016133b6565b61398e816133c4565b840191505092915050565b5f6020820190508181035f8301526139b18184613961565b905092915050565b5f60ff82169050919050565b6139ce816139b9565b81146139d8575f5ffd5b50565b5f813590506139e9816139c5565b92915050565b5f67ffffffffffffffff82169050919050565b613a0b816139ef565b8114613a15575f5ffd5b50565b5f81359050613a2681613a02565b92915050565b5f67ffffffffffffffff821115613a4657613a45613585565b5b602082029050602081019050919050565b5f5ffd5b5f613a6d613a6884613a2c565b6135e3565b90508083825260208201905060208402830185811115613a9057613a8f613a57565b5b835b81811015613ad757803567ffffffffffffffff811115613ab557613ab461357d565b5b808601613ac28982613842565b85526020850194505050602081019050613a92565b5050509392505050565b5f82601f830112613af557613af461357d565b5b8135613b05848260208601613a5b565b91505092915050565b5f5f5f5f5f60a08688031215613b2757613b266132e1565b5b5f613b34888289016139db565b9550506020613b4588828901613a18565b945050604086013567ffffffffffffffff811115613b6657613b656132e5565b5b613b7288828901613ae1565b9350506060613b8388828901613a18565b9250506080613b94888289016134f8565b9150509295509295909350565b613baa81613369565b8114613bb4575f5ffd5b50565b5f81359050613bc581613ba1565b92915050565b5f5f60408385031215613be157613be06132e1565b5b5f613bee858286016134f8565b9250506020613bff85828601613bb7565b9150509250929050565b5f5f5f5f60808587031215613c2157613c206132e1565b5b5f613c2e878288016134f8565b9450506020613c3f878288016134f8565b9350506040613c508782880161344b565b925050606085013567ffffffffffffffff811115613c7157613c706132e5565b5b613c7d8782880161367c565b91505092959194509250565b5f5f60408385031215613c9f57613c9e6132e1565b5b5f613cac858286016134f8565b9250506020613cbd858286016134f8565b9150509250929050565b7f4e487b71000000000000000000000000000000000000000000000000000000005f52602260045260245ffd5b5f6002820490506001821680613d0b57607f821691505b602082108103613d1e57613d1d613cc7565b5b50919050565b7f4552433732313a20617070726f76616c20746f2063757272656e74206f776e655f8201527f7200000000000000000000000000000000000000000000000000000000000000602082015250565b5f613d7e6021836133a6565b9150613d8982613d24565b604082019050919050565b5f6020820190508181035f830152613dab81613d72565b9050919050565b7f4552433732313a20617070726f76652063616c6c6572206973206e6f7420746f5f8201527f6b656e206f776e6572206f7220617070726f76656420666f7220616c6c000000602082015250565b5f613e0c603d836133a6565b9150613e1782613db2565b604082019050919050565b5f6020820190508181035f830152613e3981613e00565b9050919050565b7f4552433732313a2063616c6c6572206973206e6f7420746f6b656e206f776e655f8201527f72206f7220617070726f76656400000000000000000000000000000000000000602082015250565b5f613e9a602d836133a6565b9150613ea582613e40565b604082019050919050565b5f6020820190508181035f830152613ec781613e8e565b9050919050565b7f796f7520646f206e6f742068617665207065726d697373696f6e20746f2063615f8201527f6c6c207468652066756e6374696f6e0000000000000000000000000000000000602082015250565b5f613f28602f836133a6565b9150613f3382613ece565b604082019050919050565b5f6020820190508181035f830152613f5581613f1c565b9050919050565b5f81905092915050565b5f613f7082613947565b613f7a8185613f5c565b9350613f8a8185602086016133b6565b80840191505092915050565b5f613fa18284613f66565b915081905092915050565b5f819050815f5260205f209050919050565b5f6020601f8301049050919050565b5f82821b905092915050565b5f600883026140087fffffffffffffffffffffffffffffffffffffffffffffffffffffffffffffffff82613fcd565b6140128683613fcd565b95508019841693508086168417925050509392505050565b5f819050919050565b5f61404d6140486140438461342c565b61402a565b61342c565b9050919050565b5f819050919050565b61406683614033565b61407a61407282614054565b848454613fd9565b825550505050565b5f5f905090565b614091614082565b61409c81848461405d565b505050565b5b818110156140bf576140b45f82614089565b6001810190506140a2565b5050565b601f821115614104576140d581613fac565b6140de84613fbe565b810160208510156140ed578190505b6141016140f985613fbe565b8301826140a1565b50505b505050565b5f82821c905092915050565b5f6141245f1984600802614109565b1980831691505092915050565b5f61413c8383614115565b9150826002028217905092915050565b6141558261339c565b67ffffffffffffffff81111561416e5761416d613585565b5b6141788254613cf4565b6141838282856140c3565b5f60209050601f8311600181146141b4575f84156141a2578287015190505b6141ac8582614131565b865550614213565b601f1984166141c286613fac565b5f5b828110156141e9578489015182556001820191506020850194506020810190506141c4565b868310156142065784890151614202601f891682614115565b8355505b6001600288020188555050505b505050505050565b7f4e487b71000000000000000000000000000000000000000000000000000000005f52603260045260245ffd5b5f81905092915050565b5f61425c8261339c565b6142668185614248565b93506142768185602086016133b6565b80840191505092915050565b5f61428d8284614252565b915081905092915050565b7f74686520636f64652069732072656465656d65640000000000000000000000005f82015250565b5f6142cc6014836133a6565b91506142d782614298565b602082019050919050565b5f6020820190508181035f8301526142f9816142c0565b9050919050565b7f4552433732313a20696e76616c696420746f6b656e20494400000000000000005f82015250565b5f6143346018836133a6565b915061433f82614300565b602082019050919050565b5f6020820190508181035f83015261436181614328565b9050919050565b7f4552433732313a2061646472657373207a65726f206973206e6f7420612076615f8201527f6c6964206f776e65720000000000000000000000000000000000000000000000602082015250565b5f6143c26029836133a6565b91506143cd82614368565b604082019050919050565b5f6020820190508181035f8301526143ef816143b6565b9050919050565b5f6144018285614252565b915061440d8284614252565b91508190509392505050565b5f819050815f5260205f209050919050565b601f82111561446c5761443d81614419565b61444684613fbe565b81016020851015614455578190505b61446961446185613fbe565b8301826140a1565b50505b505050565b61447a82613947565b67ffffffffffffffff81111561449357614492613585565b5b61449d8254613cf4565b6144a882828561442b565b5f60209050601f8311600181146144d9575f84156144c7578287015190505b6144d18582614131565b865550614538565b601f1984166144e786614419565b5f5b8281101561450e578489015182556001820191506020850194506020810190506144e9565b8683101561452b5784890151614527601f891682614115565b8355505b6001600288020188555050505b505050505050565b5f815461454c81613cf4565b6145568186613951565b9450600182165f81146145705760018114614586576145b8565b60ff1983168652811515602002860193506145b8565b61458f85614419565b5f5b838110156145b057815481890152600182019150602081019050614591565b808801955050505b50505092915050565b5f6040820190508181035f8301526145d98185614540565b905081810360208301526145ed8184614540565b90509392505050565b7f4552433732313a207472616e736665722066726f6d20696e636f7272656374205f8201527f6f776e6572000000000000000000000000000000000000000000000000000000602082015250565b5f6146506025836133a6565b915061465b826145f6565b604082019050919050565b5f6020820190508181035f83015261467d81614644565b9050919050565b7f4552433732313a207472616e7366657220746f20746865207a65726f206164645f8201527f7265737300000000000000000000000000000000000000000000000000000000602082015250565b5f6146de6024836133a6565b91506146e982614684565b604082019050919050565b5f6020820190508181035f83015261470b816146d2565b9050919050565b7f4e487b71000000000000000000000000000000000000000000000000000000005f52602160045260245ffd5b614748816139ef565b82525050565b5f61ffff82169050919050565b6147648161474e565b82525050565b5f60a08201905061477d5f83018861473f565b818103602083015261478f8187613961565b905061479e604083018661475b565b6147ab606083018561391f565b6147b86080830184613731565b9695505050505050565b5f815190506147d081613553565b92915050565b5f602082840312156147eb576147ea6132e1565b5b5f6147f8848285016147c2565b91505092915050565b7f4552433732313a20617070726f766520746f2063616c6c6572000000000000005f82015250565b5f6148356019836133a6565b915061484082614801565b602082019050919050565b5f6020820190508181035f83015261486281614829565b9050919050565b7f4552433732313a207472616e7366657220746f206e6f6e2045524337323152655f8201527f63656976657220696d706c656d656e7465720000000000000000000000000000602082015250565b5f6148c36032836133a6565b91506148ce82614869565b604082019050919050565b5f6020820190508181035f8301526148f0816148b7565b9050919050565b7f4e487b71000000000000000000000000000000000000000000000000000000005f52601160045260245ffd5b5f61492e8261342c565b91507fffffffffffffffffffffffffffffffffffffffffffffffffffffffffffffffff82036149605761495f6148f7565b5b600182019050919050565b5f6149758261342c565b91506149808361342c565b9250828201905080821115614998576149976148f7565b5b92915050565b5f6149a88261342c565b91506149b38361342c565b92508282039050818111156149cb576149ca6148f7565b5b92915050565b5f6080820190506149e45f8301876134ba565b6149f160208301866134ba565b6149fe6040830185613759565b8181036060830152614a108184613961565b905095945050505050565b5f81519050614a2981613314565b92915050565b5f60208284031215614a4457614a436132e1565b5b5f614a5184828501614a1b565b91505092915050565b7f4e487b71000000000000000000000000000000000000000000000000000000005f52601260045260245ffd5b7f45524337323155524953746f726167653a2055524920736574206f66206e6f6e5f8201527f6578697374656e7420746f6b656e000000000000000000000000000000000000602082015250565b5f614ae1602e836133a6565b9150614aec82614a87565b604082019050919050565b5f6020820190508181035f830152614b0e81614ad5565b9050919050565b5f614b1f8261342c565b9150614b2a8361342c565b925082614b3a57614b39614a5a565b5b828206905092915050565b5f614b4f8261342c565b9150614b5a8361342c565b9250828202614b688161342c565b91508282048414831517614b7f57614b7e6148f7565b5b5092915050565b5f8160011c9050919050565b5f5f8291508390505b6001851115614bdb57808604811115614bb757614bb66148f7565b5b6001851615614bc65780820291505b8081029050614bd485614b86565b9450614b9b565b94509492505050565b5f82614bf35760019050614cae565b81614c00575f9050614cae565b8160018114614c165760028114614c2057614c4f565b6001915050614cae565b60ff841115614c3257614c316148f7565b5b8360020a915084821115614c4957614c486148f7565b5b50614cae565b5060208310610133831016604e8410600b8410161715614c845782820a905083811115614c7f57614c7e6148f7565b5b614cae565b614c918484846001614b92565b92509050818404811115614ca857614ca76148f7565b5b81810290505b9392505050565b5f614cbf8261342c565b9150614cca8361342c565b9250614cf77fffffffffffffffffffffffffffffffffffffffffffffffffffffffffffffffff8484614be4565b905092915050565b7f4552433732313a206d696e7420746f20746865207a65726f20616464726573735f82015250565b5f614d336020836133a6565b9150614d3e82614cff565b602082019050919050565b5f6020820190508181035f830152614d6081614d27565b9050919050565b7f4552433732313a20746f6b656e20616c7265616479206d696e746564000000005f82015250565b5f614d9b601c836133a6565b9150614da682614d67565b602082019050919050565b5f6020820190508181035f830152614dc881614d8f565b905091905056fe636f6e73742067696674436f6465203d20617267735b305d3b69662821736563726574732e6170696b657929207b207468726f77204572726f7228224572726f723a20537570616261736520415049204b6579206973206e6f7420736574212229207d3b636f6e7374206170696b6579203d20736563726574732e6170696b65793b636f6e737420617069526573706f6e7365203d2061776169742046756e6374696f6e732e6d616b654874747052657175657374287b75726c3a202268747470733a2f2f6e776b6d63697a656e71676f6b656269756173732e73757061626173652e636f2f726573742f76312f47696674733f73656c6563743d676966745f6e616d652c676966745f636f6465222c6d6574686f643a2022474554222c686561646572733a207b20226170696b6579223a206170696b65797d7d293b69662028617069526573706f6e73652e6572726f7229207b636f6e736f6c652e6572726f7228617069526573706f6e73652e6572726f72293b7468726f77204572726f72282252657175657374206661696c65643a2022202b20617069526573706f6e73652e6d657373616765293b7d3b636f6e7374207b2064617461207d203d20617069526573706f6e73653b636f6e7374206974656d203d20646174612e66696e64286974656d203d3e206974656d2e676966745f636f6465203d3d2067696674436f6465293b6966286974656d203d3d20756e646566696e656429207b72657475726e2046756e6374696f6e732e656e636f6465537472696e6728226e6f7420666f756e6422297d3b72657475726e2046756e6374696f6e732e656e636f6465537472696e67286974656d2e676966745f6e616d65293ba2646970667358221220703675bc61f99c76d319dc10d6211e1505f2f5defc79343cff3d49c9403cd3e364736f6c634300081e0033697066733a2f2f516d664e68687055657a514c6379715842474c34656850776f37476662776b3979793359634a7147677239645062697066733a2f2f516d614771424e7148617a436a534d4e4d75446b365672676a4e4c4d514b4e5a716161623176664d4841776b6f6a697066733a2f2f516d4e787137477165685a663953704345464b3743346d6f785a545a504e77436572357943417143424e646b3261",
			"opcodes": "PUSH1 0xA0 PUSH1 0x40 MSTORE PUSH1 0x40 MLOAD DUP1 PUSH1 0x40 ADD PUSH1 0x40 MSTORE DUP1 PUSH1 0xC DUP2 MSTORE PUSH1 0x20 ADD PUSH32 0x31303020646973636F756E740000000000000000000000000000000000000000 DUP2 MSTORE POP PUSH1 0x11 SWAP1 DUP2 PUSH2 0x48 SWAP2 SWAP1 PUSH2 0x51C JUMP JUMPDEST POP PUSH1 0x40 MLOAD DUP1 PUSH1 0x40 ADD PUSH1 0x40 MSTORE DUP1 PUSH1 0xB DUP2 MSTORE PUSH1 0x20 ADD PUSH32 0x353020646973636F756E74000000000000000000000000000000000000000000 DUP2 MSTORE POP PUSH1 0x12 SWAP1 DUP2 PUSH2 0x8D SWAP2 SWAP1 PUSH2 0x51C JUMP JUMPDEST POP PUSH1 0x40 MLOAD DUP1 PUSH1 0x40 ADD PUSH1 0x40 MSTORE DUP1 PUSH1 0xF DUP2 MSTORE PUSH1 0x20 ADD PUSH32 0x312D6D6F6E7468207072656D69756D0000000000000000000000000000000000 DUP2 MSTORE POP PUSH1 0x13 SWAP1 DUP2 PUSH2 0xD2 SWAP2 SWAP1 PUSH2 0x51C JUMP JUMPDEST POP CALLVALUE DUP1 ISZERO PUSH2 0xDE JUMPI PUSH0 PUSH0 REVERT JUMPDEST POP PUSH1 0x40 MLOAD DUP1 PUSH1 0x40 ADD PUSH1 0x40 MSTORE DUP1 PUSH1 0x4 DUP2 MSTORE PUSH1 0x20 ADD PUSH32 0x4769667400000000000000000000000000000000000000000000000000000000 DUP2 MSTORE POP PUSH1 0x40 MLOAD DUP1 PUSH1 0x40 ADD PUSH1 0x40 MSTORE DUP1 PUSH1 0x2 DUP2 MSTORE PUSH1 0x20 ADD PUSH32 0x4754000000000000000000000000000000000000000000000000000000000000 DUP2 MSTORE POP PUSH20 0xA9D587A00A31A52ED70D6026794A8FC5E2F5DCB0 DUP1 PUSH20 0xFFFFFFFFFFFFFFFFFFFFFFFFFFFFFFFFFFFFFFFF AND PUSH1 0x80 DUP2 PUSH20 0xFFFFFFFFFFFFFFFFFFFFFFFFFFFFFFFFFFFFFFFF AND DUP2 MSTORE POP POP POP DUP2 PUSH0 SWAP1 DUP2 PUSH2 0x1A3 SWAP2 SWAP1 PUSH2 0x64D JUMP JUMPDEST POP DUP1 PUSH1 0x1 SWAP1 DUP2 PUSH2 0x1B3 SWAP2 SWAP1 PUSH2 0x64D JUMP JUMPDEST POP POP POP PUSH1 0x1 PUSH1 0xB PUSH0 CALLER PUSH20 0xFFFFFFFFFFFFFFFFFFFFFFFFFFFFFFFFFFFFFFFF AND PUSH20 0xFFFFFFFFFFFFFFFFFFFFFFFFFFFFFFFFFFFFFFFF AND DUP2 MSTORE PUSH1 0x20 ADD SWAP1 DUP2 MSTORE PUSH1 0x20 ADD PUSH0 KECCAK256 PUSH0 PUSH2 0x100 EXP DUP2 SLOAD DUP2 PUSH1 0xFF MUL NOT AND SWAP1 DUP4 ISZERO ISZERO MUL OR SWAP1 SSTORE POP PUSH1 0x40 MLOAD DUP1 PUSH1 0x60 ADD PUSH1 0x40 MSTORE DUP1 PUSH1 0x35 DUP2 MSTORE PUSH1 0x20 ADD PUSH2 0x588C PUSH1 0x35 SWAP2 CODECOPY PUSH1 0x10 PUSH1 0x11 PUSH1 0x40 MLOAD PUSH2 0x235 SWAP2 SWAP1 PUSH2 0x7A6 JUMP JUMPDEST SWAP1 DUP2 MSTORE PUSH1 0x20 ADD PUSH1 0x40 MLOAD DUP1 SWAP2 SUB SWAP1 KECCAK256 SWAP1 DUP2 PUSH2 0x24F SWAP2 SWAP1 PUSH2 0x64D JUMP JUMPDEST POP PUSH1 0x40 MLOAD DUP1 PUSH1 0x60 ADD PUSH1 0x40 MSTORE DUP1 PUSH1 0x35 DUP2 MSTORE PUSH1 0x20 ADD PUSH2 0x5857 PUSH1 0x35 SWAP2 CODECOPY PUSH1 0x10 PUSH1 0x12 PUSH1 0x40 MLOAD PUSH2 0x27A SWAP2 SWAP1 PUSH2 0x7A6 JUMP JUMPDEST SWAP1 DUP2 MSTORE PUSH1 0x20 ADD PUSH1 0x40 MLOAD DUP1 SWAP2 SUB SWAP1 KECCAK256 SWAP1 DUP2 PUSH2 0x294 SWAP2 SWAP1 PUSH2 0x64D JUMP JUMPDEST POP PUSH1 0x40 MLOAD DUP1 PUSH1 0x60 ADD PUSH1 0x40 MSTORE DUP1 PUSH1 0x35 DUP2 MSTORE PUSH1 0x20 ADD PUSH2 0x58C1 PUSH1 0x35 SWAP2 CODECOPY PUSH1 0x10 PUSH1 0x13 PUSH1 0x40 MLOAD PUSH2 0x2BF SWAP2 SWAP1 PUSH2 0x7A6 JUMP JUMPDEST SWAP1 DUP2 MSTORE PUSH1 0x20 ADD PUSH1 0x40 MLOAD DUP1 SWAP2 SUB SWAP1 KECCAK256 SWAP1 DUP2 PUSH2 0x2D9 SWAP2 SWAP1 PUSH2 0x64D JUMP JUMPDEST POP PUSH2 0x7BC JUMP JUMPDEST PUSH0 DUP2 MLOAD SWAP1 POP SWAP2 SWAP1 POP JUMP JUMPDEST PUSH32 0x4E487B7100000000000000000000000000000000000000000000000000000000 PUSH0 MSTORE PUSH1 0x41 PUSH1 0x4 MSTORE PUSH1 0x24 PUSH0 REVERT JUMPDEST PUSH32 0x4E487B7100000000000000000000000000000000000000000000000000000000 PUSH0 MSTORE PUSH1 0x22 PUSH1 0x4 MSTORE PUSH1 0x24 PUSH0 REVERT JUMPDEST PUSH0 PUSH1 0x2 DUP3 DIV SWAP1 POP PUSH1 0x1 DUP3 AND DUP1 PUSH2 0x35A JUMPI PUSH1 0x7F DUP3 AND SWAP2 POP JUMPDEST PUSH1 0x20 DUP3 LT DUP2 SUB PUSH2 0x36D JUMPI PUSH2 0x36C PUSH2 0x316 JUMP JUMPDEST JUMPDEST POP SWAP2 SWAP1 POP JUMP JUMPDEST PUSH0 DUP2 SWAP1 POP DUP2 PUSH0 MSTORE PUSH1 0x20 PUSH0 KECCAK256 SWAP1 POP SWAP2 SWAP1 POP JUMP JUMPDEST PUSH0 PUSH1 0x20 PUSH1 0x1F DUP4 ADD DIV SWAP1 POP SWAP2 SWAP1 POP JUMP JUMPDEST PUSH0 DUP3 DUP3 SHL SWAP1 POP SWAP3 SWAP2 POP POP JUMP JUMPDEST PUSH0 PUSH1 0x8 DUP4 MUL PUSH2 0x3CF PUSH32 0xFFFFFFFFFFFFFFFFFFFFFFFFFFFFFFFFFFFFFFFFFFFFFFFFFFFFFFFFFFFFFFFF DUP3 PUSH2 0x394 JUMP JUMPDEST PUSH2 0x3D9 DUP7 DUP4 PUSH2 0x394 JUMP JUMPDEST SWAP6 POP DUP1 NOT DUP5 AND SWAP4 POP DUP1 DUP7 AND DUP5 OR SWAP3 POP POP POP SWAP4 SWAP3 POP POP POP JUMP JUMPDEST PUSH0 DUP2 SWAP1 POP SWAP2 SWAP1 POP JUMP JUMPDEST PUSH0 DUP2 SWAP1 POP SWAP2 SWAP1 POP JUMP JUMPDEST PUSH0 PUSH2 0x41D PUSH2 0x418 PUSH2 0x413 DUP5 PUSH2 0x3F1 JUMP JUMPDEST PUSH2 0x3FA JUMP JUMPDEST PUSH2 0x3F1 JUMP JUMPDEST SWAP1 POP SWAP2 SWAP1 POP JUMP JUMPDEST PUSH0 DUP2 SWAP1 POP SWAP2 SWAP1 POP JUMP JUMPDEST PUSH2 0x436 DUP4 PUSH2 0x403 JUMP JUMPDEST PUSH2 0x44A PUSH2 0x442 DUP3 PUSH2 0x424 JUMP JUMPDEST DUP5 DUP5 SLOAD PUSH2 0x3A0 JUMP JUMPDEST DUP3 SSTORE POP POP POP POP JUMP JUMPDEST PUSH0 PUSH0 SWAP1 POP SWAP1 JUMP JUMPDEST PUSH2 0x461 PUSH2 0x452 JUMP JUMPDEST PUSH2 0x46C DUP2 DUP5 DUP5 PUSH2 0x42D JUMP JUMPDEST POP POP POP JUMP JUMPDEST JUMPDEST DUP2 DUP2 LT ISZERO PUSH2 0x48F JUMPI PUSH2 0x484 PUSH0 DUP3 PUSH2 0x459 JUMP JUMPDEST PUSH1 0x1 DUP2 ADD SWAP1 POP PUSH2 0x472 JUMP JUMPDEST POP POP JUMP JUMPDEST PUSH1 0x1F DUP3 GT ISZERO PUSH2 0x4D4 JUMPI PUSH2 0x4A5 DUP2 PUSH2 0x373 JUMP JUMPDEST PUSH2 0x4AE DUP5 PUSH2 0x385 JUMP JUMPDEST DUP2 ADD PUSH1 0x20 DUP6 LT ISZERO PUSH2 0x4BD JUMPI DUP2 SWAP1 POP JUMPDEST PUSH2 0x4D1 PUSH2 0x4C9 DUP6 PUSH2 0x385 JUMP JUMPDEST DUP4 ADD DUP3 PUSH2 0x471 JUMP JUMPDEST POP POP JUMPDEST POP POP POP JUMP JUMPDEST PUSH0 DUP3 DUP3 SHR SWAP1 POP SWAP3 SWAP2 POP POP JUMP JUMPDEST PUSH0 PUSH2 0x4F4 PUSH0 NOT DUP5 PUSH1 0x8 MUL PUSH2 0x4D9 JUMP JUMPDEST NOT DUP1 DUP4 AND SWAP2 POP POP SWAP3 SWAP2 POP POP JUMP JUMPDEST PUSH0 PUSH2 0x50C DUP4 DUP4 PUSH2 0x4E5 JUMP JUMPDEST SWAP2 POP DUP3 PUSH1 0x2 MUL DUP3 OR SWAP1 POP SWAP3 SWAP2 POP POP JUMP JUMPDEST PUSH2 0x525 DUP3 PUSH2 0x2DF JUMP JUMPDEST PUSH8 0xFFFFFFFFFFFFFFFF DUP2 GT ISZERO PUSH2 0x53E JUMPI PUSH2 0x53D PUSH2 0x2E9 JUMP JUMPDEST JUMPDEST PUSH2 0x548 DUP3 SLOAD PUSH2 0x343 JUMP JUMPDEST PUSH2 0x553 DUP3 DUP3 DUP6 PUSH2 0x493 JUMP JUMPDEST PUSH0 PUSH1 0x20 SWAP1 POP PUSH1 0x1F DUP4 GT PUSH1 0x1 DUP2 EQ PUSH2 0x584 JUMPI PUSH0 DUP5 ISZERO PUSH2 0x572 JUMPI DUP3 DUP8 ADD MLOAD SWAP1 POP JUMPDEST PUSH2 0x57C DUP6 DUP3 PUSH2 0x501 JUMP JUMPDEST DUP7 SSTORE POP PUSH2 0x5E3 JUMP JUMPDEST PUSH1 0x1F NOT DUP5 AND PUSH2 0x592 DUP7 PUSH2 0x373 JUMP JUMPDEST PUSH0 JUMPDEST DUP3 DUP2 LT ISZERO PUSH2 0x5B9 JUMPI DUP5 DUP10 ADD MLOAD DUP3 SSTORE PUSH1 0x1 DUP3 ADD SWAP2 POP PUSH1 0x20 DUP6 ADD SWAP5 POP PUSH1 0x20 DUP2 ADD SWAP1 POP PUSH2 0x594 JUMP JUMPDEST DUP7 DUP4 LT ISZERO PUSH2 0x5D6 JUMPI DUP5 DUP10 ADD MLOAD PUSH2 0x5D2 PUSH1 0x1F DUP10 AND DUP3 PUSH2 0x4E5 JUMP JUMPDEST DUP4 SSTORE POP JUMPDEST PUSH1 0x1 PUSH1 0x2 DUP9 MUL ADD DUP9 SSTORE POP POP POP JUMPDEST POP POP POP POP POP POP JUMP JUMPDEST PUSH0 DUP2 MLOAD SWAP1 POP SWAP2 SWAP1 POP JUMP JUMPDEST PUSH0 DUP2 SWAP1 POP DUP2 PUSH0 MSTORE PUSH1 0x20 PUSH0 KECCAK256 SWAP1 POP SWAP2 SWAP1 POP JUMP JUMPDEST PUSH1 0x1F DUP3 GT ISZERO PUSH2 0x648 JUMPI PUSH2 0x619 DUP2 PUSH2 0x5F5 JUMP JUMPDEST PUSH2 0x622 DUP5 PUSH2 0x385 JUMP JUMPDEST DUP2 ADD PUSH1 0x20 DUP6 LT ISZERO PUSH2 0x631 JUMPI DUP2 SWAP1 POP JUMPDEST PUSH2 0x645 PUSH2 0x63D DUP6 PUSH2 0x385 JUMP JUMPDEST DUP4 ADD DUP3 PUSH2 0x471 JUMP JUMPDEST POP POP JUMPDEST POP POP POP JUMP JUMPDEST PUSH2 0x656 DUP3 PUSH2 0x5EB JUMP JUMPDEST PUSH8 0xFFFFFFFFFFFFFFFF DUP2 GT ISZERO PUSH2 0x66F JUMPI PUSH2 0x66E PUSH2 0x2E9 JUMP JUMPDEST JUMPDEST PUSH2 0x679 DUP3 SLOAD PUSH2 0x343 JUMP JUMPDEST PUSH2 0x684 DUP3 DUP3 DUP6 PUSH2 0x607 JUMP JUMPDEST PUSH0 PUSH1 0x20 SWAP1 POP PUSH1 0x1F DUP4 GT PUSH1 0x1 DUP2 EQ PUSH2 0x6B5 JUMPI PUSH0 DUP5 ISZERO PUSH2 0x6A3 JUMPI DUP3 DUP8 ADD MLOAD SWAP1 POP JUMPDEST PUSH2 0x6AD DUP6 DUP3 PUSH2 0x501 JUMP JUMPDEST DUP7 SSTORE POP PUSH2 0x714 JUMP JUMPDEST PUSH1 0x1F NOT DUP5 AND PUSH2 0x6C3 DUP7 PUSH2 0x5F5 JUMP JUMPDEST PUSH0 JUMPDEST DUP3 DUP2 LT ISZERO PUSH2 0x6EA JUMPI DUP5 DUP10 ADD MLOAD DUP3 SSTORE PUSH1 0x1 DUP3 ADD SWAP2 POP PUSH1 0x20 DUP6 ADD SWAP5 POP PUSH1 0x20 DUP2 ADD SWAP1 POP PUSH2 0x6C5 JUMP JUMPDEST DUP7 DUP4 LT ISZERO PUSH2 0x707 JUMPI DUP5 DUP10 ADD MLOAD PUSH2 0x703 PUSH1 0x1F DUP10 AND DUP3 PUSH2 0x4E5 JUMP JUMPDEST DUP4 SSTORE POP JUMPDEST PUSH1 0x1 PUSH1 0x2 DUP9 MUL ADD DUP9 SSTORE POP POP POP JUMPDEST POP POP POP POP POP POP JUMP JUMPDEST PUSH0 DUP2 SWAP1 POP SWAP3 SWAP2 POP POP JUMP JUMPDEST PUSH0 DUP2 SLOAD PUSH2 0x732 DUP2 PUSH2 0x343 JUMP JUMPDEST PUSH2 0x73C DUP2 DUP7 PUSH2 0x71C JUMP JUMPDEST SWAP5 POP PUSH1 0x1 DUP3 AND PUSH0 DUP2 EQ PUSH2 0x756 JUMPI PUSH1 0x1 DUP2 EQ PUSH2 0x76B JUMPI PUSH2 0x79D JUMP JUMPDEST PUSH1 0xFF NOT DUP4 AND DUP7 MSTORE DUP2 ISZERO ISZERO DUP3 MUL DUP7 ADD SWAP4 POP PUSH2 0x79D JUMP JUMPDEST PUSH2 0x774 DUP6 PUSH2 0x373 JUMP JUMPDEST PUSH0 JUMPDEST DUP4 DUP2 LT ISZERO PUSH2 0x795 JUMPI DUP2 SLOAD DUP2 DUP10 ADD MSTORE PUSH1 0x1 DUP3 ADD SWAP2 POP PUSH1 0x20 DUP2 ADD SWAP1 POP PUSH2 0x776 JUMP JUMPDEST DUP4 DUP9 ADD SWAP6 POP POP POP JUMPDEST POP POP POP SWAP3 SWAP2 POP POP JUMP JUMPDEST PUSH0 PUSH2 0x7B1 DUP3 DUP5 PUSH2 0x726 JUMP JUMPDEST SWAP2 POP DUP2 SWAP1 POP SWAP3 SWAP2 POP POP JUMP JUMPDEST PUSH1 0x80 MLOAD PUSH2 0x507C PUSH2 0x7DB PUSH0 CODECOPY PUSH0 DUP2 DUP2 PUSH2 0x778 ADD MSTORE PUSH2 0x20FD ADD MSTORE PUSH2 0x507C PUSH0 RETURN INVALID PUSH1 0x80 PUSH1 0x40 MSTORE CALLVALUE DUP1 ISZERO PUSH2 0xF JUMPI PUSH0 PUSH0 REVERT JUMPDEST POP PUSH1 0x4 CALLDATASIZE LT PUSH2 0x1A7 JUMPI PUSH0 CALLDATALOAD PUSH1 0xE0 SHR DUP1 PUSH4 0x42842E0E GT PUSH2 0xF7 JUMPI DUP1 PUSH4 0x95D89B41 GT PUSH2 0x95 JUMPI DUP1 PUSH4 0xB88D4FDE GT PUSH2 0x6F JUMPI DUP1 PUSH4 0xB88D4FDE EQ PUSH2 0x495 JUMPI DUP1 PUSH4 0xC87B56DD EQ PUSH2 0x4B1 JUMPI DUP1 PUSH4 0xE985E9C5 EQ PUSH2 0x4E1 JUMPI DUP1 PUSH4 0xF230B4C2 EQ PUSH2 0x511 JUMPI PUSH2 0x1A7 JUMP JUMPDEST DUP1 PUSH4 0x95D89B41 EQ PUSH2 0x43D JUMPI DUP1 PUSH4 0xA22CB465 EQ PUSH2 0x45B JUMPI DUP1 PUSH4 0xB1E21749 EQ PUSH2 0x477 JUMPI PUSH2 0x1A7 JUMP JUMPDEST DUP1 PUSH4 0x6352211E GT PUSH2 0xD1 JUMPI DUP1 PUSH4 0x6352211E EQ PUSH2 0x3B5 JUMPI DUP1 PUSH4 0x65372147 EQ PUSH2 0x3E5 JUMPI DUP1 PUSH4 0x70A08231 EQ PUSH2 0x403 JUMPI DUP1 PUSH4 0x82BB0DFC EQ PUSH2 0x433 JUMPI PUSH2 0x1A7 JUMP JUMPDEST DUP1 PUSH4 0x42842E0E EQ PUSH2 0x34B JUMPI DUP1 PUSH4 0x4B0795A8 EQ PUSH2 0x367 JUMPI DUP1 PUSH4 0x58875A4F EQ PUSH2 0x385 JUMPI PUSH2 0x1A7 JUMP JUMPDEST DUP1 PUSH4 0x134D67E5 GT PUSH2 0x164 JUMPI DUP1 PUSH4 0x2D00CF3B GT PUSH2 0x13E JUMPI DUP1 PUSH4 0x2D00CF3B EQ PUSH2 0x2D7 JUMPI DUP1 PUSH4 0x31F59102 EQ PUSH2 0x2F3 JUMPI DUP1 PUSH4 0x33D608F1 EQ PUSH2 0x30F JUMPI DUP1 PUSH4 0x3944EA3A EQ PUSH2 0x32D JUMPI PUSH2 0x1A7 JUMP JUMPDEST DUP1 PUSH4 0x134D67E5 EQ PUSH2 0x27F JUMPI DUP1 PUSH4 0x17D70F7C EQ PUSH2 0x29D JUMPI DUP1 PUSH4 0x23B872DD EQ PUSH2 0x2BB JUMPI PUSH2 0x1A7 JUMP JUMPDEST DUP1 PUSH4 0x1FFC9A7 EQ PUSH2 0x1AB JUMPI DUP1 PUSH4 0x6FDDE03 EQ PUSH2 0x1DB JUMPI DUP1 PUSH4 0x81812FC EQ PUSH2 0x1F9 JUMPI DUP1 PUSH4 0x95EA7B3 EQ PUSH2 0x229 JUMPI DUP1 PUSH4 0xCA76175 EQ PUSH2 0x245 JUMPI DUP1 PUSH4 0xCDE9F3C EQ PUSH2 0x261 JUMPI JUMPDEST PUSH0 PUSH0 REVERT JUMPDEST PUSH2 0x1C5 PUSH1 0x4 DUP1 CALLDATASIZE SUB DUP2 ADD SWAP1 PUSH2 0x1C0 SWAP2 SWAP1 PUSH2 0x333E JUMP JUMPDEST PUSH2 0x52F JUMP JUMPDEST PUSH1 0x40 MLOAD PUSH2 0x1D2 SWAP2 SWAP1 PUSH2 0x3383 JUMP JUMPDEST PUSH1 0x40 MLOAD DUP1 SWAP2 SUB SWAP1 RETURN JUMPDEST PUSH2 0x1E3 PUSH2 0x58F JUMP JUMPDEST PUSH1 0x40 MLOAD PUSH2 0x1F0 SWAP2 SWAP1 PUSH2 0x340C JUMP JUMPDEST PUSH1 0x40 MLOAD DUP1 SWAP2 SUB SWAP1 RETURN JUMPDEST PUSH2 0x213 PUSH1 0x4 DUP1 CALLDATASIZE SUB DUP2 ADD SWAP1 PUSH2 0x20E SWAP2 SWAP1 PUSH2 0x345F JUMP JUMPDEST PUSH2 0x61E JUMP JUMPDEST PUSH1 0x40 MLOAD PUSH2 0x220 SWAP2 SWAP1 PUSH2 0x34C9 JUMP JUMPDEST PUSH1 0x40 MLOAD DUP1 SWAP2 SUB SWAP1 RETURN JUMPDEST PUSH2 0x243 PUSH1 0x4 DUP1 CALLDATASIZE SUB DUP2 ADD SWAP1 PUSH2 0x23E SWAP2 SWAP1 PUSH2 0x350C JUMP JUMPDEST PUSH2 0x660 JUMP JUMPDEST STOP JUMPDEST PUSH2 0x25F PUSH1 0x4 DUP1 CALLDATASIZE SUB DUP2 ADD SWAP1 PUSH2 0x25A SWAP2 SWAP1 PUSH2 0x36A9 JUMP JUMPDEST PUSH2 0x776 JUMP JUMPDEST STOP JUMPDEST PUSH2 0x269 PUSH2 0x838 JUMP JUMPDEST PUSH1 0x40 MLOAD PUSH2 0x276 SWAP2 SWAP1 PUSH2 0x3740 JUMP JUMPDEST PUSH1 0x40 MLOAD DUP1 SWAP2 SUB SWAP1 RETURN JUMPDEST PUSH2 0x287 PUSH2 0x85E JUMP JUMPDEST PUSH1 0x40 MLOAD PUSH2 0x294 SWAP2 SWAP1 PUSH2 0x34C9 JUMP JUMPDEST PUSH1 0x40 MLOAD DUP1 SWAP2 SUB SWAP1 RETURN JUMPDEST PUSH2 0x2A5 PUSH2 0x876 JUMP JUMPDEST PUSH1 0x40 MLOAD PUSH2 0x2B2 SWAP2 SWAP1 PUSH2 0x3768 JUMP JUMPDEST PUSH1 0x40 MLOAD DUP1 SWAP2 SUB SWAP1 RETURN JUMPDEST PUSH2 0x2D5 PUSH1 0x4 DUP1 CALLDATASIZE SUB DUP2 ADD SWAP1 PUSH2 0x2D0 SWAP2 SWAP1 PUSH2 0x3781 JUMP JUMPDEST PUSH2 0x87C JUMP JUMPDEST STOP JUMPDEST PUSH2 0x2F1 PUSH1 0x4 DUP1 CALLDATASIZE SUB DUP2 ADD SWAP1 PUSH2 0x2EC SWAP2 SWAP1 PUSH2 0x386F JUMP JUMPDEST PUSH2 0x8DC JUMP JUMPDEST STOP JUMPDEST PUSH2 0x30D PUSH1 0x4 DUP1 CALLDATASIZE SUB DUP2 ADD SWAP1 PUSH2 0x308 SWAP2 SWAP1 PUSH2 0x38E5 JUMP JUMPDEST PUSH2 0x995 JUMP JUMPDEST STOP JUMPDEST PUSH2 0x317 PUSH2 0xA76 JUMP JUMPDEST PUSH1 0x40 MLOAD PUSH2 0x324 SWAP2 SWAP1 PUSH2 0x392E JUMP JUMPDEST PUSH1 0x40 MLOAD DUP1 SWAP2 SUB SWAP1 RETURN JUMPDEST PUSH2 0x335 PUSH2 0xA7D JUMP JUMPDEST PUSH1 0x40 MLOAD PUSH2 0x342 SWAP2 SWAP1 PUSH2 0x3999 JUMP JUMPDEST PUSH1 0x40 MLOAD DUP1 SWAP2 SUB SWAP1 RETURN JUMPDEST PUSH2 0x365 PUSH1 0x4 DUP1 CALLDATASIZE SUB DUP2 ADD SWAP1 PUSH2 0x360 SWAP2 SWAP1 PUSH2 0x3781 JUMP JUMPDEST PUSH2 0xB09 JUMP JUMPDEST STOP JUMPDEST PUSH2 0x36F PUSH2 0xB28 JUMP JUMPDEST PUSH1 0x40 MLOAD PUSH2 0x37C SWAP2 SWAP1 PUSH2 0x3999 JUMP JUMPDEST PUSH1 0x40 MLOAD DUP1 SWAP2 SUB SWAP1 RETURN JUMPDEST PUSH2 0x39F PUSH1 0x4 DUP1 CALLDATASIZE SUB DUP2 ADD SWAP1 PUSH2 0x39A SWAP2 SWAP1 PUSH2 0x3B0E JUMP JUMPDEST PUSH2 0xBB4 JUMP JUMPDEST PUSH1 0x40 MLOAD PUSH2 0x3AC SWAP2 SWAP1 PUSH2 0x3740 JUMP JUMPDEST PUSH1 0x40 MLOAD DUP1 SWAP2 SUB SWAP1 RETURN JUMPDEST PUSH2 0x3CF PUSH1 0x4 DUP1 CALLDATASIZE SUB DUP2 ADD SWAP1 PUSH2 0x3CA SWAP2 SWAP1 PUSH2 0x345F JUMP JUMPDEST PUSH2 0xE03 JUMP JUMPDEST PUSH1 0x40 MLOAD PUSH2 0x3DC SWAP2 SWAP1 PUSH2 0x34C9 JUMP JUMPDEST PUSH1 0x40 MLOAD DUP1 SWAP2 SUB SWAP1 RETURN JUMPDEST PUSH2 0x3ED PUSH2 0xE87 JUMP JUMPDEST PUSH1 0x40 MLOAD PUSH2 0x3FA SWAP2 SWAP1 PUSH2 0x340C JUMP JUMPDEST PUSH1 0x40 MLOAD DUP1 SWAP2 SUB SWAP1 RETURN JUMPDEST PUSH2 0x41D PUSH1 0x4 DUP1 CALLDATASIZE SUB DUP2 ADD SWAP1 PUSH2 0x418 SWAP2 SWAP1 PUSH2 0x38E5 JUMP JUMPDEST PUSH2 0xF13 JUMP JUMPDEST PUSH1 0x40 MLOAD PUSH2 0x42A SWAP2 SWAP1 PUSH2 0x3768 JUMP JUMPDEST PUSH1 0x40 MLOAD DUP1 SWAP2 SUB SWAP1 RETURN JUMPDEST PUSH2 0x43B PUSH2 0xFC7 JUMP JUMPDEST STOP JUMPDEST PUSH2 0x445 PUSH2 0x10A6 JUMP JUMPDEST PUSH1 0x40 MLOAD PUSH2 0x452 SWAP2 SWAP1 PUSH2 0x340C JUMP JUMPDEST PUSH1 0x40 MLOAD DUP1 SWAP2 SUB SWAP1 RETURN JUMPDEST PUSH2 0x475 PUSH1 0x4 DUP1 CALLDATASIZE SUB DUP2 ADD SWAP1 PUSH2 0x470 SWAP2 SWAP1 PUSH2 0x3BCB JUMP JUMPDEST PUSH2 0x1136 JUMP JUMPDEST STOP JUMPDEST PUSH2 0x47F PUSH2 0x114C JUMP JUMPDEST PUSH1 0x40 MLOAD PUSH2 0x48C SWAP2 SWAP1 PUSH2 0x3740 JUMP JUMPDEST PUSH1 0x40 MLOAD DUP1 SWAP2 SUB SWAP1 RETURN JUMPDEST PUSH2 0x4AF PUSH1 0x4 DUP1 CALLDATASIZE SUB DUP2 ADD SWAP1 PUSH2 0x4AA SWAP2 SWAP1 PUSH2 0x3C09 JUMP JUMPDEST PUSH2 0x1152 JUMP JUMPDEST STOP JUMPDEST PUSH2 0x4CB PUSH1 0x4 DUP1 CALLDATASIZE SUB DUP2 ADD SWAP1 PUSH2 0x4C6 SWAP2 SWAP1 PUSH2 0x345F JUMP JUMPDEST PUSH2 0x11B4 JUMP JUMPDEST PUSH1 0x40 MLOAD PUSH2 0x4D8 SWAP2 SWAP1 PUSH2 0x340C JUMP JUMPDEST PUSH1 0x40 MLOAD DUP1 SWAP2 SUB SWAP1 RETURN JUMPDEST PUSH2 0x4FB PUSH1 0x4 DUP1 CALLDATASIZE SUB DUP2 ADD SWAP1 PUSH2 0x4F6 SWAP2 SWAP1 PUSH2 0x3C89 JUMP JUMPDEST PUSH2 0x12BE JUMP JUMPDEST PUSH1 0x40 MLOAD PUSH2 0x508 SWAP2 SWAP1 PUSH2 0x3383 JUMP JUMPDEST PUSH1 0x40 MLOAD DUP1 SWAP2 SUB SWAP1 RETURN JUMPDEST PUSH2 0x519 PUSH2 0x134C JUMP JUMPDEST PUSH1 0x40 MLOAD PUSH2 0x526 SWAP2 SWAP1 PUSH2 0x340C JUMP JUMPDEST PUSH1 0x40 MLOAD DUP1 SWAP2 SUB SWAP1 RETURN JUMPDEST PUSH0 PUSH4 0x49064906 PUSH1 0xE0 SHL PUSH28 0xFFFFFFFFFFFFFFFFFFFFFFFFFFFFFFFFFFFFFFFFFFFFFFFFFFFFFFFF NOT AND DUP3 PUSH28 0xFFFFFFFFFFFFFFFFFFFFFFFFFFFFFFFFFFFFFFFFFFFFFFFFFFFFFFFF NOT AND EQ DUP1 PUSH2 0x588 JUMPI POP PUSH2 0x587 DUP3 PUSH2 0x136B JUMP JUMPDEST JUMPDEST SWAP1 POP SWAP2 SWAP1 POP JUMP JUMPDEST PUSH1 0x60 PUSH0 DUP1 SLOAD PUSH2 0x59D SWAP1 PUSH2 0x3CF4 JUMP JUMPDEST DUP1 PUSH1 0x1F ADD PUSH1 0x20 DUP1 SWAP2 DIV MUL PUSH1 0x20 ADD PUSH1 0x40 MLOAD SWAP1 DUP2 ADD PUSH1 0x40 MSTORE DUP1 SWAP3 SWAP2 SWAP1 DUP2 DUP2 MSTORE PUSH1 0x20 ADD DUP3 DUP1 SLOAD PUSH2 0x5C9 SWAP1 PUSH2 0x3CF4 JUMP JUMPDEST DUP1 ISZERO PUSH2 0x614 JUMPI DUP1 PUSH1 0x1F LT PUSH2 0x5EB JUMPI PUSH2 0x100 DUP1 DUP4 SLOAD DIV MUL DUP4 MSTORE SWAP2 PUSH1 0x20 ADD SWAP2 PUSH2 0x614 JUMP JUMPDEST DUP3 ADD SWAP2 SWAP1 PUSH0 MSTORE PUSH1 0x20 PUSH0 KECCAK256 SWAP1 JUMPDEST DUP2 SLOAD DUP2 MSTORE SWAP1 PUSH1 0x1 ADD SWAP1 PUSH1 0x20 ADD DUP1 DUP4 GT PUSH2 0x5F7 JUMPI DUP3 SWAP1 SUB PUSH1 0x1F AND DUP3 ADD SWAP2 JUMPDEST POP POP POP POP POP SWAP1 POP SWAP1 JUMP JUMPDEST PUSH0 PUSH2 0x628 DUP3 PUSH2 0x144C JUMP JUMPDEST PUSH1 0x4 PUSH0 DUP4 DUP2 MSTORE PUSH1 0x20 ADD SWAP1 DUP2 MSTORE PUSH1 0x20 ADD PUSH0 KECCAK256 PUSH0 SWAP1 SLOAD SWAP1 PUSH2 0x100 EXP SWAP1 DIV PUSH20 0xFFFFFFFFFFFFFFFFFFFFFFFFFFFFFFFFFFFFFFFF AND SWAP1 POP SWAP2 SWAP1 POP JUMP JUMPDEST PUSH0 PUSH2 0x66A DUP3 PUSH2 0xE03 JUMP JUMPDEST SWAP1 POP DUP1 PUSH20 0xFFFFFFFFFFFFFFFFFFFFFFFFFFFFFFFFFFFFFFFF AND DUP4 PUSH20 0xFFFFFFFFFFFFFFFFFFFFFFFFFFFFFFFFFFFFFFFF AND SUB PUSH2 0x6DA JUMPI PUSH1 0x40 MLOAD PUSH32 0x8C379A000000000000000000000000000000000000000000000000000000000 DUP2 MSTORE PUSH1 0x4 ADD PUSH2 0x6D1 SWAP1 PUSH2 0x3D94 JUMP JUMPDEST PUSH1 0x40 MLOAD DUP1 SWAP2 SUB SWAP1 REVERT JUMPDEST DUP1 PUSH20 0xFFFFFFFFFFFFFFFFFFFFFFFFFFFFFFFFFFFFFFFF AND PUSH2 0x6F9 PUSH2 0x1497 JUMP JUMPDEST PUSH20 0xFFFFFFFFFFFFFFFFFFFFFFFFFFFFFFFFFFFFFFFF AND EQ DUP1 PUSH2 0x728 JUMPI POP PUSH2 0x727 DUP2 PUSH2 0x722 PUSH2 0x1497 JUMP JUMPDEST PUSH2 0x12BE JUMP JUMPDEST JUMPDEST PUSH2 0x767 JUMPI PUSH1 0x40 MLOAD PUSH32 0x8C379A000000000000000000000000000000000000000000000000000000000 DUP2 MSTORE PUSH1 0x4 ADD PUSH2 0x75E SWAP1 PUSH2 0x3E22 JUMP JUMPDEST PUSH1 0x40 MLOAD DUP1 SWAP2 SUB SWAP1 REVERT JUMPDEST PUSH2 0x771 DUP4 DUP4 PUSH2 0x149E JUMP JUMPDEST POP POP POP JUMP JUMPDEST PUSH32 0x0 PUSH20 0xFFFFFFFFFFFFFFFFFFFFFFFFFFFFFFFFFFFFFFFF AND CALLER PUSH20 0xFFFFFFFFFFFFFFFFFFFFFFFFFFFFFFFFFFFFFFFF AND EQ PUSH2 0x7FB JUMPI PUSH1 0x40 MLOAD PUSH32 0xC6829F8300000000000000000000000000000000000000000000000000000000 DUP2 MSTORE PUSH1 0x4 ADD PUSH1 0x40 MLOAD DUP1 SWAP2 SUB SWAP1 REVERT JUMPDEST PUSH2 0x806 DUP4 DUP4 DUP4 PUSH2 0x1554 JUMP JUMPDEST DUP3 PUSH32 0x85E1543BF2F84FE80C6BADBCE3648C8539AD1DF4D2B3D822938CA0538BE727E6 PUSH1 0x40 MLOAD PUSH1 0x40 MLOAD DUP1 SWAP2 SUB SWAP1 LOG2 POP POP POP JUMP JUMPDEST PUSH32 0x66756E2D6176616C616E6368652D66756A692D31000000000000000000000000 PUSH0 SHL DUP2 JUMP JUMPDEST PUSH20 0xA9D587A00A31A52ED70D6026794A8FC5E2F5DCB0 DUP2 JUMP JUMPDEST PUSH1 0xF SLOAD DUP2 JUMP JUMPDEST PUSH2 0x88D PUSH2 0x887 PUSH2 0x1497 JUMP JUMPDEST DUP3 PUSH2 0x180A JUMP JUMPDEST PUSH2 0x8CC JUMPI PUSH1 0x40 MLOAD PUSH32 0x8C379A000000000000000000000000000000000000000000000000000000000 DUP2 MSTORE PUSH1 0x4 ADD PUSH2 0x8C3 SWAP1 PUSH2 0x3EB0 JUMP JUMPDEST PUSH1 0x40 MLOAD DUP1 SWAP2 SUB SWAP1 REVERT JUMPDEST PUSH2 0x8D7 DUP4 DUP4 DUP4 PUSH2 0x189E JUMP JUMPDEST POP POP POP JUMP JUMPDEST PUSH1 0xB PUSH0 CALLER PUSH20 0xFFFFFFFFFFFFFFFFFFFFFFFFFFFFFFFFFFFFFFFF AND PUSH20 0xFFFFFFFFFFFFFFFFFFFFFFFFFFFFFFFFFFFFFFFF AND DUP2 MSTORE PUSH1 0x20 ADD SWAP1 DUP2 MSTORE PUSH1 0x20 ADD PUSH0 KECCAK256 PUSH0 SWAP1 SLOAD SWAP1 PUSH2 0x100 EXP SWAP1 DIV PUSH1 0xFF AND PUSH2 0x965 JUMPI PUSH1 0x40 MLOAD PUSH32 0x8C379A000000000000000000000000000000000000000000000000000000000 DUP2 MSTORE PUSH1 0x4 ADD PUSH2 0x95C SWAP1 PUSH2 0x3F3E JUMP JUMPDEST PUSH1 0x40 MLOAD DUP1 SWAP2 SUB SWAP1 REVERT JUMPDEST DUP1 PUSH1 0x10 DUP4 PUSH1 0x40 MLOAD PUSH2 0x976 SWAP2 SWAP1 PUSH2 0x3F96 JUMP JUMPDEST SWAP1 DUP2 MSTORE PUSH1 0x20 ADD PUSH1 0x40 MLOAD DUP1 SWAP2 SUB SWAP1 KECCAK256 SWAP1 DUP2 PUSH2 0x990 SWAP2 SWAP1 PUSH2 0x414C JUMP JUMPDEST POP POP POP JUMP JUMPDEST PUSH1 0xB PUSH0 CALLER PUSH20 0xFFFFFFFFFFFFFFFFFFFFFFFFFFFFFFFFFFFFFFFF AND PUSH20 0xFFFFFFFFFFFFFFFFFFFFFFFFFFFFFFFFFFFFFFFF AND DUP2 MSTORE PUSH1 0x20 ADD SWAP1 DUP2 MSTORE PUSH1 0x20 ADD PUSH0 KECCAK256 PUSH0 SWAP1 SLOAD SWAP1 PUSH2 0x100 EXP SWAP1 DIV PUSH1 0xFF AND PUSH2 0xA1E JUMPI PUSH1 0x40 MLOAD PUSH32 0x8C379A000000000000000000000000000000000000000000000000000000000 DUP2 MSTORE PUSH1 0x4 ADD PUSH2 0xA15 SWAP1 PUSH2 0x3F3E JUMP JUMPDEST PUSH1 0x40 MLOAD DUP1 SWAP2 SUB SWAP1 REVERT JUMPDEST PUSH1 0x1 PUSH1 0xB PUSH0 DUP4 PUSH20 0xFFFFFFFFFFFFFFFFFFFFFFFFFFFFFFFFFFFFFFFF AND PUSH20 0xFFFFFFFFFFFFFFFFFFFFFFFFFFFFFFFFFFFFFFFF AND DUP2 MSTORE PUSH1 0x20 ADD SWAP1 DUP2 MSTORE PUSH1 0x20 ADD PUSH0 KECCAK256 PUSH0 PUSH2 0x100 EXP DUP2 SLOAD DUP2 PUSH1 0xFF MUL NOT AND SWAP1 DUP4 ISZERO ISZERO MUL OR SWAP1 SSTORE POP POP JUMP JUMPDEST PUSH3 0x493E0 DUP2 JUMP JUMPDEST PUSH1 0x8 DUP1 SLOAD PUSH2 0xA8A SWAP1 PUSH2 0x3CF4 JUMP JUMPDEST DUP1 PUSH1 0x1F ADD PUSH1 0x20 DUP1 SWAP2 DIV MUL PUSH1 0x20 ADD PUSH1 0x40 MLOAD SWAP1 DUP2 ADD PUSH1 0x40 MSTORE DUP1 SWAP3 SWAP2 SWAP1 DUP2 DUP2 MSTORE PUSH1 0x20 ADD DUP3 DUP1 SLOAD PUSH2 0xAB6 SWAP1 PUSH2 0x3CF4 JUMP JUMPDEST DUP1 ISZERO PUSH2 0xB01 JUMPI DUP1 PUSH1 0x1F LT PUSH2 0xAD8 JUMPI PUSH2 0x100 DUP1 DUP4 SLOAD DIV MUL DUP4 MSTORE SWAP2 PUSH1 0x20 ADD SWAP2 PUSH2 0xB01 JUMP JUMPDEST DUP3 ADD SWAP2 SWAP1 PUSH0 MSTORE PUSH1 0x20 PUSH0 KECCAK256 SWAP1 JUMPDEST DUP2 SLOAD DUP2 MSTORE SWAP1 PUSH1 0x1 ADD SWAP1 PUSH1 0x20 ADD DUP1 DUP4 GT PUSH2 0xAE4 JUMPI DUP3 SWAP1 SUB PUSH1 0x1F AND DUP3 ADD SWAP2 JUMPDEST POP POP POP POP POP DUP2 JUMP JUMPDEST PUSH2 0xB23 DUP4 DUP4 DUP4 PUSH1 0x40 MLOAD DUP1 PUSH1 0x20 ADD PUSH1 0x40 MSTORE DUP1 PUSH0 DUP2 MSTORE POP PUSH2 0x1152 JUMP JUMPDEST POP POP POP JUMP JUMPDEST PUSH1 0x9 DUP1 SLOAD PUSH2 0xB35 SWAP1 PUSH2 0x3CF4 JUMP JUMPDEST DUP1 PUSH1 0x1F ADD PUSH1 0x20 DUP1 SWAP2 DIV MUL PUSH1 0x20 ADD PUSH1 0x40 MLOAD SWAP1 DUP2 ADD PUSH1 0x40 MSTORE DUP1 SWAP3 SWAP2 SWAP1 DUP2 DUP2 MSTORE PUSH1 0x20 ADD DUP3 DUP1 SLOAD PUSH2 0xB61 SWAP1 PUSH2 0x3CF4 JUMP JUMPDEST DUP1 ISZERO PUSH2 0xBAC JUMPI DUP1 PUSH1 0x1F LT PUSH2 0xB83 JUMPI PUSH2 0x100 DUP1 DUP4 SLOAD DIV MUL DUP4 MSTORE SWAP2 PUSH1 0x20 ADD SWAP2 PUSH2 0xBAC JUMP JUMPDEST DUP3 ADD SWAP2 SWAP1 PUSH0 MSTORE PUSH1 0x20 PUSH0 KECCAK256 SWAP1 JUMPDEST DUP2 SLOAD DUP2 MSTORE SWAP1 PUSH1 0x1 ADD SWAP1 PUSH1 0x20 ADD DUP1 DUP4 GT PUSH2 0xB8F JUMPI DUP3 SWAP1 SUB PUSH1 0x1F AND DUP3 ADD SWAP2 JUMPDEST POP POP POP POP POP DUP2 JUMP JUMPDEST PUSH0 PUSH1 0xB PUSH0 CALLER PUSH20 0xFFFFFFFFFFFFFFFFFFFFFFFFFFFFFFFFFFFFFFFF AND PUSH20 0xFFFFFFFFFFFFFFFFFFFFFFFFFFFFFFFFFFFFFFFF AND DUP2 MSTORE PUSH1 0x20 ADD SWAP1 DUP2 MSTORE PUSH1 0x20 ADD PUSH0 KECCAK256 PUSH0 SWAP1 SLOAD SWAP1 PUSH2 0x100 EXP SWAP1 DIV PUSH1 0xFF AND PUSH2 0xC3E JUMPI PUSH1 0x40 MLOAD PUSH32 0x8C379A000000000000000000000000000000000000000000000000000000000 DUP2 MSTORE PUSH1 0x4 ADD PUSH2 0xC35 SWAP1 PUSH2 0x3F3E JUMP JUMPDEST PUSH1 0x40 MLOAD DUP1 SWAP2 SUB SWAP1 REVERT JUMPDEST PUSH0 DUP5 PUSH0 DUP2 MLOAD DUP2 LT PUSH2 0xC52 JUMPI PUSH2 0xC51 PUSH2 0x421B JUMP JUMPDEST JUMPDEST PUSH1 0x20 MUL PUSH1 0x20 ADD ADD MLOAD SWAP1 POP PUSH1 0xC DUP2 PUSH1 0x40 MLOAD PUSH2 0xC6C SWAP2 SWAP1 PUSH2 0x4282 JUMP JUMPDEST SWAP1 DUP2 MSTORE PUSH1 0x20 ADD PUSH1 0x40 MLOAD DUP1 SWAP2 SUB SWAP1 KECCAK256 PUSH0 SWAP1 SLOAD SWAP1 PUSH2 0x100 EXP SWAP1 DIV PUSH1 0xFF AND ISZERO PUSH2 0xCC7 JUMPI PUSH1 0x40 MLOAD PUSH32 0x8C379A000000000000000000000000000000000000000000000000000000000 DUP2 MSTORE PUSH1 0x4 ADD PUSH2 0xCBE SWAP1 PUSH2 0x42E2 JUMP JUMPDEST PUSH1 0x40 MLOAD DUP1 SWAP2 SUB SWAP1 REVERT JUMPDEST PUSH2 0xCCF PUSH2 0x3231 JUMP JUMPDEST PUSH2 0xCFD PUSH1 0x40 MLOAD DUP1 PUSH2 0x2A0 ADD PUSH1 0x40 MSTORE DUP1 PUSH2 0x277 DUP2 MSTORE PUSH1 0x20 ADD PUSH2 0x4DD0 PUSH2 0x277 SWAP2 CODECOPY DUP3 PUSH2 0x1B8A SWAP1 SWAP2 SWAP1 PUSH4 0xFFFFFFFF AND JUMP JUMPDEST PUSH0 DUP8 PUSH8 0xFFFFFFFFFFFFFFFF AND GT ISZERO PUSH2 0xD25 JUMPI PUSH2 0xD24 DUP9 DUP9 DUP4 PUSH2 0x1B9A SWAP1 SWAP3 SWAP2 SWAP1 PUSH4 0xFFFFFFFF AND JUMP JUMPDEST JUMPDEST PUSH0 DUP7 MLOAD GT ISZERO PUSH2 0xD42 JUMPI PUSH2 0xD41 DUP7 DUP3 PUSH2 0x1CA7 SWAP1 SWAP2 SWAP1 PUSH4 0xFFFFFFFF AND JUMP JUMPDEST JUMPDEST PUSH2 0xD7B PUSH2 0xD4E DUP3 PUSH2 0x1CEE JUMP JUMPDEST DUP7 PUSH3 0x493E0 PUSH32 0x66756E2D6176616C616E6368652D66756A692D31000000000000000000000000 PUSH0 SHL PUSH2 0x20F9 JUMP JUMPDEST PUSH1 0x7 DUP2 SWAP1 SSTORE POP DUP4 PUSH1 0xD PUSH0 PUSH1 0x7 SLOAD DUP2 MSTORE PUSH1 0x20 ADD SWAP1 DUP2 MSTORE PUSH1 0x20 ADD PUSH0 KECCAK256 PUSH0 PUSH2 0x100 EXP DUP2 SLOAD DUP2 PUSH20 0xFFFFFFFFFFFFFFFFFFFFFFFFFFFFFFFFFFFFFFFF MUL NOT AND SWAP1 DUP4 PUSH20 0xFFFFFFFFFFFFFFFFFFFFFFFFFFFFFFFFFFFFFFFF AND MUL OR SWAP1 SSTORE POP DUP2 PUSH1 0xE PUSH0 PUSH1 0x7 SLOAD DUP2 MSTORE PUSH1 0x20 ADD SWAP1 DUP2 MSTORE PUSH1 0x20 ADD PUSH0 KECCAK256 SWAP1 DUP2 PUSH2 0xDF2 SWAP2 SWAP1 PUSH2 0x414C JUMP JUMPDEST POP PUSH1 0x7 SLOAD SWAP3 POP POP POP SWAP6 SWAP5 POP POP POP POP POP JUMP JUMPDEST PUSH0 PUSH0 PUSH2 0xE0E DUP4 PUSH2 0x21D8 JUMP JUMPDEST SWAP1 POP PUSH0 PUSH20 0xFFFFFFFFFFFFFFFFFFFFFFFFFFFFFFFFFFFFFFFF AND DUP2 PUSH20 0xFFFFFFFFFFFFFFFFFFFFFFFFFFFFFFFFFFFFFFFF AND SUB PUSH2 0xE7E JUMPI PUSH1 0x40 MLOAD PUSH32 0x8C379A000000000000000000000000000000000000000000000000000000000 DUP2 MSTORE PUSH1 0x4 ADD PUSH2 0xE75 SWAP1 PUSH2 0x434A JUMP JUMPDEST PUSH1 0x40 MLOAD DUP1 SWAP2 SUB SWAP1 REVERT JUMPDEST DUP1 SWAP2 POP POP SWAP2 SWAP1 POP JUMP JUMPDEST PUSH1 0xA DUP1 SLOAD PUSH2 0xE94 SWAP1 PUSH2 0x3CF4 JUMP JUMPDEST DUP1 PUSH1 0x1F ADD PUSH1 0x20 DUP1 SWAP2 DIV MUL PUSH1 0x20 ADD PUSH1 0x40 MLOAD SWAP1 DUP2 ADD PUSH1 0x40 MSTORE DUP1 SWAP3 SWAP2 SWAP1 DUP2 DUP2 MSTORE PUSH1 0x20 ADD DUP3 DUP1 SLOAD PUSH2 0xEC0 SWAP1 PUSH2 0x3CF4 JUMP JUMPDEST DUP1 ISZERO PUSH2 0xF0B JUMPI DUP1 PUSH1 0x1F LT PUSH2 0xEE2 JUMPI PUSH2 0x100 DUP1 DUP4 SLOAD DIV MUL DUP4 MSTORE SWAP2 PUSH1 0x20 ADD SWAP2 PUSH2 0xF0B JUMP JUMPDEST DUP3 ADD SWAP2 SWAP1 PUSH0 MSTORE PUSH1 0x20 PUSH0 KECCAK256 SWAP1 JUMPDEST DUP2 SLOAD DUP2 MSTORE SWAP1 PUSH1 0x1 ADD SWAP1 PUSH1 0x20 ADD DUP1 DUP4 GT PUSH2 0xEEE JUMPI DUP3 SWAP1 SUB PUSH1 0x1F AND DUP3 ADD SWAP2 JUMPDEST POP POP POP POP POP DUP2 JUMP JUMPDEST PUSH0 PUSH0 PUSH20 0xFFFFFFFFFFFFFFFFFFFFFFFFFFFFFFFFFFFFFFFF AND DUP3 PUSH20 0xFFFFFFFFFFFFFFFFFFFFFFFFFFFFFFFFFFFFFFFF AND SUB PUSH2 0xF82 JUMPI PUSH1 0x40 MLOAD PUSH32 0x8C379A000000000000000000000000000000000000000000000000000000000 DUP2 MSTORE PUSH1 0x4 ADD PUSH2 0xF79 SWAP1 PUSH2 0x43D8 JUMP JUMPDEST PUSH1 0x40 MLOAD DUP1 SWAP2 SUB SWAP1 REVERT JUMPDEST PUSH1 0x3 PUSH0 DUP4 PUSH20 0xFFFFFFFFFFFFFFFFFFFFFFFFFFFFFFFFFFFFFFFF AND PUSH20 0xFFFFFFFFFFFFFFFFFFFFFFFFFFFFFFFFFFFFFFFF AND DUP2 MSTORE PUSH1 0x20 ADD SWAP1 DUP2 MSTORE PUSH1 0x20 ADD PUSH0 KECCAK256 SLOAD SWAP1 POP SWAP2 SWAP1 POP JUMP JUMPDEST PUSH1 0xB PUSH0 CALLER PUSH20 0xFFFFFFFFFFFFFFFFFFFFFFFFFFFFFFFFFFFFFFFF AND PUSH20 0xFFFFFFFFFFFFFFFFFFFFFFFFFFFFFFFFFFFFFFFF AND DUP2 MSTORE PUSH1 0x20 ADD SWAP1 DUP2 MSTORE PUSH1 0x20 ADD PUSH0 KECCAK256 PUSH0 SWAP1 SLOAD SWAP1 PUSH2 0x100 EXP SWAP1 DIV PUSH1 0xFF AND PUSH2 0x1050 JUMPI PUSH1 0x40 MLOAD PUSH32 0x8C379A000000000000000000000000000000000000000000000000000000000 DUP2 MSTORE PUSH1 0x4 ADD PUSH2 0x1047 SWAP1 PUSH2 0x3F3E JUMP JUMPDEST PUSH1 0x40 MLOAD DUP1 SWAP2 SUB SWAP1 REVERT JUMPDEST PUSH0 PUSH1 0xB PUSH0 CALLER PUSH20 0xFFFFFFFFFFFFFFFFFFFFFFFFFFFFFFFFFFFFFFFF AND PUSH20 0xFFFFFFFFFFFFFFFFFFFFFFFFFFFFFFFFFFFFFFFF AND DUP2 MSTORE PUSH1 0x20 ADD SWAP1 DUP2 MSTORE PUSH1 0x20 ADD PUSH0 KECCAK256 PUSH0 PUSH2 0x100 EXP DUP2 SLOAD DUP2 PUSH1 0xFF MUL NOT AND SWAP1 DUP4 ISZERO ISZERO MUL OR SWAP1 SSTORE POP JUMP JUMPDEST PUSH1 0x60 PUSH1 0x1 DUP1 SLOAD PUSH2 0x10B5 SWAP1 PUSH2 0x3CF4 JUMP JUMPDEST DUP1 PUSH1 0x1F ADD PUSH1 0x20 DUP1 SWAP2 DIV MUL PUSH1 0x20 ADD PUSH1 0x40 MLOAD SWAP1 DUP2 ADD PUSH1 0x40 MSTORE DUP1 SWAP3 SWAP2 SWAP1 DUP2 DUP2 MSTORE PUSH1 0x20 ADD DUP3 DUP1 SLOAD PUSH2 0x10E1 SWAP1 PUSH2 0x3CF4 JUMP JUMPDEST DUP1 ISZERO PUSH2 0x112C JUMPI DUP1 PUSH1 0x1F LT PUSH2 0x1103 JUMPI PUSH2 0x100 DUP1 DUP4 SLOAD DIV MUL DUP4 MSTORE SWAP2 PUSH1 0x20 ADD SWAP2 PUSH2 0x112C JUMP JUMPDEST DUP3 ADD SWAP2 SWAP1 PUSH0 MSTORE PUSH1 0x20 PUSH0 KECCAK256 SWAP1 JUMPDEST DUP2 SLOAD DUP2 MSTORE SWAP1 PUSH1 0x1 ADD SWAP1 PUSH1 0x20 ADD DUP1 DUP4 GT PUSH2 0x110F JUMPI DUP3 SWAP1 SUB PUSH1 0x1F AND DUP3 ADD SWAP2 JUMPDEST POP POP POP POP POP SWAP1 POP SWAP1 JUMP JUMPDEST PUSH2 0x1148 PUSH2 0x1141 PUSH2 0x1497 JUMP JUMPDEST DUP4 DUP4 PUSH2 0x2211 JUMP JUMPDEST POP POP JUMP JUMPDEST PUSH1 0x7 SLOAD DUP2 JUMP JUMPDEST PUSH2 0x1163 PUSH2 0x115D PUSH2 0x1497 JUMP JUMPDEST DUP4 PUSH2 0x180A JUMP JUMPDEST PUSH2 0x11A2 JUMPI PUSH1 0x40 MLOAD PUSH32 0x8C379A000000000000000000000000000000000000000000000000000000000 DUP2 MSTORE PUSH1 0x4 ADD PUSH2 0x1199 SWAP1 PUSH2 0x3EB0 JUMP JUMPDEST PUSH1 0x40 MLOAD DUP1 SWAP2 SUB SWAP1 REVERT JUMPDEST PUSH2 0x11AE DUP5 DUP5 DUP5 DUP5 PUSH2 0x2378 JUMP JUMPDEST POP POP POP POP JUMP JUMPDEST PUSH1 0x60 PUSH2 0x11BF DUP3 PUSH2 0x144C JUMP JUMPDEST PUSH0 PUSH1 0x6 PUSH0 DUP5 DUP2 MSTORE PUSH1 0x20 ADD SWAP1 DUP2 MSTORE PUSH1 0x20 ADD PUSH0 KECCAK256 DUP1 SLOAD PUSH2 0x11DC SWAP1 PUSH2 0x3CF4 JUMP JUMPDEST DUP1 PUSH1 0x1F ADD PUSH1 0x20 DUP1 SWAP2 DIV MUL PUSH1 0x20 ADD PUSH1 0x40 MLOAD SWAP1 DUP2 ADD PUSH1 0x40 MSTORE DUP1 SWAP3 SWAP2 SWAP1 DUP2 DUP2 MSTORE PUSH1 0x20 ADD DUP3 DUP1 SLOAD PUSH2 0x1208 SWAP1 PUSH2 0x3CF4 JUMP JUMPDEST DUP1 ISZERO PUSH2 0x1253 JUMPI DUP1 PUSH1 0x1F LT PUSH2 0x122A JUMPI PUSH2 0x100 DUP1 DUP4 SLOAD DIV MUL DUP4 MSTORE SWAP2 PUSH1 0x20 ADD SWAP2 PUSH2 0x1253 JUMP JUMPDEST DUP3 ADD SWAP2 SWAP1 PUSH0 MSTORE PUSH1 0x20 PUSH0 KECCAK256 SWAP1 JUMPDEST DUP2 SLOAD DUP2 MSTORE SWAP1 PUSH1 0x1 ADD SWAP1 PUSH1 0x20 ADD DUP1 DUP4 GT PUSH2 0x1236 JUMPI DUP3 SWAP1 SUB PUSH1 0x1F AND DUP3 ADD SWAP2 JUMPDEST POP POP POP POP POP SWAP1 POP PUSH0 PUSH2 0x1263 PUSH2 0x23D4 JUMP JUMPDEST SWAP1 POP PUSH0 DUP2 MLOAD SUB PUSH2 0x1277 JUMPI DUP2 SWAP3 POP POP POP PUSH2 0x12B9 JUMP JUMPDEST PUSH0 DUP3 MLOAD GT ISZERO PUSH2 0x12AB JUMPI DUP1 DUP3 PUSH1 0x40 MLOAD PUSH1 0x20 ADD PUSH2 0x1293 SWAP3 SWAP2 SWAP1 PUSH2 0x43F6 JUMP JUMPDEST PUSH1 0x40 MLOAD PUSH1 0x20 DUP2 DUP4 SUB SUB DUP2 MSTORE SWAP1 PUSH1 0x40 MSTORE SWAP3 POP POP POP PUSH2 0x12B9 JUMP JUMPDEST PUSH2 0x12B4 DUP5 PUSH2 0x23EA JUMP JUMPDEST SWAP3 POP POP POP JUMPDEST SWAP2 SWAP1 POP JUMP JUMPDEST PUSH0 PUSH1 0x5 PUSH0 DUP5 PUSH20 0xFFFFFFFFFFFFFFFFFFFFFFFFFFFFFFFFFFFFFFFF AND PUSH20 0xFFFFFFFFFFFFFFFFFFFFFFFFFFFFFFFFFFFFFFFF AND DUP2 MSTORE PUSH1 0x20 ADD SWAP1 DUP2 MSTORE PUSH1 0x20 ADD PUSH0 KECCAK256 PUSH0 DUP4 PUSH20 0xFFFFFFFFFFFFFFFFFFFFFFFFFFFFFFFFFFFFFFFF AND PUSH20 0xFFFFFFFFFFFFFFFFFFFFFFFFFFFFFFFFFFFFFFFF AND DUP2 MSTORE PUSH1 0x20 ADD SWAP1 DUP2 MSTORE PUSH1 0x20 ADD PUSH0 KECCAK256 PUSH0 SWAP1 SLOAD SWAP1 PUSH2 0x100 EXP SWAP1 DIV PUSH1 0xFF AND SWAP1 POP SWAP3 SWAP2 POP POP JUMP JUMPDEST PUSH1 0x40 MLOAD DUP1 PUSH2 0x2A0 ADD PUSH1 0x40 MSTORE DUP1 PUSH2 0x277 DUP2 MSTORE PUSH1 0x20 ADD PUSH2 0x4DD0 PUSH2 0x277 SWAP2 CODECOPY DUP2 JUMP JUMPDEST PUSH0 PUSH32 0x80AC58CD00000000000000000000000000000000000000000000000000000000 PUSH28 0xFFFFFFFFFFFFFFFFFFFFFFFFFFFFFFFFFFFFFFFFFFFFFFFFFFFFFFFF NOT AND DUP3 PUSH28 0xFFFFFFFFFFFFFFFFFFFFFFFFFFFFFFFFFFFFFFFFFFFFFFFFFFFFFFFF NOT AND EQ DUP1 PUSH2 0x1435 JUMPI POP PUSH32 0x5B5E139F00000000000000000000000000000000000000000000000000000000 PUSH28 0xFFFFFFFFFFFFFFFFFFFFFFFFFFFFFFFFFFFFFFFFFFFFFFFFFFFFFFFF NOT AND DUP3 PUSH28 0xFFFFFFFFFFFFFFFFFFFFFFFFFFFFFFFFFFFFFFFFFFFFFFFFFFFFFFFF NOT AND EQ JUMPDEST DUP1 PUSH2 0x1445 JUMPI POP PUSH2 0x1444 DUP3 PUSH2 0x244F JUMP JUMPDEST JUMPDEST SWAP1 POP SWAP2 SWAP1 POP JUMP JUMPDEST PUSH2 0x1455 DUP2 PUSH2 0x24B8 JUMP JUMPDEST PUSH2 0x1494 JUMPI PUSH1 0x40 MLOAD PUSH32 0x8C379A000000000000000000000000000000000000000000000000000000000 DUP2 MSTORE PUSH1 0x4 ADD PUSH2 0x148B SWAP1 PUSH2 0x434A JUMP JUMPDEST PUSH1 0x40 MLOAD DUP1 SWAP2 SUB SWAP1 REVERT JUMPDEST POP JUMP JUMPDEST PUSH0 CALLER SWAP1 POP SWAP1 JUMP JUMPDEST DUP2 PUSH1 0x4 PUSH0 DUP4 DUP2 MSTORE PUSH1 0x20 ADD SWAP1 DUP2 MSTORE PUSH1 0x20 ADD PUSH0 KECCAK256 PUSH0 PUSH2 0x100 EXP DUP2 SLOAD DUP2 PUSH20 0xFFFFFFFFFFFFFFFFFFFFFFFFFFFFFFFFFFFFFFFF MUL NOT AND SWAP1 DUP4 PUSH20 0xFFFFFFFFFFFFFFFFFFFFFFFFFFFFFFFFFFFFFFFF AND MUL OR SWAP1 SSTORE POP DUP1 DUP3 PUSH20 0xFFFFFFFFFFFFFFFFFFFFFFFFFFFFFFFFFFFFFFFF AND PUSH2 0x150E DUP4 PUSH2 0xE03 JUMP JUMPDEST PUSH20 0xFFFFFFFFFFFFFFFFFFFFFFFFFFFFFFFFFFFFFFFF AND PUSH32 0x8C5BE1E5EBEC7D5BD14F71427D1E84F3DD0314C0F7B2291E5B200AC8C7C3B925 PUSH1 0x40 MLOAD PUSH1 0x40 MLOAD DUP1 SWAP2 SUB SWAP1 LOG4 POP POP JUMP JUMPDEST DUP3 PUSH1 0x7 SLOAD EQ PUSH2 0x159A JUMPI DUP3 PUSH1 0x40 MLOAD PUSH32 0xD068BF5B00000000000000000000000000000000000000000000000000000000 DUP2 MSTORE PUSH1 0x4 ADD PUSH2 0x1591 SWAP2 SWAP1 PUSH2 0x3740 JUMP JUMPDEST PUSH1 0x40 MLOAD DUP1 SWAP2 SUB SWAP1 REVERT JUMPDEST DUP2 PUSH1 0x8 SWAP1 DUP2 PUSH2 0x15A9 SWAP2 SWAP1 PUSH2 0x4471 JUMP JUMPDEST POP DUP1 PUSH1 0x9 SWAP1 DUP2 PUSH2 0x15B9 SWAP2 SWAP1 PUSH2 0x4471 JUMP JUMPDEST POP DUP3 PUSH32 0x7873807BF6DDC50401CD3D29BBE0DECEE23FD4D68D273F4B5EB83CDED4D2F172 PUSH1 0x8 PUSH1 0x9 PUSH1 0x40 MLOAD PUSH2 0x15EE SWAP3 SWAP2 SWAP1 PUSH2 0x45C1 JUMP JUMPDEST PUSH1 0x40 MLOAD DUP1 SWAP2 SUB SWAP1 LOG2 PUSH1 0x40 MLOAD DUP1 PUSH1 0x40 ADD PUSH1 0x40 MSTORE DUP1 PUSH1 0x9 DUP2 MSTORE PUSH1 0x20 ADD PUSH32 0x6E6F7420666F756E640000000000000000000000000000000000000000000000 DUP2 MSTORE POP DUP1 MLOAD SWAP1 PUSH1 0x20 ADD KECCAK256 DUP3 DUP1 MLOAD SWAP1 PUSH1 0x20 ADD KECCAK256 SUB ISZERO PUSH2 0x1805 JUMPI PUSH0 DUP2 MLOAD SUB PUSH2 0x1804 JUMPI PUSH0 PUSH1 0xD PUSH0 DUP6 DUP2 MSTORE PUSH1 0x20 ADD SWAP1 DUP2 MSTORE PUSH1 0x20 ADD PUSH0 KECCAK256 PUSH0 SWAP1 SLOAD SWAP1 PUSH2 0x100 EXP SWAP1 DIV PUSH20 0xFFFFFFFFFFFFFFFFFFFFFFFFFFFFFFFFFFFFFFFF AND SWAP1 POP PUSH0 PUSH1 0x10 DUP5 PUSH1 0x40 MLOAD PUSH2 0x168E SWAP2 SWAP1 PUSH2 0x3F96 JUMP JUMPDEST SWAP1 DUP2 MSTORE PUSH1 0x20 ADD PUSH1 0x40 MLOAD DUP1 SWAP2 SUB SWAP1 KECCAK256 DUP1 SLOAD PUSH2 0x16A7 SWAP1 PUSH2 0x3CF4 JUMP JUMPDEST DUP1 PUSH1 0x1F ADD PUSH1 0x20 DUP1 SWAP2 DIV MUL PUSH1 0x20 ADD PUSH1 0x40 MLOAD SWAP1 DUP2 ADD PUSH1 0x40 MSTORE DUP1 SWAP3 SWAP2 SWAP1 DUP2 DUP2 MSTORE PUSH1 0x20 ADD DUP3 DUP1 SLOAD PUSH2 0x16D3 SWAP1 PUSH2 0x3CF4 JUMP JUMPDEST DUP1 ISZERO PUSH2 0x171E JUMPI DUP1 PUSH1 0x1F LT PUSH2 0x16F5 JUMPI PUSH2 0x100 DUP1 DUP4 SLOAD DIV MUL DUP4 MSTORE SWAP2 PUSH1 0x20 ADD SWAP2 PUSH2 0x171E JUMP JUMPDEST DUP3 ADD SWAP2 SWAP1 PUSH0 MSTORE PUSH1 0x20 PUSH0 KECCAK256 SWAP1 JUMPDEST DUP2 SLOAD DUP2 MSTORE SWAP1 PUSH1 0x1 ADD SWAP1 PUSH1 0x20 ADD DUP1 DUP4 GT PUSH2 0x1701 JUMPI DUP3 SWAP1 SUB PUSH1 0x1F AND DUP3 ADD SWAP2 JUMPDEST POP POP POP POP POP SWAP1 POP PUSH2 0x172F DUP3 DUP3 PUSH2 0x24F8 JUMP JUMPDEST PUSH0 PUSH1 0xE PUSH0 DUP8 DUP2 MSTORE PUSH1 0x20 ADD SWAP1 DUP2 MSTORE PUSH1 0x20 ADD PUSH0 KECCAK256 DUP1 SLOAD PUSH2 0x174C SWAP1 PUSH2 0x3CF4 JUMP JUMPDEST DUP1 PUSH1 0x1F ADD PUSH1 0x20 DUP1 SWAP2 DIV MUL PUSH1 0x20 ADD PUSH1 0x40 MLOAD SWAP1 DUP2 ADD PUSH1 0x40 MSTORE DUP1 SWAP3 SWAP2 SWAP1 DUP2 DUP2 MSTORE PUSH1 0x20 ADD DUP3 DUP1 SLOAD PUSH2 0x1778 SWAP1 PUSH2 0x3CF4 JUMP JUMPDEST DUP1 ISZERO PUSH2 0x17C3 JUMPI DUP1 PUSH1 0x1F LT PUSH2 0x179A JUMPI PUSH2 0x100 DUP1 DUP4 SLOAD DIV MUL DUP4 MSTORE SWAP2 PUSH1 0x20 ADD SWAP2 PUSH2 0x17C3 JUMP JUMPDEST DUP3 ADD SWAP2 SWAP1 PUSH0 MSTORE PUSH1 0x20 PUSH0 KECCAK256 SWAP1 JUMPDEST DUP2 SLOAD DUP2 MSTORE SWAP1 PUSH1 0x1 ADD SWAP1 PUSH1 0x20 ADD DUP1 DUP4 GT PUSH2 0x17A6 JUMPI DUP3 SWAP1 SUB PUSH1 0x1F AND DUP3 ADD SWAP2 JUMPDEST POP POP POP POP POP SWAP1 POP PUSH1 0x1 PUSH1 0xC DUP3 PUSH1 0x40 MLOAD PUSH2 0x17DC SWAP2 SWAP1 PUSH2 0x4282 JUMP JUMPDEST SWAP1 DUP2 MSTORE PUSH1 0x20 ADD PUSH1 0x40 MLOAD DUP1 SWAP2 SUB SWAP1 KECCAK256 PUSH0 PUSH2 0x100 EXP DUP2 SLOAD DUP2 PUSH1 0xFF MUL NOT AND SWAP1 DUP4 ISZERO ISZERO MUL OR SWAP1 SSTORE POP POP POP POP JUMPDEST JUMPDEST POP POP POP JUMP JUMPDEST PUSH0 PUSH0 PUSH2 0x1815 DUP4 PUSH2 0xE03 JUMP JUMPDEST SWAP1 POP DUP1 PUSH20 0xFFFFFFFFFFFFFFFFFFFFFFFFFFFFFFFFFFFFFFFF AND DUP5 PUSH20 0xFFFFFFFFFFFFFFFFFFFFFFFFFFFFFFFFFFFFFFFF AND EQ DUP1 PUSH2 0x1857 JUMPI POP PUSH2 0x1856 DUP2 DUP6 PUSH2 0x12BE JUMP JUMPDEST JUMPDEST DUP1 PUSH2 0x1895 JUMPI POP DUP4 PUSH20 0xFFFFFFFFFFFFFFFFFFFFFFFFFFFFFFFFFFFFFFFF AND PUSH2 0x187D DUP5 PUSH2 0x61E JUMP JUMPDEST PUSH20 0xFFFFFFFFFFFFFFFFFFFFFFFFFFFFFFFFFFFFFFFF AND EQ JUMPDEST SWAP2 POP POP SWAP3 SWAP2 POP POP JUMP JUMPDEST DUP3 PUSH20 0xFFFFFFFFFFFFFFFFFFFFFFFFFFFFFFFFFFFFFFFF AND PUSH2 0x18BE DUP3 PUSH2 0xE03 JUMP JUMPDEST PUSH20 0xFFFFFFFFFFFFFFFFFFFFFFFFFFFFFFFFFFFFFFFF AND EQ PUSH2 0x1914 JUMPI PUSH1 0x40 MLOAD PUSH32 0x8C379A000000000000000000000000000000000000000000000000000000000 DUP2 MSTORE PUSH1 0x4 ADD PUSH2 0x190B SWAP1 PUSH2 0x4666 JUMP JUMPDEST PUSH1 0x40 MLOAD DUP1 SWAP2 SUB SWAP1 REVERT JUMPDEST PUSH0 PUSH20 0xFFFFFFFFFFFFFFFFFFFFFFFFFFFFFFFFFFFFFFFF AND DUP3 PUSH20 0xFFFFFFFFFFFFFFFFFFFFFFFFFFFFFFFFFFFFFFFF AND SUB PUSH2 0x1982 JUMPI PUSH1 0x40 MLOAD PUSH32 0x8C379A000000000000000000000000000000000000000000000000000000000 DUP2 MSTORE PUSH1 0x4 ADD PUSH2 0x1979 SWAP1 PUSH2 0x46F4 JUMP JUMPDEST PUSH1 0x40 MLOAD DUP1 SWAP2 SUB SWAP1 REVERT JUMPDEST PUSH2 0x198F DUP4 DUP4 DUP4 PUSH1 0x1 PUSH2 0x252B JUMP JUMPDEST DUP3 PUSH20 0xFFFFFFFFFFFFFFFFFFFFFFFFFFFFFFFFFFFFFFFF AND PUSH2 0x19AF DUP3 PUSH2 0xE03 JUMP JUMPDEST PUSH20 0xFFFFFFFFFFFFFFFFFFFFFFFFFFFFFFFFFFFFFFFF AND EQ PUSH2 0x1A05 JUMPI PUSH1 0x40 MLOAD PUSH32 0x8C379A000000000000000000000000000000000000000000000000000000000 DUP2 MSTORE PUSH1 0x4 ADD PUSH2 0x19FC SWAP1 PUSH2 0x4666 JUMP JUMPDEST PUSH1 0x40 MLOAD DUP1 SWAP2 SUB SWAP1 REVERT JUMPDEST PUSH1 0x4 PUSH0 DUP3 DUP2 MSTORE PUSH1 0x20 ADD SWAP1 DUP2 MSTORE PUSH1 0x20 ADD PUSH0 KECCAK256 PUSH0 PUSH2 0x100 EXP DUP2 SLOAD SWAP1 PUSH20 0xFFFFFFFFFFFFFFFFFFFFFFFFFFFFFFFFFFFFFFFF MUL NOT AND SWAP1 SSTORE PUSH1 0x1 PUSH1 0x3 PUSH0 DUP6 PUSH20 0xFFFFFFFFFFFFFFFFFFFFFFFFFFFFFFFFFFFFFFFF AND PUSH20 0xFFFFFFFFFFFFFFFFFFFFFFFFFFFFFFFFFFFFFFFF AND DUP2 MSTORE PUSH1 0x20 ADD SWAP1 DUP2 MSTORE PUSH1 0x20 ADD PUSH0 KECCAK256 PUSH0 DUP3 DUP3 SLOAD SUB SWAP3 POP POP DUP2 SWAP1 SSTORE POP PUSH1 0x1 PUSH1 0x3 PUSH0 DUP5 PUSH20 0xFFFFFFFFFFFFFFFFFFFFFFFFFFFFFFFFFFFFFFFF AND PUSH20 0xFFFFFFFFFFFFFFFFFFFFFFFFFFFFFFFFFFFFFFFF AND DUP2 MSTORE PUSH1 0x20 ADD SWAP1 DUP2 MSTORE PUSH1 0x20 ADD PUSH0 KECCAK256 PUSH0 DUP3 DUP3 SLOAD ADD SWAP3 POP POP DUP2 SWAP1 SSTORE POP DUP2 PUSH1 0x2 PUSH0 DUP4 DUP2 MSTORE PUSH1 0x20 ADD SWAP1 DUP2 MSTORE PUSH1 0x20 ADD PUSH0 KECCAK256 PUSH0 PUSH2 0x100 EXP DUP2 SLOAD DUP2 PUSH20 0xFFFFFFFFFFFFFFFFFFFFFFFFFFFFFFFFFFFFFFFF MUL NOT AND SWAP1 DUP4 PUSH20 0xFFFFFFFFFFFFFFFFFFFFFFFFFFFFFFFFFFFFFFFF AND MUL OR SWAP1 SSTORE POP DUP1 DUP3 PUSH20 0xFFFFFFFFFFFFFFFFFFFFFFFFFFFFFFFFFFFFFFFF AND DUP5 PUSH20 0xFFFFFFFFFFFFFFFFFFFFFFFFFFFFFFFFFFFFFFFF AND PUSH32 0xDDF252AD1BE2C89B69C2B068FC378DAA952BA7F163C4A11628F55A4DF523B3EF PUSH1 0x40 MLOAD PUSH1 0x40 MLOAD DUP1 SWAP2 SUB SWAP1 LOG4 PUSH2 0x1B85 DUP4 DUP4 DUP4 PUSH1 0x1 PUSH2 0x2531 JUMP JUMPDEST POP POP POP JUMP JUMPDEST PUSH2 0x1B96 DUP3 PUSH0 PUSH0 DUP5 PUSH2 0x2537 JUMP JUMPDEST POP POP JUMP JUMPDEST PUSH0 PUSH2 0x1BA6 PUSH2 0x100 PUSH2 0x25DD JUMP JUMPDEST SWAP1 POP PUSH2 0x1BF0 PUSH1 0x40 MLOAD DUP1 PUSH1 0x40 ADD PUSH1 0x40 MSTORE DUP1 PUSH1 0x6 DUP2 MSTORE PUSH1 0x20 ADD PUSH32 0x736C6F7449440000000000000000000000000000000000000000000000000000 DUP2 MSTORE POP DUP3 PUSH2 0x2602 SWAP1 SWAP2 SWAP1 PUSH4 0xFFFFFFFF AND JUMP JUMPDEST PUSH2 0x1C06 DUP4 PUSH1 0xFF AND DUP3 PUSH2 0x262A SWAP1 SWAP2 SWAP1 PUSH4 0xFFFFFFFF AND JUMP JUMPDEST PUSH2 0x1C4E PUSH1 0x40 MLOAD DUP1 PUSH1 0x40 ADD PUSH1 0x40 MSTORE DUP1 PUSH1 0x7 DUP2 MSTORE PUSH1 0x20 ADD PUSH32 0x76657273696F6E00000000000000000000000000000000000000000000000000 DUP2 MSTORE POP DUP3 PUSH2 0x2602 SWAP1 SWAP2 SWAP1 PUSH4 0xFFFFFFFF AND JUMP JUMPDEST PUSH2 0x1C61 DUP3 DUP3 PUSH2 0x262A SWAP1 SWAP2 SWAP1 PUSH4 0xFFFFFFFF AND JUMP JUMPDEST PUSH1 0x2 DUP5 PUSH1 0x20 ADD SWAP1 PUSH1 0x2 DUP2 GT ISZERO PUSH2 0x1C7A JUMPI PUSH2 0x1C79 PUSH2 0x4712 JUMP JUMPDEST JUMPDEST SWAP1 DUP2 PUSH1 0x2 DUP2 GT ISZERO PUSH2 0x1C8E JUMPI PUSH2 0x1C8D PUSH2 0x4712 JUMP JUMPDEST JUMPDEST DUP2 MSTORE POP POP DUP1 PUSH0 ADD MLOAD PUSH0 ADD MLOAD DUP5 PUSH1 0x80 ADD DUP2 SWAP1 MSTORE POP POP POP POP POP JUMP JUMPDEST PUSH0 DUP2 MLOAD SUB PUSH2 0x1CE1 JUMPI PUSH1 0x40 MLOAD PUSH32 0xFE936CB700000000000000000000000000000000000000000000000000000000 DUP2 MSTORE PUSH1 0x4 ADD PUSH1 0x40 MLOAD DUP1 SWAP2 SUB SWAP1 REVERT JUMPDEST DUP1 DUP3 PUSH1 0xA0 ADD DUP2 SWAP1 MSTORE POP POP POP JUMP JUMPDEST PUSH1 0x60 PUSH0 PUSH2 0x1CFC PUSH2 0x100 PUSH2 0x25DD JUMP JUMPDEST SWAP1 POP PUSH2 0x1D46 PUSH1 0x40 MLOAD DUP1 PUSH1 0x40 ADD PUSH1 0x40 MSTORE DUP1 PUSH1 0xC DUP2 MSTORE PUSH1 0x20 ADD PUSH32 0x636F64654C6F636174696F6E0000000000000000000000000000000000000000 DUP2 MSTORE POP DUP3 PUSH2 0x2602 SWAP1 SWAP2 SWAP1 PUSH4 0xFFFFFFFF AND JUMP JUMPDEST PUSH2 0x1D6E DUP4 PUSH0 ADD MLOAD PUSH1 0x2 DUP2 GT ISZERO PUSH2 0x1D5F JUMPI PUSH2 0x1D5E PUSH2 0x4712 JUMP JUMPDEST JUMPDEST DUP3 PUSH2 0x2639 SWAP1 SWAP2 SWAP1 PUSH4 0xFFFFFFFF AND JUMP JUMPDEST PUSH2 0x1DB6 PUSH1 0x40 MLOAD DUP1 PUSH1 0x40 ADD PUSH1 0x40 MSTORE DUP1 PUSH1 0x8 DUP2 MSTORE PUSH1 0x20 ADD PUSH32 0x6C616E6775616765000000000000000000000000000000000000000000000000 DUP2 MSTORE POP DUP3 PUSH2 0x2602 SWAP1 SWAP2 SWAP1 PUSH4 0xFFFFFFFF AND JUMP JUMPDEST PUSH2 0x1DDE DUP4 PUSH1 0x40 ADD MLOAD PUSH0 DUP2 GT ISZERO PUSH2 0x1DCF JUMPI PUSH2 0x1DCE PUSH2 0x4712 JUMP JUMPDEST JUMPDEST DUP3 PUSH2 0x2639 SWAP1 SWAP2 SWAP1 PUSH4 0xFFFFFFFF AND JUMP JUMPDEST PUSH2 0x1E26 PUSH1 0x40 MLOAD DUP1 PUSH1 0x40 ADD PUSH1 0x40 MSTORE DUP1 PUSH1 0x6 DUP2 MSTORE PUSH1 0x20 ADD PUSH32 0x736F757263650000000000000000000000000000000000000000000000000000 DUP2 MSTORE POP DUP3 PUSH2 0x2602 SWAP1 SWAP2 SWAP1 PUSH4 0xFFFFFFFF AND JUMP JUMPDEST PUSH2 0x1E3D DUP4 PUSH1 0x60 ADD MLOAD DUP3 PUSH2 0x2602 SWAP1 SWAP2 SWAP1 PUSH4 0xFFFFFFFF AND JUMP JUMPDEST PUSH0 DUP4 PUSH1 0xA0 ADD MLOAD MLOAD GT ISZERO PUSH2 0x1EF4 JUMPI PUSH2 0x1E92 PUSH1 0x40 MLOAD DUP1 PUSH1 0x40 ADD PUSH1 0x40 MSTORE DUP1 PUSH1 0x4 DUP2 MSTORE PUSH1 0x20 ADD PUSH32 0x6172677300000000000000000000000000000000000000000000000000000000 DUP2 MSTORE POP DUP3 PUSH2 0x2602 SWAP1 SWAP2 SWAP1 PUSH4 0xFFFFFFFF AND JUMP JUMPDEST PUSH2 0x1E9B DUP2 PUSH2 0x2688 JUMP JUMPDEST PUSH0 PUSH0 SWAP1 POP JUMPDEST DUP4 PUSH1 0xA0 ADD MLOAD MLOAD DUP2 LT ISZERO PUSH2 0x1EE9 JUMPI PUSH2 0x1EDE DUP5 PUSH1 0xA0 ADD MLOAD DUP3 DUP2 MLOAD DUP2 LT PUSH2 0x1EC7 JUMPI PUSH2 0x1EC6 PUSH2 0x421B JUMP JUMPDEST JUMPDEST PUSH1 0x20 MUL PUSH1 0x20 ADD ADD MLOAD DUP4 PUSH2 0x2602 SWAP1 SWAP2 SWAP1 PUSH4 0xFFFFFFFF AND JUMP JUMPDEST DUP1 PUSH1 0x1 ADD SWAP1 POP PUSH2 0x1EA0 JUMP JUMPDEST POP PUSH2 0x1EF3 DUP2 PUSH2 0x26B0 JUMP JUMPDEST JUMPDEST PUSH0 DUP4 PUSH1 0x80 ADD MLOAD MLOAD GT ISZERO PUSH2 0x2033 JUMPI PUSH0 PUSH1 0x2 DUP2 GT ISZERO PUSH2 0x1F14 JUMPI PUSH2 0x1F13 PUSH2 0x4712 JUMP JUMPDEST JUMPDEST DUP4 PUSH1 0x20 ADD MLOAD PUSH1 0x2 DUP2 GT ISZERO PUSH2 0x1F2B JUMPI PUSH2 0x1F2A PUSH2 0x4712 JUMP JUMPDEST JUMPDEST SUB PUSH2 0x1F62 JUMPI PUSH1 0x40 MLOAD PUSH32 0xA80D31F700000000000000000000000000000000000000000000000000000000 DUP2 MSTORE PUSH1 0x4 ADD PUSH1 0x40 MLOAD DUP1 SWAP2 SUB SWAP1 REVERT JUMPDEST PUSH2 0x1FAA PUSH1 0x40 MLOAD DUP1 PUSH1 0x40 ADD PUSH1 0x40 MSTORE DUP1 PUSH1 0xF DUP2 MSTORE PUSH1 0x20 ADD PUSH32 0x736563726574734C6F636174696F6E0000000000000000000000000000000000 DUP2 MSTORE POP DUP3 PUSH2 0x2602 SWAP1 SWAP2 SWAP1 PUSH4 0xFFFFFFFF AND JUMP JUMPDEST PUSH2 0x1FD3 DUP4 PUSH1 0x20 ADD MLOAD PUSH1 0x2 DUP2 GT ISZERO PUSH2 0x1FC4 JUMPI PUSH2 0x1FC3 PUSH2 0x4712 JUMP JUMPDEST JUMPDEST DUP3 PUSH2 0x2639 SWAP1 SWAP2 SWAP1 PUSH4 0xFFFFFFFF AND JUMP JUMPDEST PUSH2 0x201B PUSH1 0x40 MLOAD DUP1 PUSH1 0x40 ADD PUSH1 0x40 MSTORE DUP1 PUSH1 0x7 DUP2 MSTORE PUSH1 0x20 ADD PUSH32 0x7365637265747300000000000000000000000000000000000000000000000000 DUP2 MSTORE POP DUP3 PUSH2 0x2602 SWAP1 SWAP2 SWAP1 PUSH4 0xFFFFFFFF AND JUMP JUMPDEST PUSH2 0x2032 DUP4 PUSH1 0x80 ADD MLOAD DUP3 PUSH2 0x26D8 SWAP1 SWAP2 SWAP1 PUSH4 0xFFFFFFFF AND JUMP JUMPDEST JUMPDEST PUSH0 DUP4 PUSH1 0xC0 ADD MLOAD MLOAD GT ISZERO PUSH2 0x20EA JUMPI PUSH2 0x2088 PUSH1 0x40 MLOAD DUP1 PUSH1 0x40 ADD PUSH1 0x40 MSTORE DUP1 PUSH1 0x9 DUP2 MSTORE PUSH1 0x20 ADD PUSH32 0x6279746573417267730000000000000000000000000000000000000000000000 DUP2 MSTORE POP DUP3 PUSH2 0x2602 SWAP1 SWAP2 SWAP1 PUSH4 0xFFFFFFFF AND JUMP JUMPDEST PUSH2 0x2091 DUP2 PUSH2 0x2688 JUMP JUMPDEST PUSH0 PUSH0 SWAP1 POP JUMPDEST DUP4 PUSH1 0xC0 ADD MLOAD MLOAD DUP2 LT ISZERO PUSH2 0x20DF JUMPI PUSH2 0x20D4 DUP5 PUSH1 0xC0 ADD MLOAD DUP3 DUP2 MLOAD DUP2 LT PUSH2 0x20BD JUMPI PUSH2 0x20BC PUSH2 0x421B JUMP JUMPDEST JUMPDEST PUSH1 0x20 MUL PUSH1 0x20 ADD ADD MLOAD DUP4 PUSH2 0x26D8 SWAP1 SWAP2 SWAP1 PUSH4 0xFFFFFFFF AND JUMP JUMPDEST DUP1 PUSH1 0x1 ADD SWAP1 POP PUSH2 0x2096 JUMP JUMPDEST POP PUSH2 0x20E9 DUP2 PUSH2 0x26B0 JUMP JUMPDEST JUMPDEST DUP1 PUSH0 ADD MLOAD PUSH0 ADD MLOAD SWAP2 POP POP SWAP2 SWAP1 POP JUMP JUMPDEST PUSH0 PUSH0 PUSH32 0x0 PUSH20 0xFFFFFFFFFFFFFFFFFFFFFFFFFFFFFFFFFFFFFFFF AND PUSH4 0x461D2762 DUP7 DUP9 PUSH1 0x1 DUP9 DUP9 PUSH1 0x40 MLOAD DUP7 PUSH4 0xFFFFFFFF AND PUSH1 0xE0 SHL DUP2 MSTORE PUSH1 0x4 ADD PUSH2 0x215D SWAP6 SWAP5 SWAP4 SWAP3 SWAP2 SWAP1 PUSH2 0x476A JUMP JUMPDEST PUSH1 0x20 PUSH1 0x40 MLOAD DUP1 DUP4 SUB DUP2 PUSH0 DUP8 GAS CALL ISZERO DUP1 ISZERO PUSH2 0x2179 JUMPI RETURNDATASIZE PUSH0 PUSH0 RETURNDATACOPY RETURNDATASIZE PUSH0 REVERT JUMPDEST POP POP POP POP PUSH1 0x40 MLOAD RETURNDATASIZE PUSH1 0x1F NOT PUSH1 0x1F DUP3 ADD AND DUP3 ADD DUP1 PUSH1 0x40 MSTORE POP DUP2 ADD SWAP1 PUSH2 0x219D SWAP2 SWAP1 PUSH2 0x47D6 JUMP JUMPDEST SWAP1 POP DUP1 PUSH32 0x1131472297A800FEE664D1D89CFA8F7676FF07189ECC53F80BBB5F4969099DB8 PUSH1 0x40 MLOAD PUSH1 0x40 MLOAD DUP1 SWAP2 SUB SWAP1 LOG2 DUP1 SWAP2 POP POP SWAP5 SWAP4 POP POP POP POP JUMP JUMPDEST PUSH0 PUSH1 0x2 PUSH0 DUP4 DUP2 MSTORE PUSH1 0x20 ADD SWAP1 DUP2 MSTORE PUSH1 0x20 ADD PUSH0 KECCAK256 PUSH0 SWAP1 SLOAD SWAP1 PUSH2 0x100 EXP SWAP1 DIV PUSH20 0xFFFFFFFFFFFFFFFFFFFFFFFFFFFFFFFFFFFFFFFF AND SWAP1 POP SWAP2 SWAP1 POP JUMP JUMPDEST DUP2 PUSH20 0xFFFFFFFFFFFFFFFFFFFFFFFFFFFFFFFFFFFFFFFF AND DUP4 PUSH20 0xFFFFFFFFFFFFFFFFFFFFFFFFFFFFFFFFFFFFFFFF AND SUB PUSH2 0x227F JUMPI PUSH1 0x40 MLOAD PUSH32 0x8C379A000000000000000000000000000000000000000000000000000000000 DUP2 MSTORE PUSH1 0x4 ADD PUSH2 0x2276 SWAP1 PUSH2 0x484B JUMP JUMPDEST PUSH1 0x40 MLOAD DUP1 SWAP2 SUB SWAP1 REVERT JUMPDEST DUP1 PUSH1 0x5 PUSH0 DUP6 PUSH20 0xFFFFFFFFFFFFFFFFFFFFFFFFFFFFFFFFFFFFFFFF AND PUSH20 0xFFFFFFFFFFFFFFFFFFFFFFFFFFFFFFFFFFFFFFFF AND DUP2 MSTORE PUSH1 0x20 ADD SWAP1 DUP2 MSTORE PUSH1 0x20 ADD PUSH0 KECCAK256 PUSH0 DUP5 PUSH20 0xFFFFFFFFFFFFFFFFFFFFFFFFFFFFFFFFFFFFFFFF AND PUSH20 0xFFFFFFFFFFFFFFFFFFFFFFFFFFFFFFFFFFFFFFFF AND DUP2 MSTORE PUSH1 0x20 ADD SWAP1 DUP2 MSTORE PUSH1 0x20 ADD PUSH0 KECCAK256 PUSH0 PUSH2 0x100 EXP DUP2 SLOAD DUP2 PUSH1 0xFF MUL NOT AND SWAP1 DUP4 ISZERO ISZERO MUL OR SWAP1 SSTORE POP DUP2 PUSH20 0xFFFFFFFFFFFFFFFFFFFFFFFFFFFFFFFFFFFFFFFF AND DUP4 PUSH20 0xFFFFFFFFFFFFFFFFFFFFFFFFFFFFFFFFFFFFFFFF AND PUSH32 0x17307EAB39AB6107E8899845AD3D59BD9653F200F220920489CA2B5937696C31 DUP4 PUSH1 0x40 MLOAD PUSH2 0x236B SWAP2 SWAP1 PUSH2 0x3383 JUMP JUMPDEST PUSH1 0x40 MLOAD DUP1 SWAP2 SUB SWAP1 LOG3 POP POP POP JUMP JUMPDEST PUSH2 0x2383 DUP5 DUP5 DUP5 PUSH2 0x189E JUMP JUMPDEST PUSH2 0x238F DUP5 DUP5 DUP5 DUP5 PUSH2 0x2700 JUMP JUMPDEST PUSH2 0x23CE JUMPI PUSH1 0x40 MLOAD PUSH32 0x8C379A000000000000000000000000000000000000000000000000000000000 DUP2 MSTORE PUSH1 0x4 ADD PUSH2 0x23C5 SWAP1 PUSH2 0x48D9 JUMP JUMPDEST PUSH1 0x40 MLOAD DUP1 SWAP2 SUB SWAP1 REVERT JUMPDEST POP POP POP POP JUMP JUMPDEST PUSH1 0x60 PUSH1 0x40 MLOAD DUP1 PUSH1 0x20 ADD PUSH1 0x40 MSTORE DUP1 PUSH0 DUP2 MSTORE POP SWAP1 POP SWAP1 JUMP JUMPDEST PUSH1 0x60 PUSH2 0x23F5 DUP3 PUSH2 0x144C JUMP JUMPDEST PUSH0 PUSH2 0x23FE PUSH2 0x23D4 JUMP JUMPDEST SWAP1 POP PUSH0 DUP2 MLOAD GT PUSH2 0x241C JUMPI PUSH1 0x40 MLOAD DUP1 PUSH1 0x20 ADD PUSH1 0x40 MSTORE DUP1 PUSH0 DUP2 MSTORE POP PUSH2 0x2447 JUMP JUMPDEST DUP1 PUSH2 0x2426 DUP5 PUSH2 0x2882 JUMP JUMPDEST PUSH1 0x40 MLOAD PUSH1 0x20 ADD PUSH2 0x2437 SWAP3 SWAP2 SWAP1 PUSH2 0x43F6 JUMP JUMPDEST PUSH1 0x40 MLOAD PUSH1 0x20 DUP2 DUP4 SUB SUB DUP2 MSTORE SWAP1 PUSH1 0x40 MSTORE JUMPDEST SWAP2 POP POP SWAP2 SWAP1 POP JUMP JUMPDEST PUSH0 PUSH32 0x1FFC9A700000000000000000000000000000000000000000000000000000000 PUSH28 0xFFFFFFFFFFFFFFFFFFFFFFFFFFFFFFFFFFFFFFFFFFFFFFFFFFFFFFFF NOT AND DUP3 PUSH28 0xFFFFFFFFFFFFFFFFFFFFFFFFFFFFFFFFFFFFFFFFFFFFFFFFFFFFFFFF NOT AND EQ SWAP1 POP SWAP2 SWAP1 POP JUMP JUMPDEST PUSH0 PUSH0 PUSH20 0xFFFFFFFFFFFFFFFFFFFFFFFFFFFFFFFFFFFFFFFF AND PUSH2 0x24D9 DUP4 PUSH2 0x21D8 JUMP JUMPDEST PUSH20 0xFFFFFFFFFFFFFFFFFFFFFFFFFFFFFFFFFFFFFFFF AND EQ ISZERO SWAP1 POP SWAP2 SWAP1 POP JUMP JUMPDEST PUSH2 0x2504 DUP3 PUSH1 0xF SLOAD PUSH2 0x294C JUMP JUMPDEST PUSH2 0x2510 PUSH1 0xF SLOAD DUP3 PUSH2 0x2969 JUMP JUMPDEST PUSH1 0xF PUSH0 DUP2 SLOAD DUP1 SWAP3 SWAP2 SWAP1 PUSH2 0x2522 SWAP1 PUSH2 0x4924 JUMP JUMPDEST SWAP2 SWAP1 POP SSTORE POP POP POP JUMP JUMPDEST POP POP POP POP JUMP JUMPDEST POP POP POP POP JUMP JUMPDEST PUSH0 DUP2 MLOAD SUB PUSH2 0x2571 JUMPI PUSH1 0x40 MLOAD PUSH32 0x22CE3EDD00000000000000000000000000000000000000000000000000000000 DUP2 MSTORE PUSH1 0x4 ADD PUSH1 0x40 MLOAD DUP1 SWAP2 SUB SWAP1 REVERT JUMPDEST DUP3 DUP5 PUSH0 ADD SWAP1 PUSH1 0x2 DUP2 GT ISZERO PUSH2 0x2588 JUMPI PUSH2 0x2587 PUSH2 0x4712 JUMP JUMPDEST JUMPDEST SWAP1 DUP2 PUSH1 0x2 DUP2 GT ISZERO PUSH2 0x259C JUMPI PUSH2 0x259B PUSH2 0x4712 JUMP JUMPDEST JUMPDEST DUP2 MSTORE POP POP DUP2 DUP5 PUSH1 0x40 ADD SWAP1 PUSH0 DUP2 GT ISZERO PUSH2 0x25B7 JUMPI PUSH2 0x25B6 PUSH2 0x4712 JUMP JUMPDEST JUMPDEST SWAP1 DUP2 PUSH0 DUP2 GT ISZERO PUSH2 0x25CA JUMPI PUSH2 0x25C9 PUSH2 0x4712 JUMP JUMPDEST JUMPDEST DUP2 MSTORE POP POP DUP1 DUP5 PUSH1 0x60 ADD DUP2 SWAP1 MSTORE POP POP POP POP POP JUMP JUMPDEST PUSH2 0x25E5 PUSH2 0x32A0 JUMP JUMPDEST PUSH2 0x25F2 DUP2 PUSH0 ADD MLOAD DUP4 PUSH2 0x2A0B JUMP JUMPDEST POP PUSH0 DUP2 PUSH1 0x20 ADD DUP2 DUP2 MSTORE POP POP SWAP2 SWAP1 POP JUMP JUMPDEST PUSH2 0x260F DUP3 PUSH1 0x3 DUP4 MLOAD PUSH2 0x2A81 JUMP JUMPDEST PUSH2 0x2625 DUP2 DUP4 PUSH0 ADD MLOAD PUSH2 0x2C21 SWAP1 SWAP2 SWAP1 PUSH4 0xFFFFFFFF AND JUMP JUMPDEST POP POP POP JUMP JUMPDEST PUSH2 0x2635 DUP3 PUSH0 DUP4 PUSH2 0x2A81 JUMP JUMPDEST POP POP JUMP JUMPDEST PUSH2 0x265A PUSH1 0x2 PUSH1 0x5 PUSH1 0x6 PUSH1 0xFF AND SWAP1 SHL OR DUP4 PUSH0 ADD MLOAD PUSH2 0x2C3D SWAP1 SWAP2 SWAP1 PUSH4 0xFFFFFFFF AND JUMP JUMPDEST POP PUSH2 0x2684 DUP3 DUP3 PUSH1 0x40 MLOAD PUSH1 0x20 ADD PUSH2 0x2670 SWAP2 SWAP1 PUSH2 0x3768 JUMP JUMPDEST PUSH1 0x40 MLOAD PUSH1 0x20 DUP2 DUP4 SUB SUB DUP2 MSTORE SWAP1 PUSH1 0x40 MSTORE PUSH2 0x26D8 JUMP JUMPDEST POP POP JUMP JUMPDEST PUSH2 0x2693 DUP2 PUSH1 0x4 PUSH2 0x2CA4 JUMP JUMPDEST PUSH1 0x1 DUP2 PUSH1 0x20 ADD DUP2 DUP2 MLOAD PUSH2 0x26A6 SWAP2 SWAP1 PUSH2 0x496B JUMP JUMPDEST SWAP2 POP DUP2 DUP2 MSTORE POP POP POP JUMP JUMPDEST PUSH2 0x26BB DUP2 PUSH1 0x7 PUSH2 0x2CA4 JUMP JUMPDEST PUSH1 0x1 DUP2 PUSH1 0x20 ADD DUP2 DUP2 MLOAD PUSH2 0x26CE SWAP2 SWAP1 PUSH2 0x499E JUMP JUMPDEST SWAP2 POP DUP2 DUP2 MSTORE POP POP POP JUMP JUMPDEST PUSH2 0x26E5 DUP3 PUSH1 0x2 DUP4 MLOAD PUSH2 0x2A81 JUMP JUMPDEST PUSH2 0x26FB DUP2 DUP4 PUSH0 ADD MLOAD PUSH2 0x2C21 SWAP1 SWAP2 SWAP1 PUSH4 0xFFFFFFFF AND JUMP JUMPDEST POP POP POP JUMP JUMPDEST PUSH0 PUSH2 0x2720 DUP5 PUSH20 0xFFFFFFFFFFFFFFFFFFFFFFFFFFFFFFFFFFFFFFFF AND PUSH2 0x2CC9 JUMP JUMPDEST ISZERO PUSH2 0x2875 JUMPI DUP4 PUSH20 0xFFFFFFFFFFFFFFFFFFFFFFFFFFFFFFFFFFFFFFFF AND PUSH4 0x150B7A02 PUSH2 0x2749 PUSH2 0x1497 JUMP JUMPDEST DUP8 DUP7 DUP7 PUSH1 0x40 MLOAD DUP6 PUSH4 0xFFFFFFFF AND PUSH1 0xE0 SHL DUP2 MSTORE PUSH1 0x4 ADD PUSH2 0x276B SWAP5 SWAP4 SWAP3 SWAP2 SWAP1 PUSH2 0x49D1 JUMP JUMPDEST PUSH1 0x20 PUSH1 0x40 MLOAD DUP1 DUP4 SUB DUP2 PUSH0 DUP8 GAS CALL SWAP3 POP POP POP DUP1 ISZERO PUSH2 0x27A6 JUMPI POP PUSH1 0x40 MLOAD RETURNDATASIZE PUSH1 0x1F NOT PUSH1 0x1F DUP3 ADD AND DUP3 ADD DUP1 PUSH1 0x40 MSTORE POP DUP2 ADD SWAP1 PUSH2 0x27A3 SWAP2 SWAP1 PUSH2 0x4A2F JUMP JUMPDEST PUSH1 0x1 JUMPDEST PUSH2 0x2825 JUMPI RETURNDATASIZE DUP1 PUSH0 DUP2 EQ PUSH2 0x27D4 JUMPI PUSH1 0x40 MLOAD SWAP2 POP PUSH1 0x1F NOT PUSH1 0x3F RETURNDATASIZE ADD AND DUP3 ADD PUSH1 0x40 MSTORE RETURNDATASIZE DUP3 MSTORE RETURNDATASIZE PUSH0 PUSH1 0x20 DUP5 ADD RETURNDATACOPY PUSH2 0x27D9 JUMP JUMPDEST PUSH1 0x60 SWAP2 POP JUMPDEST POP PUSH0 DUP2 MLOAD SUB PUSH2 0x281D JUMPI PUSH1 0x40 MLOAD PUSH32 0x8C379A000000000000000000000000000000000000000000000000000000000 DUP2 MSTORE PUSH1 0x4 ADD PUSH2 0x2814 SWAP1 PUSH2 0x48D9 JUMP JUMPDEST PUSH1 0x40 MLOAD DUP1 SWAP2 SUB SWAP1 REVERT JUMPDEST DUP1 MLOAD DUP2 PUSH1 0x20 ADD REVERT JUMPDEST PUSH4 0x150B7A02 PUSH1 0xE0 SHL PUSH28 0xFFFFFFFFFFFFFFFFFFFFFFFFFFFFFFFFFFFFFFFFFFFFFFFFFFFFFFFF NOT AND DUP2 PUSH28 0xFFFFFFFFFFFFFFFFFFFFFFFFFFFFFFFFFFFFFFFFFFFFFFFFFFFFFFFF NOT AND EQ SWAP2 POP POP PUSH2 0x287A JUMP JUMPDEST PUSH1 0x1 SWAP1 POP JUMPDEST SWAP5 SWAP4 POP POP POP POP JUMP JUMPDEST PUSH1 0x60 PUSH0 PUSH1 0x1 PUSH2 0x2890 DUP5 PUSH2 0x2CEB JUMP JUMPDEST ADD SWAP1 POP PUSH0 DUP2 PUSH8 0xFFFFFFFFFFFFFFFF DUP2 GT ISZERO PUSH2 0x28AE JUMPI PUSH2 0x28AD PUSH2 0x3585 JUMP JUMPDEST JUMPDEST PUSH1 0x40 MLOAD SWAP1 DUP1 DUP3 MSTORE DUP1 PUSH1 0x1F ADD PUSH1 0x1F NOT AND PUSH1 0x20 ADD DUP3 ADD PUSH1 0x40 MSTORE DUP1 ISZERO PUSH2 0x28E0 JUMPI DUP2 PUSH1 0x20 ADD PUSH1 0x1 DUP3 MUL DUP1 CALLDATASIZE DUP4 CALLDATACOPY DUP1 DUP3 ADD SWAP2 POP POP SWAP1 POP JUMPDEST POP SWAP1 POP PUSH0 DUP3 PUSH1 0x20 ADD DUP3 ADD SWAP1 POP JUMPDEST PUSH1 0x1 ISZERO PUSH2 0x2941 JUMPI DUP1 DUP1 PUSH1 0x1 SWAP1 SUB SWAP2 POP POP PUSH32 0x3031323334353637383961626364656600000000000000000000000000000000 PUSH1 0xA DUP7 MOD BYTE DUP2 MSTORE8 PUSH1 0xA DUP6 DUP2 PUSH2 0x2936 JUMPI PUSH2 0x2935 PUSH2 0x4A5A JUMP JUMPDEST JUMPDEST DIV SWAP5 POP PUSH0 DUP6 SUB PUSH2 0x28ED JUMPI JUMPDEST DUP2 SWAP4 POP POP POP POP SWAP2 SWAP1 POP JUMP JUMPDEST PUSH2 0x2965 DUP3 DUP3 PUSH1 0x40 MLOAD DUP1 PUSH1 0x20 ADD PUSH1 0x40 MSTORE DUP1 PUSH0 DUP2 MSTORE POP PUSH2 0x2E3C JUMP JUMPDEST POP POP JUMP JUMPDEST PUSH2 0x2972 DUP3 PUSH2 0x24B8 JUMP JUMPDEST PUSH2 0x29B1 JUMPI PUSH1 0x40 MLOAD PUSH32 0x8C379A000000000000000000000000000000000000000000000000000000000 DUP2 MSTORE PUSH1 0x4 ADD PUSH2 0x29A8 SWAP1 PUSH2 0x4AF7 JUMP JUMPDEST PUSH1 0x40 MLOAD DUP1 SWAP2 SUB SWAP1 REVERT JUMPDEST DUP1 PUSH1 0x6 PUSH0 DUP5 DUP2 MSTORE PUSH1 0x20 ADD SWAP1 DUP2 MSTORE PUSH1 0x20 ADD PUSH0 KECCAK256 SWAP1 DUP2 PUSH2 0x29CF SWAP2 SWAP1 PUSH2 0x414C JUMP JUMPDEST POP PUSH32 0xF8E1A15ABA9398E019F0B49DF1A4FDE98EE17AE345CB5F6B5E2C27F5033E8CE7 DUP3 PUSH1 0x40 MLOAD PUSH2 0x29FF SWAP2 SWAP1 PUSH2 0x3768 JUMP JUMPDEST PUSH1 0x40 MLOAD DUP1 SWAP2 SUB SWAP1 LOG1 POP POP JUMP JUMPDEST PUSH2 0x2A13 PUSH2 0x32BF JUMP JUMPDEST PUSH0 PUSH1 0x20 DUP4 PUSH2 0x2A21 SWAP2 SWAP1 PUSH2 0x4B15 JUMP JUMPDEST EQ PUSH2 0x2A4D JUMPI PUSH1 0x20 DUP3 PUSH2 0x2A33 SWAP2 SWAP1 PUSH2 0x4B15 JUMP JUMPDEST PUSH1 0x20 PUSH2 0x2A3F SWAP2 SWAP1 PUSH2 0x499E JUMP JUMPDEST DUP3 PUSH2 0x2A4A SWAP2 SWAP1 PUSH2 0x496B JUMP JUMPDEST SWAP2 POP JUMPDEST DUP2 DUP4 PUSH1 0x20 ADD DUP2 DUP2 MSTORE POP POP PUSH1 0x40 MLOAD DUP1 DUP5 MSTORE PUSH0 DUP2 MSTORE DUP3 DUP2 ADD PUSH1 0x20 ADD DUP2 DUP2 LT ISZERO PUSH2 0x2A72 JUMPI PUSH0 PUSH0 REVERT JUMPDEST DUP1 PUSH1 0x40 MSTORE POP POP DUP3 SWAP1 POP SWAP3 SWAP2 POP POP JUMP JUMPDEST PUSH1 0x17 DUP2 PUSH8 0xFFFFFFFFFFFFFFFF AND GT PUSH2 0x2ABB JUMPI PUSH2 0x2AB5 DUP2 PUSH1 0x5 DUP5 PUSH1 0xFF AND SWAP1 SHL PUSH1 0xFF AND OR DUP5 PUSH0 ADD MLOAD PUSH2 0x2C3D SWAP1 SWAP2 SWAP1 PUSH4 0xFFFFFFFF AND JUMP JUMPDEST POP PUSH2 0x2C1C JUMP JUMPDEST PUSH1 0xFF DUP2 PUSH8 0xFFFFFFFFFFFFFFFF AND GT PUSH2 0x2B17 JUMPI PUSH2 0x2AED PUSH1 0x18 PUSH1 0x5 DUP5 PUSH1 0xFF AND SWAP1 SHL OR DUP5 PUSH0 ADD MLOAD PUSH2 0x2C3D SWAP1 SWAP2 SWAP1 PUSH4 0xFFFFFFFF AND JUMP JUMPDEST POP PUSH2 0x2B11 DUP2 PUSH8 0xFFFFFFFFFFFFFFFF AND PUSH1 0x1 DUP6 PUSH0 ADD MLOAD PUSH2 0x2E96 SWAP1 SWAP3 SWAP2 SWAP1 PUSH4 0xFFFFFFFF AND JUMP JUMPDEST POP PUSH2 0x2C1B JUMP JUMPDEST PUSH2 0xFFFF DUP2 PUSH8 0xFFFFFFFFFFFFFFFF AND GT PUSH2 0x2B74 JUMPI PUSH2 0x2B4A PUSH1 0x19 PUSH1 0x5 DUP5 PUSH1 0xFF AND SWAP1 SHL OR DUP5 PUSH0 ADD MLOAD PUSH2 0x2C3D SWAP1 SWAP2 SWAP1 PUSH4 0xFFFFFFFF AND JUMP JUMPDEST POP PUSH2 0x2B6E DUP2 PUSH8 0xFFFFFFFFFFFFFFFF AND PUSH1 0x2 DUP6 PUSH0 ADD MLOAD PUSH2 0x2E96 SWAP1 SWAP3 SWAP2 SWAP1 PUSH4 0xFFFFFFFF AND JUMP JUMPDEST POP PUSH2 0x2C1A JUMP JUMPDEST PUSH4 0xFFFFFFFF DUP2 PUSH8 0xFFFFFFFFFFFFFFFF AND GT PUSH2 0x2BD3 JUMPI PUSH2 0x2BA9 PUSH1 0x1A PUSH1 0x5 DUP5 PUSH1 0xFF AND SWAP1 SHL OR DUP5 PUSH0 ADD MLOAD PUSH2 0x2C3D SWAP1 SWAP2 SWAP1 PUSH4 0xFFFFFFFF AND JUMP JUMPDEST POP PUSH2 0x2BCD DUP2 PUSH8 0xFFFFFFFFFFFFFFFF AND PUSH1 0x4 DUP6 PUSH0 ADD MLOAD PUSH2 0x2E96 SWAP1 SWAP3 SWAP2 SWAP1 PUSH4 0xFFFFFFFF AND JUMP JUMPDEST POP PUSH2 0x2C19 JUMP JUMPDEST PUSH2 0x2BF3 PUSH1 0x1B PUSH1 0x5 DUP5 PUSH1 0xFF AND SWAP1 SHL OR DUP5 PUSH0 ADD MLOAD PUSH2 0x2C3D SWAP1 SWAP2 SWAP1 PUSH4 0xFFFFFFFF AND JUMP JUMPDEST POP PUSH2 0x2C17 DUP2 PUSH8 0xFFFFFFFFFFFFFFFF AND PUSH1 0x8 DUP6 PUSH0 ADD MLOAD PUSH2 0x2E96 SWAP1 SWAP3 SWAP2 SWAP1 PUSH4 0xFFFFFFFF AND JUMP JUMPDEST POP JUMPDEST JUMPDEST JUMPDEST JUMPDEST POP POP POP JUMP JUMPDEST PUSH2 0x2C29 PUSH2 0x32BF JUMP JUMPDEST PUSH2 0x2C35 DUP4 DUP4 DUP5 MLOAD PUSH2 0x2F1F JUMP JUMPDEST SWAP1 POP SWAP3 SWAP2 POP POP JUMP JUMPDEST PUSH2 0x2C45 PUSH2 0x32BF JUMP JUMPDEST PUSH0 DUP4 PUSH0 ADD MLOAD MLOAD SWAP1 POP PUSH0 PUSH1 0x1 DUP3 PUSH2 0x2C5B SWAP2 SWAP1 PUSH2 0x496B JUMP JUMPDEST SWAP1 POP DUP5 PUSH1 0x20 ADD MLOAD DUP3 LT PUSH2 0x2C7F JUMPI PUSH2 0x2C7E DUP6 PUSH1 0x2 DUP4 PUSH2 0x2C79 SWAP2 SWAP1 PUSH2 0x4B45 JUMP JUMPDEST PUSH2 0x2FFC JUMP JUMPDEST JUMPDEST DUP5 MLOAD PUSH1 0x20 DUP4 DUP3 ADD ADD DUP6 DUP2 MSTORE8 DUP2 MLOAD DUP4 GT ISZERO PUSH2 0x2C97 JUMPI DUP3 DUP3 MSTORE JUMPDEST POP POP DUP5 SWAP3 POP POP POP SWAP3 SWAP2 POP POP JUMP JUMPDEST PUSH2 0x2CC4 PUSH1 0x1F PUSH1 0x5 DUP4 PUSH1 0xFF AND SWAP1 SHL OR DUP4 PUSH0 ADD MLOAD PUSH2 0x2C3D SWAP1 SWAP2 SWAP1 PUSH4 0xFFFFFFFF AND JUMP JUMPDEST POP POP POP JUMP JUMPDEST PUSH0 PUSH0 DUP3 PUSH20 0xFFFFFFFFFFFFFFFFFFFFFFFFFFFFFFFFFFFFFFFF AND EXTCODESIZE GT SWAP1 POP SWAP2 SWAP1 POP JUMP JUMPDEST PUSH0 PUSH0 PUSH0 SWAP1 POP PUSH27 0x184F03E93FF9F4DAA797ED6E38ED64BF6A1F010000000000000000 DUP4 LT PUSH2 0x2D47 JUMPI PUSH27 0x184F03E93FF9F4DAA797ED6E38ED64BF6A1F010000000000000000 DUP4 DUP2 PUSH2 0x2D3D JUMPI PUSH2 0x2D3C PUSH2 0x4A5A JUMP JUMPDEST JUMPDEST DIV SWAP3 POP PUSH1 0x40 DUP2 ADD SWAP1 POP JUMPDEST PUSH14 0x4EE2D6D415B85ACEF8100000000 DUP4 LT PUSH2 0x2D84 JUMPI PUSH14 0x4EE2D6D415B85ACEF8100000000 DUP4 DUP2 PUSH2 0x2D7A JUMPI PUSH2 0x2D79 PUSH2 0x4A5A JUMP JUMPDEST JUMPDEST DIV SWAP3 POP PUSH1 0x20 DUP2 ADD SWAP1 POP JUMPDEST PUSH7 0x2386F26FC10000 DUP4 LT PUSH2 0x2DB3 JUMPI PUSH7 0x2386F26FC10000 DUP4 DUP2 PUSH2 0x2DA9 JUMPI PUSH2 0x2DA8 PUSH2 0x4A5A JUMP JUMPDEST JUMPDEST DIV SWAP3 POP PUSH1 0x10 DUP2 ADD SWAP1 POP JUMPDEST PUSH4 0x5F5E100 DUP4 LT PUSH2 0x2DDC JUMPI PUSH4 0x5F5E100 DUP4 DUP2 PUSH2 0x2DD2 JUMPI PUSH2 0x2DD1 PUSH2 0x4A5A JUMP JUMPDEST JUMPDEST DIV SWAP3 POP PUSH1 0x8 DUP2 ADD SWAP1 POP JUMPDEST PUSH2 0x2710 DUP4 LT PUSH2 0x2E01 JUMPI PUSH2 0x2710 DUP4 DUP2 PUSH2 0x2DF7 JUMPI PUSH2 0x2DF6 PUSH2 0x4A5A JUMP JUMPDEST JUMPDEST DIV SWAP3 POP PUSH1 0x4 DUP2 ADD SWAP1 POP JUMPDEST PUSH1 0x64 DUP4 LT PUSH2 0x2E24 JUMPI PUSH1 0x64 DUP4 DUP2 PUSH2 0x2E1A JUMPI PUSH2 0x2E19 PUSH2 0x4A5A JUMP JUMPDEST JUMPDEST DIV SWAP3 POP PUSH1 0x2 DUP2 ADD SWAP1 POP JUMPDEST PUSH1 0xA DUP4 LT PUSH2 0x2E33 JUMPI PUSH1 0x1 DUP2 ADD SWAP1 POP JUMPDEST DUP1 SWAP2 POP POP SWAP2 SWAP1 POP JUMP JUMPDEST PUSH2 0x2E46 DUP4 DUP4 PUSH2 0x301E JUMP JUMPDEST PUSH2 0x2E52 PUSH0 DUP5 DUP5 DUP5 PUSH2 0x2700 JUMP JUMPDEST PUSH2 0x2E91 JUMPI PUSH1 0x40 MLOAD PUSH32 0x8C379A000000000000000000000000000000000000000000000000000000000 DUP2 MSTORE PUSH1 0x4 ADD PUSH2 0x2E88 SWAP1 PUSH2 0x48D9 JUMP JUMPDEST PUSH1 0x40 MLOAD DUP1 SWAP2 SUB SWAP1 REVERT JUMPDEST POP POP POP JUMP JUMPDEST PUSH2 0x2E9E PUSH2 0x32BF JUMP JUMPDEST PUSH0 DUP5 PUSH0 ADD MLOAD MLOAD SWAP1 POP PUSH0 DUP2 DUP5 PUSH2 0x2EB3 SWAP2 SWAP1 PUSH2 0x496B JUMP JUMPDEST SWAP1 POP DUP6 PUSH1 0x20 ADD MLOAD DUP2 GT ISZERO PUSH2 0x2ED8 JUMPI PUSH2 0x2ED7 DUP7 PUSH1 0x2 DUP4 PUSH2 0x2ED2 SWAP2 SWAP1 PUSH2 0x4B45 JUMP JUMPDEST PUSH2 0x2FFC JUMP JUMPDEST JUMPDEST PUSH0 PUSH1 0x1 DUP6 PUSH2 0x100 PUSH2 0x2EE9 SWAP2 SWAP1 PUSH2 0x4CB5 JUMP JUMPDEST PUSH2 0x2EF3 SWAP2 SWAP1 PUSH2 0x499E JUMP JUMPDEST SWAP1 POP DUP7 MLOAD DUP3 DUP2 ADD DUP8 DUP4 NOT DUP3 MLOAD AND OR DUP2 MSTORE DUP2 MLOAD DUP5 GT ISZERO PUSH2 0x2F10 JUMPI DUP4 DUP3 MSTORE JUMPDEST POP POP DUP7 SWAP4 POP POP POP POP SWAP4 SWAP3 POP POP POP JUMP JUMPDEST PUSH2 0x2F27 PUSH2 0x32BF JUMP JUMPDEST DUP3 MLOAD DUP3 GT ISZERO PUSH2 0x2F34 JUMPI PUSH0 PUSH0 REVERT JUMPDEST PUSH0 DUP5 PUSH0 ADD MLOAD MLOAD SWAP1 POP PUSH0 DUP4 DUP3 PUSH2 0x2F49 SWAP2 SWAP1 PUSH2 0x496B JUMP JUMPDEST SWAP1 POP DUP6 PUSH1 0x20 ADD MLOAD DUP2 GT ISZERO PUSH2 0x2F6E JUMPI PUSH2 0x2F6D DUP7 PUSH1 0x2 DUP4 PUSH2 0x2F68 SWAP2 SWAP1 PUSH2 0x4B45 JUMP JUMPDEST PUSH2 0x2FFC JUMP JUMPDEST JUMPDEST PUSH0 PUSH0 DUP8 MLOAD DUP1 MLOAD DUP6 PUSH1 0x20 DUP4 ADD ADD SWAP4 POP DUP1 DUP6 GT ISZERO PUSH2 0x2F88 JUMPI DUP5 DUP3 MSTORE JUMPDEST PUSH1 0x20 DUP10 ADD SWAP3 POP POP POP JUMPDEST PUSH1 0x20 DUP7 LT PUSH2 0x2FCF JUMPI DUP1 MLOAD DUP3 MSTORE PUSH1 0x20 DUP3 PUSH2 0x2FAA SWAP2 SWAP1 PUSH2 0x496B JUMP JUMPDEST SWAP2 POP PUSH1 0x20 DUP2 PUSH2 0x2FB9 SWAP2 SWAP1 PUSH2 0x496B JUMP JUMPDEST SWAP1 POP PUSH1 0x20 DUP7 PUSH2 0x2FC8 SWAP2 SWAP1 PUSH2 0x499E JUMP JUMPDEST SWAP6 POP PUSH2 0x2F91 JUMP JUMPDEST PUSH0 PUSH1 0x1 DUP8 PUSH1 0x20 SUB PUSH2 0x100 EXP SUB SWAP1 POP DUP1 NOT DUP3 MLOAD AND DUP2 DUP5 MLOAD AND DUP2 DUP2 OR DUP6 MSTORE POP POP POP DUP8 SWAP5 POP POP POP POP POP SWAP4 SWAP3 POP POP POP JUMP JUMPDEST PUSH0 DUP3 PUSH0 ADD MLOAD SWAP1 POP PUSH2 0x300D DUP4 DUP4 PUSH2 0x2A0B JUMP JUMPDEST POP PUSH2 0x3018 DUP4 DUP3 PUSH2 0x2C21 JUMP JUMPDEST POP POP POP POP JUMP JUMPDEST PUSH0 PUSH20 0xFFFFFFFFFFFFFFFFFFFFFFFFFFFFFFFFFFFFFFFF AND DUP3 PUSH20 0xFFFFFFFFFFFFFFFFFFFFFFFFFFFFFFFFFFFFFFFF AND SUB PUSH2 0x308C JUMPI PUSH1 0x40 MLOAD PUSH32 0x8C379A000000000000000000000000000000000000000000000000000000000 DUP2 MSTORE PUSH1 0x4 ADD PUSH2 0x3083 SWAP1 PUSH2 0x4D49 JUMP JUMPDEST PUSH1 0x40 MLOAD DUP1 SWAP2 SUB SWAP1 REVERT JUMPDEST PUSH2 0x3095 DUP2 PUSH2 0x24B8 JUMP JUMPDEST ISZERO PUSH2 0x30D5 JUMPI PUSH1 0x40 MLOAD PUSH32 0x8C379A000000000000000000000000000000000000000000000000000000000 DUP2 MSTORE PUSH1 0x4 ADD PUSH2 0x30CC SWAP1 PUSH2 0x4DB1 JUMP JUMPDEST PUSH1 0x40 MLOAD DUP1 SWAP2 SUB SWAP1 REVERT JUMPDEST PUSH2 0x30E2 PUSH0 DUP4 DUP4 PUSH1 0x1 PUSH2 0x252B JUMP JUMPDEST PUSH2 0x30EB DUP2 PUSH2 0x24B8 JUMP JUMPDEST ISZERO PUSH2 0x312B JUMPI PUSH1 0x40 MLOAD PUSH32 0x8C379A000000000000000000000000000000000000000000000000000000000 DUP2 MSTORE PUSH1 0x4 ADD PUSH2 0x3122 SWAP1 PUSH2 0x4DB1 JUMP JUMPDEST PUSH1 0x40 MLOAD DUP1 SWAP2 SUB SWAP1 REVERT JUMPDEST PUSH1 0x1 PUSH1 0x3 PUSH0 DUP5 PUSH20 0xFFFFFFFFFFFFFFFFFFFFFFFFFFFFFFFFFFFFFFFF AND PUSH20 0xFFFFFFFFFFFFFFFFFFFFFFFFFFFFFFFFFFFFFFFF AND DUP2 MSTORE PUSH1 0x20 ADD SWAP1 DUP2 MSTORE PUSH1 0x20 ADD PUSH0 KECCAK256 PUSH0 DUP3 DUP3 SLOAD ADD SWAP3 POP POP DUP2 SWAP1 SSTORE POP DUP2 PUSH1 0x2 PUSH0 DUP4 DUP2 MSTORE PUSH1 0x20 ADD SWAP1 DUP2 MSTORE PUSH1 0x20 ADD PUSH0 KECCAK256 PUSH0 PUSH2 0x100 EXP DUP2 SLOAD DUP2 PUSH20 0xFFFFFFFFFFFFFFFFFFFFFFFFFFFFFFFFFFFFFFFF MUL NOT AND SWAP1 DUP4 PUSH20 0xFFFFFFFFFFFFFFFFFFFFFFFFFFFFFFFFFFFFFFFF AND MUL OR SWAP1 SSTORE POP DUP1 DUP3 PUSH20 0xFFFFFFFFFFFFFFFFFFFFFFFFFFFFFFFFFFFFFFFF AND PUSH0 PUSH20 0xFFFFFFFFFFFFFFFFFFFFFFFFFFFFFFFFFFFFFFFF AND PUSH32 0xDDF252AD1BE2C89B69C2B068FC378DAA952BA7F163C4A11628F55A4DF523B3EF PUSH1 0x40 MLOAD PUSH1 0x40 MLOAD DUP1 SWAP2 SUB SWAP1 LOG4 PUSH2 0x322D PUSH0 DUP4 DUP4 PUSH1 0x1 PUSH2 0x2531 JUMP JUMPDEST POP POP JUMP JUMPDEST PUSH1 0x40 MLOAD DUP1 PUSH1 0xE0 ADD PUSH1 0x40 MSTORE DUP1 PUSH0 PUSH1 0x2 DUP2 GT ISZERO PUSH2 0x324F JUMPI PUSH2 0x324E PUSH2 0x4712 JUMP JUMPDEST JUMPDEST DUP2 MSTORE PUSH1 0x20 ADD PUSH0 PUSH1 0x2 DUP2 GT ISZERO PUSH2 0x3267 JUMPI PUSH2 0x3266 PUSH2 0x4712 JUMP JUMPDEST JUMPDEST DUP2 MSTORE PUSH1 0x20 ADD PUSH0 PUSH0 DUP2 GT ISZERO PUSH2 0x327E JUMPI PUSH2 0x327D PUSH2 0x4712 JUMP JUMPDEST JUMPDEST DUP2 MSTORE PUSH1 0x20 ADD PUSH1 0x60 DUP2 MSTORE PUSH1 0x20 ADD PUSH1 0x60 DUP2 MSTORE PUSH1 0x20 ADD PUSH1 0x60 DUP2 MSTORE PUSH1 0x20 ADD PUSH1 0x60 DUP2 MSTORE POP SWAP1 JUMP JUMPDEST PUSH1 0x40 MLOAD DUP1 PUSH1 0x40 ADD PUSH1 0x40 MSTORE DUP1 PUSH2 0x32B3 PUSH2 0x32BF JUMP JUMPDEST DUP2 MSTORE PUSH1 0x20 ADD PUSH0 DUP2 MSTORE POP SWAP1 JUMP JUMPDEST PUSH1 0x40 MLOAD DUP1 PUSH1 0x40 ADD PUSH1 0x40 MSTORE DUP1 PUSH1 0x60 DUP2 MSTORE PUSH1 0x20 ADD PUSH0 DUP2 MSTORE POP SWAP1 JUMP JUMPDEST PUSH0 PUSH1 0x40 MLOAD SWAP1 POP SWAP1 JUMP JUMPDEST PUSH0 PUSH0 REVERT JUMPDEST PUSH0 PUSH0 REVERT JUMPDEST PUSH0 PUSH32 0xFFFFFFFF00000000000000000000000000000000000000000000000000000000 DUP3 AND SWAP1 POP SWAP2 SWAP1 POP JUMP JUMPDEST PUSH2 0x331D DUP2 PUSH2 0x32E9 JUMP JUMPDEST DUP2 EQ PUSH2 0x3327 JUMPI PUSH0 PUSH0 REVERT JUMPDEST POP JUMP JUMPDEST PUSH0 DUP2 CALLDATALOAD SWAP1 POP PUSH2 0x3338 DUP2 PUSH2 0x3314 JUMP JUMPDEST SWAP3 SWAP2 POP POP JUMP JUMPDEST PUSH0 PUSH1 0x20 DUP3 DUP5 SUB SLT ISZERO PUSH2 0x3353 JUMPI PUSH2 0x3352 PUSH2 0x32E1 JUMP JUMPDEST JUMPDEST PUSH0 PUSH2 0x3360 DUP5 DUP3 DUP6 ADD PUSH2 0x332A JUMP JUMPDEST SWAP2 POP POP SWAP3 SWAP2 POP POP JUMP JUMPDEST PUSH0 DUP2 ISZERO ISZERO SWAP1 POP SWAP2 SWAP1 POP JUMP JUMPDEST PUSH2 0x337D DUP2 PUSH2 0x3369 JUMP JUMPDEST DUP3 MSTORE POP POP JUMP JUMPDEST PUSH0 PUSH1 0x20 DUP3 ADD SWAP1 POP PUSH2 0x3396 PUSH0 DUP4 ADD DUP5 PUSH2 0x3374 JUMP JUMPDEST SWAP3 SWAP2 POP POP JUMP JUMPDEST PUSH0 DUP2 MLOAD SWAP1 POP SWAP2 SWAP1 POP JUMP JUMPDEST PUSH0 DUP3 DUP3 MSTORE PUSH1 0x20 DUP3 ADD SWAP1 POP SWAP3 SWAP2 POP POP JUMP JUMPDEST DUP3 DUP2 DUP4 MCOPY PUSH0 DUP4 DUP4 ADD MSTORE POP POP POP JUMP JUMPDEST PUSH0 PUSH1 0x1F NOT PUSH1 0x1F DUP4 ADD AND SWAP1 POP SWAP2 SWAP1 POP JUMP JUMPDEST PUSH0 PUSH2 0x33DE DUP3 PUSH2 0x339C JUMP JUMPDEST PUSH2 0x33E8 DUP2 DUP6 PUSH2 0x33A6 JUMP JUMPDEST SWAP4 POP PUSH2 0x33F8 DUP2 DUP6 PUSH1 0x20 DUP7 ADD PUSH2 0x33B6 JUMP JUMPDEST PUSH2 0x3401 DUP2 PUSH2 0x33C4 JUMP JUMPDEST DUP5 ADD SWAP2 POP POP SWAP3 SWAP2 POP POP JUMP JUMPDEST PUSH0 PUSH1 0x20 DUP3 ADD SWAP1 POP DUP2 DUP2 SUB PUSH0 DUP4 ADD MSTORE PUSH2 0x3424 DUP2 DUP5 PUSH2 0x33D4 JUMP JUMPDEST SWAP1 POP SWAP3 SWAP2 POP POP JUMP JUMPDEST PUSH0 DUP2 SWAP1 POP SWAP2 SWAP1 POP JUMP JUMPDEST PUSH2 0x343E DUP2 PUSH2 0x342C JUMP JUMPDEST DUP2 EQ PUSH2 0x3448 JUMPI PUSH0 PUSH0 REVERT JUMPDEST POP JUMP JUMPDEST PUSH0 DUP2 CALLDATALOAD SWAP1 POP PUSH2 0x3459 DUP2 PUSH2 0x3435 JUMP JUMPDEST SWAP3 SWAP2 POP POP JUMP JUMPDEST PUSH0 PUSH1 0x20 DUP3 DUP5 SUB SLT ISZERO PUSH2 0x3474 JUMPI PUSH2 0x3473 PUSH2 0x32E1 JUMP JUMPDEST JUMPDEST PUSH0 PUSH2 0x3481 DUP5 DUP3 DUP6 ADD PUSH2 0x344B JUMP JUMPDEST SWAP2 POP POP SWAP3 SWAP2 POP POP JUMP JUMPDEST PUSH0 PUSH20 0xFFFFFFFFFFFFFFFFFFFFFFFFFFFFFFFFFFFFFFFF DUP3 AND SWAP1 POP SWAP2 SWAP1 POP JUMP JUMPDEST PUSH0 PUSH2 0x34B3 DUP3 PUSH2 0x348A JUMP JUMPDEST SWAP1 POP SWAP2 SWAP1 POP JUMP JUMPDEST PUSH2 0x34C3 DUP2 PUSH2 0x34A9 JUMP JUMPDEST DUP3 MSTORE POP POP JUMP JUMPDEST PUSH0 PUSH1 0x20 DUP3 ADD SWAP1 POP PUSH2 0x34DC PUSH0 DUP4 ADD DUP5 PUSH2 0x34BA JUMP JUMPDEST SWAP3 SWAP2 POP POP JUMP JUMPDEST PUSH2 0x34EB DUP2 PUSH2 0x34A9 JUMP JUMPDEST DUP2 EQ PUSH2 0x34F5 JUMPI PUSH0 PUSH0 REVERT JUMPDEST POP JUMP JUMPDEST PUSH0 DUP2 CALLDATALOAD SWAP1 POP PUSH2 0x3506 DUP2 PUSH2 0x34E2 JUMP JUMPDEST SWAP3 SWAP2 POP POP JUMP JUMPDEST PUSH0 PUSH0 PUSH1 0x40 DUP4 DUP6 SUB SLT ISZERO PUSH2 0x3522 JUMPI PUSH2 0x3521 PUSH2 0x32E1 JUMP JUMPDEST JUMPDEST PUSH0 PUSH2 0x352F DUP6 DUP3 DUP7 ADD PUSH2 0x34F8 JUMP JUMPDEST SWAP3 POP POP PUSH1 0x20 PUSH2 0x3540 DUP6 DUP3 DUP7 ADD PUSH2 0x344B JUMP JUMPDEST SWAP2 POP POP SWAP3 POP SWAP3 SWAP1 POP JUMP JUMPDEST PUSH0 DUP2 SWAP1 POP SWAP2 SWAP1 POP JUMP JUMPDEST PUSH2 0x355C DUP2 PUSH2 0x354A JUMP JUMPDEST DUP2 EQ PUSH2 0x3566 JUMPI PUSH0 PUSH0 REVERT JUMPDEST POP JUMP JUMPDEST PUSH0 DUP2 CALLDATALOAD SWAP1 POP PUSH2 0x3577 DUP2 PUSH2 0x3553 JUMP JUMPDEST SWAP3 SWAP2 POP POP JUMP JUMPDEST PUSH0 PUSH0 REVERT JUMPDEST PUSH0 PUSH0 REVERT JUMPDEST PUSH32 0x4E487B7100000000000000000000000000000000000000000000000000000000 PUSH0 MSTORE PUSH1 0x41 PUSH1 0x4 MSTORE PUSH1 0x24 PUSH0 REVERT JUMPDEST PUSH2 0x35BB DUP3 PUSH2 0x33C4 JUMP JUMPDEST DUP2 ADD DUP2 DUP2 LT PUSH8 0xFFFFFFFFFFFFFFFF DUP3 GT OR ISZERO PUSH2 0x35DA JUMPI PUSH2 0x35D9 PUSH2 0x3585 JUMP JUMPDEST JUMPDEST DUP1 PUSH1 0x40 MSTORE POP POP POP JUMP JUMPDEST PUSH0 PUSH2 0x35EC PUSH2 0x32D8 JUMP JUMPDEST SWAP1 POP PUSH2 0x35F8 DUP3 DUP3 PUSH2 0x35B2 JUMP JUMPDEST SWAP2 SWAP1 POP JUMP JUMPDEST PUSH0 PUSH8 0xFFFFFFFFFFFFFFFF DUP3 GT ISZERO PUSH2 0x3617 JUMPI PUSH2 0x3616 PUSH2 0x3585 JUMP JUMPDEST JUMPDEST PUSH2 0x3620 DUP3 PUSH2 0x33C4 JUMP JUMPDEST SWAP1 POP PUSH1 0x20 DUP2 ADD SWAP1 POP SWAP2 SWAP1 POP JUMP JUMPDEST DUP3 DUP2 DUP4 CALLDATACOPY PUSH0 DUP4 DUP4 ADD MSTORE POP POP POP JUMP JUMPDEST PUSH0 PUSH2 0x364D PUSH2 0x3648 DUP5 PUSH2 0x35FD JUMP JUMPDEST PUSH2 0x35E3 JUMP JUMPDEST SWAP1 POP DUP3 DUP2 MSTORE PUSH1 0x20 DUP2 ADD DUP5 DUP5 DUP5 ADD GT ISZERO PUSH2 0x3669 JUMPI PUSH2 0x3668 PUSH2 0x3581 JUMP JUMPDEST JUMPDEST PUSH2 0x3674 DUP5 DUP3 DUP6 PUSH2 0x362D JUMP JUMPDEST POP SWAP4 SWAP3 POP POP POP JUMP JUMPDEST PUSH0 DUP3 PUSH1 0x1F DUP4 ADD SLT PUSH2 0x3690 JUMPI PUSH2 0x368F PUSH2 0x357D JUMP JUMPDEST JUMPDEST DUP2 CALLDATALOAD PUSH2 0x36A0 DUP5 DUP3 PUSH1 0x20 DUP7 ADD PUSH2 0x363B JUMP JUMPDEST SWAP2 POP POP SWAP3 SWAP2 POP POP JUMP JUMPDEST PUSH0 PUSH0 PUSH0 PUSH1 0x60 DUP5 DUP7 SUB SLT ISZERO PUSH2 0x36C0 JUMPI PUSH2 0x36BF PUSH2 0x32E1 JUMP JUMPDEST JUMPDEST PUSH0 PUSH2 0x36CD DUP7 DUP3 DUP8 ADD PUSH2 0x3569 JUMP JUMPDEST SWAP4 POP POP PUSH1 0x20 DUP5 ADD CALLDATALOAD PUSH8 0xFFFFFFFFFFFFFFFF DUP2 GT ISZERO PUSH2 0x36EE JUMPI PUSH2 0x36ED PUSH2 0x32E5 JUMP JUMPDEST JUMPDEST PUSH2 0x36FA DUP7 DUP3 DUP8 ADD PUSH2 0x367C JUMP JUMPDEST SWAP3 POP POP PUSH1 0x40 DUP5 ADD CALLDATALOAD PUSH8 0xFFFFFFFFFFFFFFFF DUP2 GT ISZERO PUSH2 0x371B JUMPI PUSH2 0x371A PUSH2 0x32E5 JUMP JUMPDEST JUMPDEST PUSH2 0x3727 DUP7 DUP3 DUP8 ADD PUSH2 0x367C JUMP JUMPDEST SWAP2 POP POP SWAP3 POP SWAP3 POP SWAP3 JUMP JUMPDEST PUSH2 0x373A DUP2 PUSH2 0x354A JUMP JUMPDEST DUP3 MSTORE POP POP JUMP JUMPDEST PUSH0 PUSH1 0x20 DUP3 ADD SWAP1 POP PUSH2 0x3753 PUSH0 DUP4 ADD DUP5 PUSH2 0x3731 JUMP JUMPDEST SWAP3 SWAP2 POP POP JUMP JUMPDEST PUSH2 0x3762 DUP2 PUSH2 0x342C JUMP JUMPDEST DUP3 MSTORE POP POP JUMP JUMPDEST PUSH0 PUSH1 0x20 DUP3 ADD SWAP1 POP PUSH2 0x377B PUSH0 DUP4 ADD DUP5 PUSH2 0x3759 JUMP JUMPDEST SWAP3 SWAP2 POP POP JUMP JUMPDEST PUSH0 PUSH0 PUSH0 PUSH1 0x60 DUP5 DUP7 SUB SLT ISZERO PUSH2 0x3798 JUMPI PUSH2 0x3797 PUSH2 0x32E1 JUMP JUMPDEST JUMPDEST PUSH0 PUSH2 0x37A5 DUP7 DUP3 DUP8 ADD PUSH2 0x34F8 JUMP JUMPDEST SWAP4 POP POP PUSH1 0x20 PUSH2 0x37B6 DUP7 DUP3 DUP8 ADD PUSH2 0x34F8 JUMP JUMPDEST SWAP3 POP POP PUSH1 0x40 PUSH2 0x37C7 DUP7 DUP3 DUP8 ADD PUSH2 0x344B JUMP JUMPDEST SWAP2 POP POP SWAP3 POP SWAP3 POP SWAP3 JUMP JUMPDEST PUSH0 PUSH8 0xFFFFFFFFFFFFFFFF DUP3 GT ISZERO PUSH2 0x37EB JUMPI PUSH2 0x37EA PUSH2 0x3585 JUMP JUMPDEST JUMPDEST PUSH2 0x37F4 DUP3 PUSH2 0x33C4 JUMP JUMPDEST SWAP1 POP PUSH1 0x20 DUP2 ADD SWAP1 POP SWAP2 SWAP1 POP JUMP JUMPDEST PUSH0 PUSH2 0x3813 PUSH2 0x380E DUP5 PUSH2 0x37D1 JUMP JUMPDEST PUSH2 0x35E3 JUMP JUMPDEST SWAP1 POP DUP3 DUP2 MSTORE PUSH1 0x20 DUP2 ADD DUP5 DUP5 DUP5 ADD GT ISZERO PUSH2 0x382F JUMPI PUSH2 0x382E PUSH2 0x3581 JUMP JUMPDEST JUMPDEST PUSH2 0x383A DUP5 DUP3 DUP6 PUSH2 0x362D JUMP JUMPDEST POP SWAP4 SWAP3 POP POP POP JUMP JUMPDEST PUSH0 DUP3 PUSH1 0x1F DUP4 ADD SLT PUSH2 0x3856 JUMPI PUSH2 0x3855 PUSH2 0x357D JUMP JUMPDEST JUMPDEST DUP2 CALLDATALOAD PUSH2 0x3866 DUP5 DUP3 PUSH1 0x20 DUP7 ADD PUSH2 0x3801 JUMP JUMPDEST SWAP2 POP POP SWAP3 SWAP2 POP POP JUMP JUMPDEST PUSH0 PUSH0 PUSH1 0x40 DUP4 DUP6 SUB SLT ISZERO PUSH2 0x3885 JUMPI PUSH2 0x3884 PUSH2 0x32E1 JUMP JUMPDEST JUMPDEST PUSH0 DUP4 ADD CALLDATALOAD PUSH8 0xFFFFFFFFFFFFFFFF DUP2 GT ISZERO PUSH2 0x38A2 JUMPI PUSH2 0x38A1 PUSH2 0x32E5 JUMP JUMPDEST JUMPDEST PUSH2 0x38AE DUP6 DUP3 DUP7 ADD PUSH2 0x3842 JUMP JUMPDEST SWAP3 POP POP PUSH1 0x20 DUP4 ADD CALLDATALOAD PUSH8 0xFFFFFFFFFFFFFFFF DUP2 GT ISZERO PUSH2 0x38CF JUMPI PUSH2 0x38CE PUSH2 0x32E5 JUMP JUMPDEST JUMPDEST PUSH2 0x38DB DUP6 DUP3 DUP7 ADD PUSH2 0x3842 JUMP JUMPDEST SWAP2 POP POP SWAP3 POP SWAP3 SWAP1 POP JUMP JUMPDEST PUSH0 PUSH1 0x20 DUP3 DUP5 SUB SLT ISZERO PUSH2 0x38FA JUMPI PUSH2 0x38F9 PUSH2 0x32E1 JUMP JUMPDEST JUMPDEST PUSH0 PUSH2 0x3907 DUP5 DUP3 DUP6 ADD PUSH2 0x34F8 JUMP JUMPDEST SWAP2 POP POP SWAP3 SWAP2 POP POP JUMP JUMPDEST PUSH0 PUSH4 0xFFFFFFFF DUP3 AND SWAP1 POP SWAP2 SWAP1 POP JUMP JUMPDEST PUSH2 0x3928 DUP2 PUSH2 0x3910 JUMP JUMPDEST DUP3 MSTORE POP POP JUMP JUMPDEST PUSH0 PUSH1 0x20 DUP3 ADD SWAP1 POP PUSH2 0x3941 PUSH0 DUP4 ADD DUP5 PUSH2 0x391F JUMP JUMPDEST SWAP3 SWAP2 POP POP JUMP JUMPDEST PUSH0 DUP2 MLOAD SWAP1 POP SWAP2 SWAP1 POP JUMP JUMPDEST PUSH0 DUP3 DUP3 MSTORE PUSH1 0x20 DUP3 ADD SWAP1 POP SWAP3 SWAP2 POP POP JUMP JUMPDEST PUSH0 PUSH2 0x396B DUP3 PUSH2 0x3947 JUMP JUMPDEST PUSH2 0x3975 DUP2 DUP6 PUSH2 0x3951 JUMP JUMPDEST SWAP4 POP PUSH2 0x3985 DUP2 DUP6 PUSH1 0x20 DUP7 ADD PUSH2 0x33B6 JUMP JUMPDEST PUSH2 0x398E DUP2 PUSH2 0x33C4 JUMP JUMPDEST DUP5 ADD SWAP2 POP POP SWAP3 SWAP2 POP POP JUMP JUMPDEST PUSH0 PUSH1 0x20 DUP3 ADD SWAP1 POP DUP2 DUP2 SUB PUSH0 DUP4 ADD MSTORE PUSH2 0x39B1 DUP2 DUP5 PUSH2 0x3961 JUMP JUMPDEST SWAP1 POP SWAP3 SWAP2 POP POP JUMP JUMPDEST PUSH0 PUSH1 0xFF DUP3 AND SWAP1 POP SWAP2 SWAP1 POP JUMP JUMPDEST PUSH2 0x39CE DUP2 PUSH2 0x39B9 JUMP JUMPDEST DUP2 EQ PUSH2 0x39D8 JUMPI PUSH0 PUSH0 REVERT JUMPDEST POP JUMP JUMPDEST PUSH0 DUP2 CALLDATALOAD SWAP1 POP PUSH2 0x39E9 DUP2 PUSH2 0x39C5 JUMP JUMPDEST SWAP3 SWAP2 POP POP JUMP JUMPDEST PUSH0 PUSH8 0xFFFFFFFFFFFFFFFF DUP3 AND SWAP1 POP SWAP2 SWAP1 POP JUMP JUMPDEST PUSH2 0x3A0B DUP2 PUSH2 0x39EF JUMP JUMPDEST DUP2 EQ PUSH2 0x3A15 JUMPI PUSH0 PUSH0 REVERT JUMPDEST POP JUMP JUMPDEST PUSH0 DUP2 CALLDATALOAD SWAP1 POP PUSH2 0x3A26 DUP2 PUSH2 0x3A02 JUMP JUMPDEST SWAP3 SWAP2 POP POP JUMP JUMPDEST PUSH0 PUSH8 0xFFFFFFFFFFFFFFFF DUP3 GT ISZERO PUSH2 0x3A46 JUMPI PUSH2 0x3A45 PUSH2 0x3585 JUMP JUMPDEST JUMPDEST PUSH1 0x20 DUP3 MUL SWAP1 POP PUSH1 0x20 DUP2 ADD SWAP1 POP SWAP2 SWAP1 POP JUMP JUMPDEST PUSH0 PUSH0 REVERT JUMPDEST PUSH0 PUSH2 0x3A6D PUSH2 0x3A68 DUP5 PUSH2 0x3A2C JUMP JUMPDEST PUSH2 0x35E3 JUMP JUMPDEST SWAP1 POP DUP1 DUP4 DUP3 MSTORE PUSH1 0x20 DUP3 ADD SWAP1 POP PUSH1 0x20 DUP5 MUL DUP4 ADD DUP6 DUP2 GT ISZERO PUSH2 0x3A90 JUMPI PUSH2 0x3A8F PUSH2 0x3A57 JUMP JUMPDEST JUMPDEST DUP4 JUMPDEST DUP2 DUP2 LT ISZERO PUSH2 0x3AD7 JUMPI DUP1 CALLDATALOAD PUSH8 0xFFFFFFFFFFFFFFFF DUP2 GT ISZERO PUSH2 0x3AB5 JUMPI PUSH2 0x3AB4 PUSH2 0x357D JUMP JUMPDEST JUMPDEST DUP1 DUP7 ADD PUSH2 0x3AC2 DUP10 DUP3 PUSH2 0x3842 JUMP JUMPDEST DUP6 MSTORE PUSH1 0x20 DUP6 ADD SWAP5 POP POP POP PUSH1 0x20 DUP2 ADD SWAP1 POP PUSH2 0x3A92 JUMP JUMPDEST POP POP POP SWAP4 SWAP3 POP POP POP JUMP JUMPDEST PUSH0 DUP3 PUSH1 0x1F DUP4 ADD SLT PUSH2 0x3AF5 JUMPI PUSH2 0x3AF4 PUSH2 0x357D JUMP JUMPDEST JUMPDEST DUP2 CALLDATALOAD PUSH2 0x3B05 DUP5 DUP3 PUSH1 0x20 DUP7 ADD PUSH2 0x3A5B JUMP JUMPDEST SWAP2 POP POP SWAP3 SWAP2 POP POP JUMP JUMPDEST PUSH0 PUSH0 PUSH0 PUSH0 PUSH0 PUSH1 0xA0 DUP7 DUP9 SUB SLT ISZERO PUSH2 0x3B27 JUMPI PUSH2 0x3B26 PUSH2 0x32E1 JUMP JUMPDEST JUMPDEST PUSH0 PUSH2 0x3B34 DUP9 DUP3 DUP10 ADD PUSH2 0x39DB JUMP JUMPDEST SWAP6 POP POP PUSH1 0x20 PUSH2 0x3B45 DUP9 DUP3 DUP10 ADD PUSH2 0x3A18 JUMP JUMPDEST SWAP5 POP POP PUSH1 0x40 DUP7 ADD CALLDATALOAD PUSH8 0xFFFFFFFFFFFFFFFF DUP2 GT ISZERO PUSH2 0x3B66 JUMPI PUSH2 0x3B65 PUSH2 0x32E5 JUMP JUMPDEST JUMPDEST PUSH2 0x3B72 DUP9 DUP3 DUP10 ADD PUSH2 0x3AE1 JUMP JUMPDEST SWAP4 POP POP PUSH1 0x60 PUSH2 0x3B83 DUP9 DUP3 DUP10 ADD PUSH2 0x3A18 JUMP JUMPDEST SWAP3 POP POP PUSH1 0x80 PUSH2 0x3B94 DUP9 DUP3 DUP10 ADD PUSH2 0x34F8 JUMP JUMPDEST SWAP2 POP POP SWAP3 SWAP6 POP SWAP3 SWAP6 SWAP1 SWAP4 POP JUMP JUMPDEST PUSH2 0x3BAA DUP2 PUSH2 0x3369 JUMP JUMPDEST DUP2 EQ PUSH2 0x3BB4 JUMPI PUSH0 PUSH0 REVERT JUMPDEST POP JUMP JUMPDEST PUSH0 DUP2 CALLDATALOAD SWAP1 POP PUSH2 0x3BC5 DUP2 PUSH2 0x3BA1 JUMP JUMPDEST SWAP3 SWAP2 POP POP JUMP JUMPDEST PUSH0 PUSH0 PUSH1 0x40 DUP4 DUP6 SUB SLT ISZERO PUSH2 0x3BE1 JUMPI PUSH2 0x3BE0 PUSH2 0x32E1 JUMP JUMPDEST JUMPDEST PUSH0 PUSH2 0x3BEE DUP6 DUP3 DUP7 ADD PUSH2 0x34F8 JUMP JUMPDEST SWAP3 POP POP PUSH1 0x20 PUSH2 0x3BFF DUP6 DUP3 DUP7 ADD PUSH2 0x3BB7 JUMP JUMPDEST SWAP2 POP POP SWAP3 POP SWAP3 SWAP1 POP JUMP JUMPDEST PUSH0 PUSH0 PUSH0 PUSH0 PUSH1 0x80 DUP6 DUP8 SUB SLT ISZERO PUSH2 0x3C21 JUMPI PUSH2 0x3C20 PUSH2 0x32E1 JUMP JUMPDEST JUMPDEST PUSH0 PUSH2 0x3C2E DUP8 DUP3 DUP9 ADD PUSH2 0x34F8 JUMP JUMPDEST SWAP5 POP POP PUSH1 0x20 PUSH2 0x3C3F DUP8 DUP3 DUP9 ADD PUSH2 0x34F8 JUMP JUMPDEST SWAP4 POP POP PUSH1 0x40 PUSH2 0x3C50 DUP8 DUP3 DUP9 ADD PUSH2 0x344B JUMP JUMPDEST SWAP3 POP POP PUSH1 0x60 DUP6 ADD CALLDATALOAD PUSH8 0xFFFFFFFFFFFFFFFF DUP2 GT ISZERO PUSH2 0x3C71 JUMPI PUSH2 0x3C70 PUSH2 0x32E5 JUMP JUMPDEST JUMPDEST PUSH2 0x3C7D DUP8 DUP3 DUP9 ADD PUSH2 0x367C JUMP JUMPDEST SWAP2 POP POP SWAP3 SWAP6 SWAP2 SWAP5 POP SWAP3 POP JUMP JUMPDEST PUSH0 PUSH0 PUSH1 0x40 DUP4 DUP6 SUB SLT ISZERO PUSH2 0x3C9F JUMPI PUSH2 0x3C9E PUSH2 0x32E1 JUMP JUMPDEST JUMPDEST PUSH0 PUSH2 0x3CAC DUP6 DUP3 DUP7 ADD PUSH2 0x34F8 JUMP JUMPDEST SWAP3 POP POP PUSH1 0x20 PUSH2 0x3CBD DUP6 DUP3 DUP7 ADD PUSH2 0x34F8 JUMP JUMPDEST SWAP2 POP POP SWAP3 POP SWAP3 SWAP1 POP JUMP JUMPDEST PUSH32 0x4E487B7100000000000000000000000000000000000000000000000000000000 PUSH0 MSTORE PUSH1 0x22 PUSH1 0x4 MSTORE PUSH1 0x24 PUSH0 REVERT JUMPDEST PUSH0 PUSH1 0x2 DUP3 DIV SWAP1 POP PUSH1 0x1 DUP3 AND DUP1 PUSH2 0x3D0B JUMPI PUSH1 0x7F DUP3 AND SWAP2 POP JUMPDEST PUSH1 0x20 DUP3 LT DUP2 SUB PUSH2 0x3D1E JUMPI PUSH2 0x3D1D PUSH2 0x3CC7 JUMP JUMPDEST JUMPDEST POP SWAP2 SWAP1 POP JUMP JUMPDEST PUSH32 0x4552433732313A20617070726F76616C20746F2063757272656E74206F776E65 PUSH0 DUP3 ADD MSTORE PUSH32 0x7200000000000000000000000000000000000000000000000000000000000000 PUSH1 0x20 DUP3 ADD MSTORE POP JUMP JUMPDEST PUSH0 PUSH2 0x3D7E PUSH1 0x21 DUP4 PUSH2 0x33A6 JUMP JUMPDEST SWAP2 POP PUSH2 0x3D89 DUP3 PUSH2 0x3D24 JUMP JUMPDEST PUSH1 0x40 DUP3 ADD SWAP1 POP SWAP2 SWAP1 POP JUMP JUMPDEST PUSH0 PUSH1 0x20 DUP3 ADD SWAP1 POP DUP2 DUP2 SUB PUSH0 DUP4 ADD MSTORE PUSH2 0x3DAB DUP2 PUSH2 0x3D72 JUMP JUMPDEST SWAP1 POP SWAP2 SWAP1 POP JUMP JUMPDEST PUSH32 0x4552433732313A20617070726F76652063616C6C6572206973206E6F7420746F PUSH0 DUP3 ADD MSTORE PUSH32 0x6B656E206F776E6572206F7220617070726F76656420666F7220616C6C000000 PUSH1 0x20 DUP3 ADD MSTORE POP JUMP JUMPDEST PUSH0 PUSH2 0x3E0C PUSH1 0x3D DUP4 PUSH2 0x33A6 JUMP JUMPDEST SWAP2 POP PUSH2 0x3E17 DUP3 PUSH2 0x3DB2 JUMP JUMPDEST PUSH1 0x40 DUP3 ADD SWAP1 POP SWAP2 SWAP1 POP JUMP JUMPDEST PUSH0 PUSH1 0x20 DUP3 ADD SWAP1 POP DUP2 DUP2 SUB PUSH0 DUP4 ADD MSTORE PUSH2 0x3E39 DUP2 PUSH2 0x3E00 JUMP JUMPDEST SWAP1 POP SWAP2 SWAP1 POP JUMP JUMPDEST PUSH32 0x4552433732313A2063616C6C6572206973206E6F7420746F6B656E206F776E65 PUSH0 DUP3 ADD MSTORE PUSH32 0x72206F7220617070726F76656400000000000000000000000000000000000000 PUSH1 0x20 DUP3 ADD MSTORE POP JUMP JUMPDEST PUSH0 PUSH2 0x3E9A PUSH1 0x2D DUP4 PUSH2 0x33A6 JUMP JUMPDEST SWAP2 POP PUSH2 0x3EA5 DUP3 PUSH2 0x3E40 JUMP JUMPDEST PUSH1 0x40 DUP3 ADD SWAP1 POP SWAP2 SWAP1 POP JUMP JUMPDEST PUSH0 PUSH1 0x20 DUP3 ADD SWAP1 POP DUP2 DUP2 SUB PUSH0 DUP4 ADD MSTORE PUSH2 0x3EC7 DUP2 PUSH2 0x3E8E JUMP JUMPDEST SWAP1 POP SWAP2 SWAP1 POP JUMP JUMPDEST PUSH32 0x796F7520646F206E6F742068617665207065726D697373696F6E20746F206361 PUSH0 DUP3 ADD MSTORE PUSH32 0x6C6C207468652066756E6374696F6E0000000000000000000000000000000000 PUSH1 0x20 DUP3 ADD MSTORE POP JUMP JUMPDEST PUSH0 PUSH2 0x3F28 PUSH1 0x2F DUP4 PUSH2 0x33A6 JUMP JUMPDEST SWAP2 POP PUSH2 0x3F33 DUP3 PUSH2 0x3ECE JUMP JUMPDEST PUSH1 0x40 DUP3 ADD SWAP1 POP SWAP2 SWAP1 POP JUMP JUMPDEST PUSH0 PUSH1 0x20 DUP3 ADD SWAP1 POP DUP2 DUP2 SUB PUSH0 DUP4 ADD MSTORE PUSH2 0x3F55 DUP2 PUSH2 0x3F1C JUMP JUMPDEST SWAP1 POP SWAP2 SWAP1 POP JUMP JUMPDEST PUSH0 DUP2 SWAP1 POP SWAP3 SWAP2 POP POP JUMP JUMPDEST PUSH0 PUSH2 0x3F70 DUP3 PUSH2 0x3947 JUMP JUMPDEST PUSH2 0x3F7A DUP2 DUP6 PUSH2 0x3F5C JUMP JUMPDEST SWAP4 POP PUSH2 0x3F8A DUP2 DUP6 PUSH1 0x20 DUP7 ADD PUSH2 0x33B6 JUMP JUMPDEST DUP1 DUP5 ADD SWAP2 POP POP SWAP3 SWAP2 POP POP JUMP JUMPDEST PUSH0 PUSH2 0x3FA1 DUP3 DUP5 PUSH2 0x3F66 JUMP JUMPDEST SWAP2 POP DUP2 SWAP1 POP SWAP3 SWAP2 POP POP JUMP JUMPDEST PUSH0 DUP2 SWAP1 POP DUP2 PUSH0 MSTORE PUSH1 0x20 PUSH0 KECCAK256 SWAP1 POP SWAP2 SWAP1 POP JUMP JUMPDEST PUSH0 PUSH1 0x20 PUSH1 0x1F DUP4 ADD DIV SWAP1 POP SWAP2 SWAP1 POP JUMP JUMPDEST PUSH0 DUP3 DUP3 SHL SWAP1 POP SWAP3 SWAP2 POP POP JUMP JUMPDEST PUSH0 PUSH1 0x8 DUP4 MUL PUSH2 0x4008 PUSH32 0xFFFFFFFFFFFFFFFFFFFFFFFFFFFFFFFFFFFFFFFFFFFFFFFFFFFFFFFFFFFFFFFF DUP3 PUSH2 0x3FCD JUMP JUMPDEST PUSH2 0x4012 DUP7 DUP4 PUSH2 0x3FCD JUMP JUMPDEST SWAP6 POP DUP1 NOT DUP5 AND SWAP4 POP DUP1 DUP7 AND DUP5 OR SWAP3 POP POP POP SWAP4 SWAP3 POP POP POP JUMP JUMPDEST PUSH0 DUP2 SWAP1 POP SWAP2 SWAP1 POP JUMP JUMPDEST PUSH0 PUSH2 0x404D PUSH2 0x4048 PUSH2 0x4043 DUP5 PUSH2 0x342C JUMP JUMPDEST PUSH2 0x402A JUMP JUMPDEST PUSH2 0x342C JUMP JUMPDEST SWAP1 POP SWAP2 SWAP1 POP JUMP JUMPDEST PUSH0 DUP2 SWAP1 POP SWAP2 SWAP1 POP JUMP JUMPDEST PUSH2 0x4066 DUP4 PUSH2 0x4033 JUMP JUMPDEST PUSH2 0x407A PUSH2 0x4072 DUP3 PUSH2 0x4054 JUMP JUMPDEST DUP5 DUP5 SLOAD PUSH2 0x3FD9 JUMP JUMPDEST DUP3 SSTORE POP POP POP POP JUMP JUMPDEST PUSH0 PUSH0 SWAP1 POP SWAP1 JUMP JUMPDEST PUSH2 0x4091 PUSH2 0x4082 JUMP JUMPDEST PUSH2 0x409C DUP2 DUP5 DUP5 PUSH2 0x405D JUMP JUMPDEST POP POP POP JUMP JUMPDEST JUMPDEST DUP2 DUP2 LT ISZERO PUSH2 0x40BF JUMPI PUSH2 0x40B4 PUSH0 DUP3 PUSH2 0x4089 JUMP JUMPDEST PUSH1 0x1 DUP2 ADD SWAP1 POP PUSH2 0x40A2 JUMP JUMPDEST POP POP JUMP JUMPDEST PUSH1 0x1F DUP3 GT ISZERO PUSH2 0x4104 JUMPI PUSH2 0x40D5 DUP2 PUSH2 0x3FAC JUMP JUMPDEST PUSH2 0x40DE DUP5 PUSH2 0x3FBE JUMP JUMPDEST DUP2 ADD PUSH1 0x20 DUP6 LT ISZERO PUSH2 0x40ED JUMPI DUP2 SWAP1 POP JUMPDEST PUSH2 0x4101 PUSH2 0x40F9 DUP6 PUSH2 0x3FBE JUMP JUMPDEST DUP4 ADD DUP3 PUSH2 0x40A1 JUMP JUMPDEST POP POP JUMPDEST POP POP POP JUMP JUMPDEST PUSH0 DUP3 DUP3 SHR SWAP1 POP SWAP3 SWAP2 POP POP JUMP JUMPDEST PUSH0 PUSH2 0x4124 PUSH0 NOT DUP5 PUSH1 0x8 MUL PUSH2 0x4109 JUMP JUMPDEST NOT DUP1 DUP4 AND SWAP2 POP POP SWAP3 SWAP2 POP POP JUMP JUMPDEST PUSH0 PUSH2 0x413C DUP4 DUP4 PUSH2 0x4115 JUMP JUMPDEST SWAP2 POP DUP3 PUSH1 0x2 MUL DUP3 OR SWAP1 POP SWAP3 SWAP2 POP POP JUMP JUMPDEST PUSH2 0x4155 DUP3 PUSH2 0x339C JUMP JUMPDEST PUSH8 0xFFFFFFFFFFFFFFFF DUP2 GT ISZERO PUSH2 0x416E JUMPI PUSH2 0x416D PUSH2 0x3585 JUMP JUMPDEST JUMPDEST PUSH2 0x4178 DUP3 SLOAD PUSH2 0x3CF4 JUMP JUMPDEST PUSH2 0x4183 DUP3 DUP3 DUP6 PUSH2 0x40C3 JUMP JUMPDEST PUSH0 PUSH1 0x20 SWAP1 POP PUSH1 0x1F DUP4 GT PUSH1 0x1 DUP2 EQ PUSH2 0x41B4 JUMPI PUSH0 DUP5 ISZERO PUSH2 0x41A2 JUMPI DUP3 DUP8 ADD MLOAD SWAP1 POP JUMPDEST PUSH2 0x41AC DUP6 DUP3 PUSH2 0x4131 JUMP JUMPDEST DUP7 SSTORE POP PUSH2 0x4213 JUMP JUMPDEST PUSH1 0x1F NOT DUP5 AND PUSH2 0x41C2 DUP7 PUSH2 0x3FAC JUMP JUMPDEST PUSH0 JUMPDEST DUP3 DUP2 LT ISZERO PUSH2 0x41E9 JUMPI DUP5 DUP10 ADD MLOAD DUP3 SSTORE PUSH1 0x1 DUP3 ADD SWAP2 POP PUSH1 0x20 DUP6 ADD SWAP5 POP PUSH1 0x20 DUP2 ADD SWAP1 POP PUSH2 0x41C4 JUMP JUMPDEST DUP7 DUP4 LT ISZERO PUSH2 0x4206 JUMPI DUP5 DUP10 ADD MLOAD PUSH2 0x4202 PUSH1 0x1F DUP10 AND DUP3 PUSH2 0x4115 JUMP JUMPDEST DUP4 SSTORE POP JUMPDEST PUSH1 0x1 PUSH1 0x2 DUP9 MUL ADD DUP9 SSTORE POP POP POP JUMPDEST POP POP POP POP POP POP JUMP JUMPDEST PUSH32 0x4E487B7100000000000000000000000000000000000000000000000000000000 PUSH0 MSTORE PUSH1 0x32 PUSH1 0x4 MSTORE PUSH1 0x24 PUSH0 REVERT JUMPDEST PUSH0 DUP2 SWAP1 POP SWAP3 SWAP2 POP POP JUMP JUMPDEST PUSH0 PUSH2 0x425C DUP3 PUSH2 0x339C JUMP JUMPDEST PUSH2 0x4266 DUP2 DUP6 PUSH2 0x4248 JUMP JUMPDEST SWAP4 POP PUSH2 0x4276 DUP2 DUP6 PUSH1 0x20 DUP7 ADD PUSH2 0x33B6 JUMP JUMPDEST DUP1 DUP5 ADD SWAP2 POP POP SWAP3 SWAP2 POP POP JUMP JUMPDEST PUSH0 PUSH2 0x428D DUP3 DUP5 PUSH2 0x4252 JUMP JUMPDEST SWAP2 POP DUP2 SWAP1 POP SWAP3 SWAP2 POP POP JUMP JUMPDEST PUSH32 0x74686520636F64652069732072656465656D6564000000000000000000000000 PUSH0 DUP3 ADD MSTORE POP JUMP JUMPDEST PUSH0 PUSH2 0x42CC PUSH1 0x14 DUP4 PUSH2 0x33A6 JUMP JUMPDEST SWAP2 POP PUSH2 0x42D7 DUP3 PUSH2 0x4298 JUMP JUMPDEST PUSH1 0x20 DUP3 ADD SWAP1 POP SWAP2 SWAP1 POP JUMP JUMPDEST PUSH0 PUSH1 0x20 DUP3 ADD SWAP1 POP DUP2 DUP2 SUB PUSH0 DUP4 ADD MSTORE PUSH2 0x42F9 DUP2 PUSH2 0x42C0 JUMP JUMPDEST SWAP1 POP SWAP2 SWAP1 POP JUMP JUMPDEST PUSH32 0x4552433732313A20696E76616C696420746F6B656E2049440000000000000000 PUSH0 DUP3 ADD MSTORE POP JUMP JUMPDEST PUSH0 PUSH2 0x4334 PUSH1 0x18 DUP4 PUSH2 0x33A6 JUMP JUMPDEST SWAP2 POP PUSH2 0x433F DUP3 PUSH2 0x4300 JUMP JUMPDEST PUSH1 0x20 DUP3 ADD SWAP1 POP SWAP2 SWAP1 POP JUMP JUMPDEST PUSH0 PUSH1 0x20 DUP3 ADD SWAP1 POP DUP2 DUP2 SUB PUSH0 DUP4 ADD MSTORE PUSH2 0x4361 DUP2 PUSH2 0x4328 JUMP JUMPDEST SWAP1 POP SWAP2 SWAP1 POP JUMP JUMPDEST PUSH32 0x4552433732313A2061646472657373207A65726F206973206E6F742061207661 PUSH0 DUP3 ADD MSTORE PUSH32 0x6C6964206F776E65720000000000000000000000000000000000000000000000 PUSH1 0x20 DUP3 ADD MSTORE POP JUMP JUMPDEST PUSH0 PUSH2 0x43C2 PUSH1 0x29 DUP4 PUSH2 0x33A6 JUMP JUMPDEST SWAP2 POP PUSH2 0x43CD DUP3 PUSH2 0x4368 JUMP JUMPDEST PUSH1 0x40 DUP3 ADD SWAP1 POP SWAP2 SWAP1 POP JUMP JUMPDEST PUSH0 PUSH1 0x20 DUP3 ADD SWAP1 POP DUP2 DUP2 SUB PUSH0 DUP4 ADD MSTORE PUSH2 0x43EF DUP2 PUSH2 0x43B6 JUMP JUMPDEST SWAP1 POP SWAP2 SWAP1 POP JUMP JUMPDEST PUSH0 PUSH2 0x4401 DUP3 DUP6 PUSH2 0x4252 JUMP JUMPDEST SWAP2 POP PUSH2 0x440D DUP3 DUP5 PUSH2 0x4252 JUMP JUMPDEST SWAP2 POP DUP2 SWAP1 POP SWAP4 SWAP3 POP POP POP JUMP JUMPDEST PUSH0 DUP2 SWAP1 POP DUP2 PUSH0 MSTORE PUSH1 0x20 PUSH0 KECCAK256 SWAP1 POP SWAP2 SWAP1 POP JUMP JUMPDEST PUSH1 0x1F DUP3 GT ISZERO PUSH2 0x446C JUMPI PUSH2 0x443D DUP2 PUSH2 0x4419 JUMP JUMPDEST PUSH2 0x4446 DUP5 PUSH2 0x3FBE JUMP JUMPDEST DUP2 ADD PUSH1 0x20 DUP6 LT ISZERO PUSH2 0x4455 JUMPI DUP2 SWAP1 POP JUMPDEST PUSH2 0x4469 PUSH2 0x4461 DUP6 PUSH2 0x3FBE JUMP JUMPDEST DUP4 ADD DUP3 PUSH2 0x40A1 JUMP JUMPDEST POP POP JUMPDEST POP POP POP JUMP JUMPDEST PUSH2 0x447A DUP3 PUSH2 0x3947 JUMP JUMPDEST PUSH8 0xFFFFFFFFFFFFFFFF DUP2 GT ISZERO PUSH2 0x4493 JUMPI PUSH2 0x4492 PUSH2 0x3585 JUMP JUMPDEST JUMPDEST PUSH2 0x449D DUP3 SLOAD PUSH2 0x3CF4 JUMP JUMPDEST PUSH2 0x44A8 DUP3 DUP3 DUP6 PUSH2 0x442B JUMP JUMPDEST PUSH0 PUSH1 0x20 SWAP1 POP PUSH1 0x1F DUP4 GT PUSH1 0x1 DUP2 EQ PUSH2 0x44D9 JUMPI PUSH0 DUP5 ISZERO PUSH2 0x44C7 JUMPI DUP3 DUP8 ADD MLOAD SWAP1 POP JUMPDEST PUSH2 0x44D1 DUP6 DUP3 PUSH2 0x4131 JUMP JUMPDEST DUP7 SSTORE POP PUSH2 0x4538 JUMP JUMPDEST PUSH1 0x1F NOT DUP5 AND PUSH2 0x44E7 DUP7 PUSH2 0x4419 JUMP JUMPDEST PUSH0 JUMPDEST DUP3 DUP2 LT ISZERO PUSH2 0x450E JUMPI DUP5 DUP10 ADD MLOAD DUP3 SSTORE PUSH1 0x1 DUP3 ADD SWAP2 POP PUSH1 0x20 DUP6 ADD SWAP5 POP PUSH1 0x20 DUP2 ADD SWAP1 POP PUSH2 0x44E9 JUMP JUMPDEST DUP7 DUP4 LT ISZERO PUSH2 0x452B JUMPI DUP5 DUP10 ADD MLOAD PUSH2 0x4527 PUSH1 0x1F DUP10 AND DUP3 PUSH2 0x4115 JUMP JUMPDEST DUP4 SSTORE POP JUMPDEST PUSH1 0x1 PUSH1 0x2 DUP9 MUL ADD DUP9 SSTORE POP POP POP JUMPDEST POP POP POP POP POP POP JUMP JUMPDEST PUSH0 DUP2 SLOAD PUSH2 0x454C DUP2 PUSH2 0x3CF4 JUMP JUMPDEST PUSH2 0x4556 DUP2 DUP7 PUSH2 0x3951 JUMP JUMPDEST SWAP5 POP PUSH1 0x1 DUP3 AND PUSH0 DUP2 EQ PUSH2 0x4570 JUMPI PUSH1 0x1 DUP2 EQ PUSH2 0x4586 JUMPI PUSH2 0x45B8 JUMP JUMPDEST PUSH1 0xFF NOT DUP4 AND DUP7 MSTORE DUP2 ISZERO ISZERO PUSH1 0x20 MUL DUP7 ADD SWAP4 POP PUSH2 0x45B8 JUMP JUMPDEST PUSH2 0x458F DUP6 PUSH2 0x4419 JUMP JUMPDEST PUSH0 JUMPDEST DUP4 DUP2 LT ISZERO PUSH2 0x45B0 JUMPI DUP2 SLOAD DUP2 DUP10 ADD MSTORE PUSH1 0x1 DUP3 ADD SWAP2 POP PUSH1 0x20 DUP2 ADD SWAP1 POP PUSH2 0x4591 JUMP JUMPDEST DUP1 DUP9 ADD SWAP6 POP POP POP JUMPDEST POP POP POP SWAP3 SWAP2 POP POP JUMP JUMPDEST PUSH0 PUSH1 0x40 DUP3 ADD SWAP1 POP DUP2 DUP2 SUB PUSH0 DUP4 ADD MSTORE PUSH2 0x45D9 DUP2 DUP6 PUSH2 0x4540 JUMP JUMPDEST SWAP1 POP DUP2 DUP2 SUB PUSH1 0x20 DUP4 ADD MSTORE PUSH2 0x45ED DUP2 DUP5 PUSH2 0x4540 JUMP JUMPDEST SWAP1 POP SWAP4 SWAP3 POP POP POP JUMP JUMPDEST PUSH32 0x4552433732313A207472616E736665722066726F6D20696E636F727265637420 PUSH0 DUP3 ADD MSTORE PUSH32 0x6F776E6572000000000000000000000000000000000000000000000000000000 PUSH1 0x20 DUP3 ADD MSTORE POP JUMP JUMPDEST PUSH0 PUSH2 0x4650 PUSH1 0x25 DUP4 PUSH2 0x33A6 JUMP JUMPDEST SWAP2 POP PUSH2 0x465B DUP3 PUSH2 0x45F6 JUMP JUMPDEST PUSH1 0x40 DUP3 ADD SWAP1 POP SWAP2 SWAP1 POP JUMP JUMPDEST PUSH0 PUSH1 0x20 DUP3 ADD SWAP1 POP DUP2 DUP2 SUB PUSH0 DUP4 ADD MSTORE PUSH2 0x467D DUP2 PUSH2 0x4644 JUMP JUMPDEST SWAP1 POP SWAP2 SWAP1 POP JUMP JUMPDEST PUSH32 0x4552433732313A207472616E7366657220746F20746865207A65726F20616464 PUSH0 DUP3 ADD MSTORE PUSH32 0x7265737300000000000000000000000000000000000000000000000000000000 PUSH1 0x20 DUP3 ADD MSTORE POP JUMP JUMPDEST PUSH0 PUSH2 0x46DE PUSH1 0x24 DUP4 PUSH2 0x33A6 JUMP JUMPDEST SWAP2 POP PUSH2 0x46E9 DUP3 PUSH2 0x4684 JUMP JUMPDEST PUSH1 0x40 DUP3 ADD SWAP1 POP SWAP2 SWAP1 POP JUMP JUMPDEST PUSH0 PUSH1 0x20 DUP3 ADD SWAP1 POP DUP2 DUP2 SUB PUSH0 DUP4 ADD MSTORE PUSH2 0x470B DUP2 PUSH2 0x46D2 JUMP JUMPDEST SWAP1 POP SWAP2 SWAP1 POP JUMP JUMPDEST PUSH32 0x4E487B7100000000000000000000000000000000000000000000000000000000 PUSH0 MSTORE PUSH1 0x21 PUSH1 0x4 MSTORE PUSH1 0x24 PUSH0 REVERT JUMPDEST PUSH2 0x4748 DUP2 PUSH2 0x39EF JUMP JUMPDEST DUP3 MSTORE POP POP JUMP JUMPDEST PUSH0 PUSH2 0xFFFF DUP3 AND SWAP1 POP SWAP2 SWAP1 POP JUMP JUMPDEST PUSH2 0x4764 DUP2 PUSH2 0x474E JUMP JUMPDEST DUP3 MSTORE POP POP JUMP JUMPDEST PUSH0 PUSH1 0xA0 DUP3 ADD SWAP1 POP PUSH2 0x477D PUSH0 DUP4 ADD DUP9 PUSH2 0x473F JUMP JUMPDEST DUP2 DUP2 SUB PUSH1 0x20 DUP4 ADD MSTORE PUSH2 0x478F DUP2 DUP8 PUSH2 0x3961 JUMP JUMPDEST SWAP1 POP PUSH2 0x479E PUSH1 0x40 DUP4 ADD DUP7 PUSH2 0x475B JUMP JUMPDEST PUSH2 0x47AB PUSH1 0x60 DUP4 ADD DUP6 PUSH2 0x391F JUMP JUMPDEST PUSH2 0x47B8 PUSH1 0x80 DUP4 ADD DUP5 PUSH2 0x3731 JUMP JUMPDEST SWAP7 SWAP6 POP POP POP POP POP POP JUMP JUMPDEST PUSH0 DUP2 MLOAD SWAP1 POP PUSH2 0x47D0 DUP2 PUSH2 0x3553 JUMP JUMPDEST SWAP3 SWAP2 POP POP JUMP JUMPDEST PUSH0 PUSH1 0x20 DUP3 DUP5 SUB SLT ISZERO PUSH2 0x47EB JUMPI PUSH2 0x47EA PUSH2 0x32E1 JUMP JUMPDEST JUMPDEST PUSH0 PUSH2 0x47F8 DUP5 DUP3 DUP6 ADD PUSH2 0x47C2 JUMP JUMPDEST SWAP2 POP POP SWAP3 SWAP2 POP POP JUMP JUMPDEST PUSH32 0x4552433732313A20617070726F766520746F2063616C6C657200000000000000 PUSH0 DUP3 ADD MSTORE POP JUMP JUMPDEST PUSH0 PUSH2 0x4835 PUSH1 0x19 DUP4 PUSH2 0x33A6 JUMP JUMPDEST SWAP2 POP PUSH2 0x4840 DUP3 PUSH2 0x4801 JUMP JUMPDEST PUSH1 0x20 DUP3 ADD SWAP1 POP SWAP2 SWAP1 POP JUMP JUMPDEST PUSH0 PUSH1 0x20 DUP3 ADD SWAP1 POP DUP2 DUP2 SUB PUSH0 DUP4 ADD MSTORE PUSH2 0x4862 DUP2 PUSH2 0x4829 JUMP JUMPDEST SWAP1 POP SWAP2 SWAP1 POP JUMP JUMPDEST PUSH32 0x4552433732313A207472616E7366657220746F206E6F6E204552433732315265 PUSH0 DUP3 ADD MSTORE PUSH32 0x63656976657220696D706C656D656E7465720000000000000000000000000000 PUSH1 0x20 DUP3 ADD MSTORE POP JUMP JUMPDEST PUSH0 PUSH2 0x48C3 PUSH1 0x32 DUP4 PUSH2 0x33A6 JUMP JUMPDEST SWAP2 POP PUSH2 0x48CE DUP3 PUSH2 0x4869 JUMP JUMPDEST PUSH1 0x40 DUP3 ADD SWAP1 POP SWAP2 SWAP1 POP JUMP JUMPDEST PUSH0 PUSH1 0x20 DUP3 ADD SWAP1 POP DUP2 DUP2 SUB PUSH0 DUP4 ADD MSTORE PUSH2 0x48F0 DUP2 PUSH2 0x48B7 JUMP JUMPDEST SWAP1 POP SWAP2 SWAP1 POP JUMP JUMPDEST PUSH32 0x4E487B7100000000000000000000000000000000000000000000000000000000 PUSH0 MSTORE PUSH1 0x11 PUSH1 0x4 MSTORE PUSH1 0x24 PUSH0 REVERT JUMPDEST PUSH0 PUSH2 0x492E DUP3 PUSH2 0x342C JUMP JUMPDEST SWAP2 POP PUSH32 0xFFFFFFFFFFFFFFFFFFFFFFFFFFFFFFFFFFFFFFFFFFFFFFFFFFFFFFFFFFFFFFFF DUP3 SUB PUSH2 0x4960 JUMPI PUSH2 0x495F PUSH2 0x48F7 JUMP JUMPDEST JUMPDEST PUSH1 0x1 DUP3 ADD SWAP1 POP SWAP2 SWAP1 POP JUMP JUMPDEST PUSH0 PUSH2 0x4975 DUP3 PUSH2 0x342C JUMP JUMPDEST SWAP2 POP PUSH2 0x4980 DUP4 PUSH2 0x342C JUMP JUMPDEST SWAP3 POP DUP3 DUP3 ADD SWAP1 POP DUP1 DUP3 GT ISZERO PUSH2 0x4998 JUMPI PUSH2 0x4997 PUSH2 0x48F7 JUMP JUMPDEST JUMPDEST SWAP3 SWAP2 POP POP JUMP JUMPDEST PUSH0 PUSH2 0x49A8 DUP3 PUSH2 0x342C JUMP JUMPDEST SWAP2 POP PUSH2 0x49B3 DUP4 PUSH2 0x342C JUMP JUMPDEST SWAP3 POP DUP3 DUP3 SUB SWAP1 POP DUP2 DUP2 GT ISZERO PUSH2 0x49CB JUMPI PUSH2 0x49CA PUSH2 0x48F7 JUMP JUMPDEST JUMPDEST SWAP3 SWAP2 POP POP JUMP JUMPDEST PUSH0 PUSH1 0x80 DUP3 ADD SWAP1 POP PUSH2 0x49E4 PUSH0 DUP4 ADD DUP8 PUSH2 0x34BA JUMP JUMPDEST PUSH2 0x49F1 PUSH1 0x20 DUP4 ADD DUP7 PUSH2 0x34BA JUMP JUMPDEST PUSH2 0x49FE PUSH1 0x40 DUP4 ADD DUP6 PUSH2 0x3759 JUMP JUMPDEST DUP2 DUP2 SUB PUSH1 0x60 DUP4 ADD MSTORE PUSH2 0x4A10 DUP2 DUP5 PUSH2 0x3961 JUMP JUMPDEST SWAP1 POP SWAP6 SWAP5 POP POP POP POP POP JUMP JUMPDEST PUSH0 DUP2 MLOAD SWAP1 POP PUSH2 0x4A29 DUP2 PUSH2 0x3314 JUMP JUMPDEST SWAP3 SWAP2 POP POP JUMP JUMPDEST PUSH0 PUSH1 0x20 DUP3 DUP5 SUB SLT ISZERO PUSH2 0x4A44 JUMPI PUSH2 0x4A43 PUSH2 0x32E1 JUMP JUMPDEST JUMPDEST PUSH0 PUSH2 0x4A51 DUP5 DUP3 DUP6 ADD PUSH2 0x4A1B JUMP JUMPDEST SWAP2 POP POP SWAP3 SWAP2 POP POP JUMP JUMPDEST PUSH32 0x4E487B7100000000000000000000000000000000000000000000000000000000 PUSH0 MSTORE PUSH1 0x12 PUSH1 0x4 MSTORE PUSH1 0x24 PUSH0 REVERT JUMPDEST PUSH32 0x45524337323155524953746F726167653A2055524920736574206F66206E6F6E PUSH0 DUP3 ADD MSTORE PUSH32 0x6578697374656E7420746F6B656E000000000000000000000000000000000000 PUSH1 0x20 DUP3 ADD MSTORE POP JUMP JUMPDEST PUSH0 PUSH2 0x4AE1 PUSH1 0x2E DUP4 PUSH2 0x33A6 JUMP JUMPDEST SWAP2 POP PUSH2 0x4AEC DUP3 PUSH2 0x4A87 JUMP JUMPDEST PUSH1 0x40 DUP3 ADD SWAP1 POP SWAP2 SWAP1 POP JUMP JUMPDEST PUSH0 PUSH1 0x20 DUP3 ADD SWAP1 POP DUP2 DUP2 SUB PUSH0 DUP4 ADD MSTORE PUSH2 0x4B0E DUP2 PUSH2 0x4AD5 JUMP JUMPDEST SWAP1 POP SWAP2 SWAP1 POP JUMP JUMPDEST PUSH0 PUSH2 0x4B1F DUP3 PUSH2 0x342C JUMP JUMPDEST SWAP2 POP PUSH2 0x4B2A DUP4 PUSH2 0x342C JUMP JUMPDEST SWAP3 POP DUP3 PUSH2 0x4B3A JUMPI PUSH2 0x4B39 PUSH2 0x4A5A JUMP JUMPDEST JUMPDEST DUP3 DUP3 MOD SWAP1 POP SWAP3 SWAP2 POP POP JUMP JUMPDEST PUSH0 PUSH2 0x4B4F DUP3 PUSH2 0x342C JUMP JUMPDEST SWAP2 POP PUSH2 0x4B5A DUP4 PUSH2 0x342C JUMP JUMPDEST SWAP3 POP DUP3 DUP3 MUL PUSH2 0x4B68 DUP2 PUSH2 0x342C JUMP JUMPDEST SWAP2 POP DUP3 DUP3 DIV DUP5 EQ DUP4 ISZERO OR PUSH2 0x4B7F JUMPI PUSH2 0x4B7E PUSH2 0x48F7 JUMP JUMPDEST JUMPDEST POP SWAP3 SWAP2 POP POP JUMP JUMPDEST PUSH0 DUP2 PUSH1 0x1 SHR SWAP1 POP SWAP2 SWAP1 POP JUMP JUMPDEST PUSH0 PUSH0 DUP3 SWAP2 POP DUP4 SWAP1 POP JUMPDEST PUSH1 0x1 DUP6 GT ISZERO PUSH2 0x4BDB JUMPI DUP1 DUP7 DIV DUP2 GT ISZERO PUSH2 0x4BB7 JUMPI PUSH2 0x4BB6 PUSH2 0x48F7 JUMP JUMPDEST JUMPDEST PUSH1 0x1 DUP6 AND ISZERO PUSH2 0x4BC6 JUMPI DUP1 DUP3 MUL SWAP2 POP JUMPDEST DUP1 DUP2 MUL SWAP1 POP PUSH2 0x4BD4 DUP6 PUSH2 0x4B86 JUMP JUMPDEST SWAP5 POP PUSH2 0x4B9B JUMP JUMPDEST SWAP5 POP SWAP5 SWAP3 POP POP POP JUMP JUMPDEST PUSH0 DUP3 PUSH2 0x4BF3 JUMPI PUSH1 0x1 SWAP1 POP PUSH2 0x4CAE JUMP JUMPDEST DUP2 PUSH2 0x4C00 JUMPI PUSH0 SWAP1 POP PUSH2 0x4CAE JUMP JUMPDEST DUP2 PUSH1 0x1 DUP2 EQ PUSH2 0x4C16 JUMPI PUSH1 0x2 DUP2 EQ PUSH2 0x4C20 JUMPI PUSH2 0x4C4F JUMP JUMPDEST PUSH1 0x1 SWAP2 POP POP PUSH2 0x4CAE JUMP JUMPDEST PUSH1 0xFF DUP5 GT ISZERO PUSH2 0x4C32 JUMPI PUSH2 0x4C31 PUSH2 0x48F7 JUMP JUMPDEST JUMPDEST DUP4 PUSH1 0x2 EXP SWAP2 POP DUP5 DUP3 GT ISZERO PUSH2 0x4C49 JUMPI PUSH2 0x4C48 PUSH2 0x48F7 JUMP JUMPDEST JUMPDEST POP PUSH2 0x4CAE JUMP JUMPDEST POP PUSH1 0x20 DUP4 LT PUSH2 0x133 DUP4 LT AND PUSH1 0x4E DUP5 LT PUSH1 0xB DUP5 LT AND OR ISZERO PUSH2 0x4C84 JUMPI DUP3 DUP3 EXP SWAP1 POP DUP4 DUP2 GT ISZERO PUSH2 0x4C7F JUMPI PUSH2 0x4C7E PUSH2 0x48F7 JUMP JUMPDEST JUMPDEST PUSH2 0x4CAE JUMP JUMPDEST PUSH2 0x4C91 DUP5 DUP5 DUP5 PUSH1 0x1 PUSH2 0x4B92 JUMP JUMPDEST SWAP3 POP SWAP1 POP DUP2 DUP5 DIV DUP2 GT ISZERO PUSH2 0x4CA8 JUMPI PUSH2 0x4CA7 PUSH2 0x48F7 JUMP JUMPDEST JUMPDEST DUP2 DUP2 MUL SWAP1 POP JUMPDEST SWAP4 SWAP3 POP POP POP JUMP JUMPDEST PUSH0 PUSH2 0x4CBF DUP3 PUSH2 0x342C JUMP JUMPDEST SWAP2 POP PUSH2 0x4CCA DUP4 PUSH2 0x342C JUMP JUMPDEST SWAP3 POP PUSH2 0x4CF7 PUSH32 0xFFFFFFFFFFFFFFFFFFFFFFFFFFFFFFFFFFFFFFFFFFFFFFFFFFFFFFFFFFFFFFFF DUP5 DUP5 PUSH2 0x4BE4 JUMP JUMPDEST SWAP1 POP SWAP3 SWAP2 POP POP JUMP JUMPDEST PUSH32 0x4552433732313A206D696E7420746F20746865207A65726F2061646472657373 PUSH0 DUP3 ADD MSTORE POP JUMP JUMPDEST PUSH0 PUSH2 0x4D33 PUSH1 0x20 DUP4 PUSH2 0x33A6 JUMP JUMPDEST SWAP2 POP PUSH2 0x4D3E DUP3 PUSH2 0x4CFF JUMP JUMPDEST PUSH1 0x20 DUP3 ADD SWAP1 POP SWAP2 SWAP1 POP JUMP JUMPDEST PUSH0 PUSH1 0x20 DUP3 ADD SWAP1 POP DUP2 DUP2 SUB PUSH0 DUP4 ADD MSTORE PUSH2 0x4D60 DUP2 PUSH2 0x4D27 JUMP JUMPDEST SWAP1 POP SWAP2 SWAP1 POP JUMP JUMPDEST PUSH32 0x4552433732313A20746F6B656E20616C7265616479206D696E74656400000000 PUSH0 DUP3 ADD MSTORE POP JUMP JUMPDEST PUSH0 PUSH2 0x4D9B PUSH1 0x1C DUP4 PUSH2 0x33A6 JUMP JUMPDEST SWAP2 POP PUSH2 0x4DA6 DUP3 PUSH2 0x4D67 JUMP JUMPDEST PUSH1 0x20 DUP3 ADD SWAP1 POP SWAP2 SWAP1 POP JUMP JUMPDEST PUSH0 PUSH1 0x20 DUP3 ADD SWAP1 POP DUP2 DUP2 SUB PUSH0 DUP4 ADD MSTORE PUSH2 0x4DC8 DUP2 PUSH2 0x4D8F JUMP JUMPDEST SWAP1 POP SWAP2 SWAP1 POP JUMP INVALID PUSH4 0x6F6E7374 KECCAK256 PUSH8 0x696674436F646520 RETURNDATASIZE KECCAK256 PUSH2 0x7267 PUSH20 0x5B305D3B69662821736563726574732E6170696B PUSH6 0x7929207B2074 PUSH9 0x726F77204572726F72 0x28 0x22 GASLIMIT PUSH19 0x726F723A20537570616261736520415049204B PUSH6 0x79206973206E PUSH16 0x7420736574212229207D3B636F6E7374 KECCAK256 PUSH2 0x7069 PUSH12 0x6579203D2073656372657473 0x2E PUSH2 0x7069 PUSH12 0x65793B636F6E737420617069 MSTORE PUSH6 0x73706F6E7365 KECCAK256 RETURNDATASIZE KECCAK256 PUSH2 0x7761 PUSH10 0x742046756E6374696F6E PUSH20 0x2E6D616B654874747052657175657374287B7572 PUSH13 0x3A202268747470733A2F2F6E77 PUSH12 0x6D63697A656E71676F6B6562 PUSH10 0x756173732E7375706162 PUSH2 0x7365 0x2E PUSH4 0x6F2F7265 PUSH20 0x742F76312F47696674733F73656C6563743D6769 PUSH7 0x745F6E616D652C PUSH8 0x6966745F636F6465 0x22 0x2C PUSH14 0x6574686F643A2022474554222C68 PUSH6 0x61646572733A KECCAK256 PUSH28 0x20226170696B6579223A206170696B65797D7D293B69662028617069 MSTORE PUSH6 0x73706F6E7365 0x2E PUSH6 0x72726F722920 PUSH28 0x636F6E736F6C652E6572726F7228617069526573706F6E73652E6572 PUSH19 0x6F72293B7468726F77204572726F7228225265 PUSH18 0x75657374206661696C65643A2022202B2061 PUSH17 0x69526573706F6E73652E6D657373616765 0x29 EXTCODESIZE PUSH30 0x3B636F6E7374207B2064617461207D203D20617069526573706F6E73653B PUSH4 0x6F6E7374 KECCAK256 PUSH10 0x74656D203D2064617461 0x2E PUSH7 0x696E6428697465 PUSH14 0x203D3E206974656D2E676966745F PUSH4 0x6F646520 RETURNDATASIZE RETURNDATASIZE KECCAK256 PUSH8 0x696674436F646529 EXTCODESIZE PUSH10 0x66286974656D203D3D20 PUSH22 0x6E646566696E656429207B72657475726E2046756E63 PUSH21 0x696F6E732E656E636F6465537472696E6728226E6F PUSH21 0x20666F756E6422297D3B72657475726E2046756E63 PUSH21 0x696F6E732E656E636F6465537472696E6728697465 PUSH14 0x2E676966745F6E616D65293BA264 PUSH10 0x70667358221220703675 0xBC PUSH2 0xF99C PUSH23 0xD319DC10D6211E1505F2F5DEFC79343CFF3D49C9403CD3 CALLF 0x6473 PUSH16 0x6C634300081E0033697066733A2F2F51 PUSH14 0x664E68687055657A514C63797158 TIMESTAMP SELFBALANCE 0x4C CALLVALUE PUSH6 0x6850776F3747 PUSH7 0x62776B39797933 MSIZE PUSH4 0x4A714767 PUSH19 0x39645062697066733A2F2F516D614771424E71 BASEFEE PUSH2 0x7A43 PUSH11 0x534D4E4D75446B36567267 PUSH11 0x4E4C4D514B4E5A71616162 BALANCE PUSH23 0x664D4841776B6F6A697066733A2F2F516D4E7871374771 PUSH6 0x685A66395370 NUMBER GASLIMIT CHAINID 0x4B CALLDATACOPY NUMBER CALLVALUE PUSH14 0x6F785A545A504E77436572357943 COINBASE PUSH18 0x43424E646B32610000000000000000000000 "
		},
		"gasEstimates": {
			"creation": {
				"codeDepositCost": "4120800",
				"executionCost": "infinite",
				"totalCost": "infinite"
			},
			"external": {
				"CALLBACK_GAS_LIMIT()": "420",
				"DON_ID()": "464",
				"ROUTER_ADDR()": "419",
				"SOURCE()": "infinite",
				"addGift(string,string)": "infinite",
				"addToAllowList(address)": "27109",
				"approve(address,uint256)": "infinite",
				"balanceOf(address)": "2952",
				"getApproved(uint256)": "5281",
				"handleOracleFulfillment(bytes32,bytes,bytes)": "infinite",
				"isApprovedForAll(address,address)": "infinite",
				"name()": "infinite",
				"ownerOf(uint256)": "3027",
				"removeFromAllowList()": "26845",
				"result()": "infinite",
				"s_lastError()": "infinite",
				"s_lastRequestId()": "2514",
				"s_lastResponse()": "infinite",
				"safeTransferFrom(address,address,uint256)": "infinite",
				"safeTransferFrom(address,address,uint256,bytes)": "infinite",
				"sendRequest(uint8,uint64,string[],uint64,address)": "infinite",
				"setApprovalForAll(address,bool)": "infinite",
				"supportsInterface(bytes4)": "881",
				"symbol()": "infinite",
				"tokenId()": "2493",
				"tokenURI(uint256)": "infinite",
				"transferFrom(address,address,uint256)": "infinite"
			},
			"internal": {
				"fulfillRequest(bytes32,bytes memory,bytes memory)": "infinite",
				"safeMint(address,string memory)": "infinite"
			}
		},
		"methodIdentifiers": {
			"CALLBACK_GAS_LIMIT()": "33d608f1",
			"DON_ID()": "0cde9f3c",
			"ROUTER_ADDR()": "134d67e5",
			"SOURCE()": "f230b4c2",
			"addGift(string,string)": "2d00cf3b",
			"addToAllowList(address)": "31f59102",
			"approve(address,uint256)": "095ea7b3",
			"balanceOf(address)": "70a08231",
			"getApproved(uint256)": "081812fc",
			"handleOracleFulfillment(bytes32,bytes,bytes)": "0ca76175",
			"isApprovedForAll(address,address)": "e985e9c5",
			"name()": "06fdde03",
			"ownerOf(uint256)": "6352211e",
			"removeFromAllowList()": "82bb0dfc",
			"result()": "65372147",
			"s_lastError()": "4b0795a8",
			"s_lastRequestId()": "b1e21749",
			"s_lastResponse()": "3944ea3a",
			"safeTransferFrom(address,address,uint256)": "42842e0e",
			"safeTransferFrom(address,address,uint256,bytes)": "b88d4fde",
			"sendRequest(uint8,uint64,string[],uint64,address)": "58875a4f",
			"setApprovalForAll(address,bool)": "a22cb465",
			"supportsInterface(bytes4)": "01ffc9a7",
			"symbol()": "95d89b41",
			"tokenId()": "17d70f7c",
			"tokenURI(uint256)": "c87b56dd",
			"transferFrom(address,address,uint256)": "23b872dd"
		}
	},
	"abi": [
		{
			"inputs": [],
			"stateMutability": "nonpayable",
			"type": "constructor"
		},
		{
			"inputs": [],
			"name": "EmptyArgs",
			"type": "error"
		},
		{
			"inputs": [],
			"name": "EmptySource",
			"type": "error"
		},
		{
			"inputs": [],
			"name": "NoInlineSecrets",
			"type": "error"
		},
		{
			"inputs": [],
			"name": "OnlyRouterCanFulfill",
			"type": "error"
		},
		{
			"inputs": [
				{
					"internalType": "bytes32",
					"name": "requestId",
					"type": "bytes32"
				}
			],
			"name": "UnexpectedRequestID",
			"type": "error"
		},
		{
			"anonymous": false,
			"inputs": [
				{
					"indexed": true,
					"internalType": "address",
					"name": "owner",
					"type": "address"
				},
				{
					"indexed": true,
					"internalType": "address",
					"name": "approved",
					"type": "address"
				},
				{
					"indexed": true,
					"internalType": "uint256",
					"name": "tokenId",
					"type": "uint256"
				}
			],
			"name": "Approval",
			"type": "event"
		},
		{
			"anonymous": false,
			"inputs": [
				{
					"indexed": true,
					"internalType": "address",
					"name": "owner",
					"type": "address"
				},
				{
					"indexed": true,
					"internalType": "address",
					"name": "operator",
					"type": "address"
				},
				{
					"indexed": false,
					"internalType": "bool",
					"name": "approved",
					"type": "bool"
				}
			],
			"name": "ApprovalForAll",
			"type": "event"
		},
		{
			"anonymous": false,
			"inputs": [
				{
					"indexed": false,
					"internalType": "uint256",
					"name": "_fromTokenId",
					"type": "uint256"
				},
				{
					"indexed": false,
					"internalType": "uint256",
					"name": "_toTokenId",
					"type": "uint256"
				}
			],
			"name": "BatchMetadataUpdate",
			"type": "event"
		},
		{
			"anonymous": false,
			"inputs": [
				{
					"indexed": false,
					"internalType": "uint256",
					"name": "_tokenId",
					"type": "uint256"
				}
			],
			"name": "MetadataUpdate",
			"type": "event"
		},
		{
			"anonymous": false,
			"inputs": [
				{
					"indexed": true,
					"internalType": "bytes32",
					"name": "id",
					"type": "bytes32"
				}
			],
			"name": "RequestFulfilled",
			"type": "event"
		},
		{
			"anonymous": false,
			"inputs": [
				{
					"indexed": true,
					"internalType": "bytes32",
					"name": "id",
					"type": "bytes32"
				}
			],
			"name": "RequestSent",
			"type": "event"
		},
		{
			"anonymous": false,
			"inputs": [
				{
					"indexed": true,
					"internalType": "bytes32",
					"name": "requestId",
					"type": "bytes32"
				},
				{
					"indexed": false,
					"internalType": "bytes",
					"name": "response",
					"type": "bytes"
				},
				{
					"indexed": false,
					"internalType": "bytes",
					"name": "err",
					"type": "bytes"
				}
			],
			"name": "Response",
			"type": "event"
		},
		{
			"anonymous": false,
			"inputs": [
				{
					"indexed": true,
					"internalType": "address",
					"name": "from",
					"type": "address"
				},
				{
					"indexed": true,
					"internalType": "address",
					"name": "to",
					"type": "address"
				},
				{
					"indexed": true,
					"internalType": "uint256",
					"name": "tokenId",
					"type": "uint256"
				}
			],
			"name": "Transfer",
			"type": "event"
		},
		{
			"inputs": [],
			"name": "CALLBACK_GAS_LIMIT",
			"outputs": [
				{
					"internalType": "uint32",
					"name": "",
					"type": "uint32"
				}
			],
			"stateMutability": "view",
			"type": "function"
		},
		{
			"inputs": [],
			"name": "DON_ID",
			"outputs": [
				{
					"internalType": "bytes32",
					"name": "",
					"type": "bytes32"
				}
			],
			"stateMutability": "view",
			"type": "function"
		},
		{
			"inputs": [],
			"name": "ROUTER_ADDR",
			"outputs": [
				{
					"internalType": "address",
					"name": "",
					"type": "address"
				}
			],
			"stateMutability": "view",
			"type": "function"
		},
		{
			"inputs": [],
			"name": "SOURCE",
			"outputs": [
				{
					"internalType": "string",
					"name": "",
					"type": "string"
				}
			],
			"stateMutability": "view",
			"type": "function"
		},
		{
			"inputs": [
				{
					"internalType": "string",
					"name": "giftName",
					"type": "string"
				},
				{
					"internalType": "string",
					"name": "_tokenUri",
					"type": "string"
				}
			],
			"name": "addGift",
			"outputs": [],
			"stateMutability": "nonpayable",
			"type": "function"
		},
		{
			"inputs": [
				{
					"internalType": "address",
					"name": "addrToAdd",
					"type": "address"
				}
			],
			"name": "addToAllowList",
			"outputs": [],
			"stateMutability": "nonpayable",
			"type": "function"
		},
		{
			"inputs": [
				{
					"internalType": "address",
					"name": "to",
					"type": "address"
				},
				{
					"internalType": "uint256",
					"name": "tokenId",
					"type": "uint256"
				}
			],
			"name": "approve",
			"outputs": [],
			"stateMutability": "nonpayable",
			"type": "function"
		},
		{
			"inputs": [
				{
					"internalType": "address",
					"name": "owner",
					"type": "address"
				}
			],
			"name": "balanceOf",
			"outputs": [
				{
					"internalType": "uint256",
					"name": "",
					"type": "uint256"
				}
			],
			"stateMutability": "view",
			"type": "function"
		},
		{
			"inputs": [
				{
					"internalType": "uint256",
					"name": "tokenId",
					"type": "uint256"
				}
			],
			"name": "getApproved",
			"outputs": [
				{
					"internalType": "address",
					"name": "",
					"type": "address"
				}
			],
			"stateMutability": "view",
			"type": "function"
		},
		{
			"inputs": [
				{
					"internalType": "bytes32",
					"name": "requestId",
					"type": "bytes32"
				},
				{
					"internalType": "bytes",
					"name": "response",
					"type": "bytes"
				},
				{
					"internalType": "bytes",
					"name": "err",
					"type": "bytes"
				}
			],
			"name": "handleOracleFulfillment",
			"outputs": [],
			"stateMutability": "nonpayable",
			"type": "function"
		},
		{
			"inputs": [
				{
					"internalType": "address",
					"name": "owner",
					"type": "address"
				},
				{
					"internalType": "address",
					"name": "operator",
					"type": "address"
				}
			],
			"name": "isApprovedForAll",
			"outputs": [
				{
					"internalType": "bool",
					"name": "",
					"type": "bool"
				}
			],
			"stateMutability": "view",
			"type": "function"
		},
		{
			"inputs": [],
			"name": "name",
			"outputs": [
				{
					"internalType": "string",
					"name": "",
					"type": "string"
				}
			],
			"stateMutability": "view",
			"type": "function"
		},
		{
			"inputs": [
				{
					"internalType": "uint256",
					"name": "tokenId",
					"type": "uint256"
				}
			],
			"name": "ownerOf",
			"outputs": [
				{
					"internalType": "address",
					"name": "",
					"type": "address"
				}
			],
			"stateMutability": "view",
			"type": "function"
		},
		{
			"inputs": [],
			"name": "removeFromAllowList",
			"outputs": [],
			"stateMutability": "nonpayable",
			"type": "function"
		},
		{
			"inputs": [],
			"name": "result",
			"outputs": [
				{
					"internalType": "string",
					"name": "",
					"type": "string"
				}
			],
			"stateMutability": "view",
			"type": "function"
		},
		{
			"inputs": [],
			"name": "s_lastError",
			"outputs": [
				{
					"internalType": "bytes",
					"name": "",
					"type": "bytes"
				}
			],
			"stateMutability": "view",
			"type": "function"
		},
		{
			"inputs": [],
			"name": "s_lastRequestId",
			"outputs": [
				{
					"internalType": "bytes32",
					"name": "",
					"type": "bytes32"
				}
			],
			"stateMutability": "view",
			"type": "function"
		},
		{
			"inputs": [],
			"name": "s_lastResponse",
			"outputs": [
				{
					"internalType": "bytes",
					"name": "",
					"type": "bytes"
				}
			],
			"stateMutability": "view",
			"type": "function"
		},
		{
			"inputs": [
				{
					"internalType": "address",
					"name": "from",
					"type": "address"
				},
				{
					"internalType": "address",
					"name": "to",
					"type": "address"
				},
				{
					"internalType": "uint256",
					"name": "tokenId",
					"type": "uint256"
				}
			],
			"name": "safeTransferFrom",
			"outputs": [],
			"stateMutability": "nonpayable",
			"type": "function"
		},
		{
			"inputs": [
				{
					"internalType": "address",
					"name": "from",
					"type": "address"
				},
				{
					"internalType": "address",
					"name": "to",
					"type": "address"
				},
				{
					"internalType": "uint256",
					"name": "tokenId",
					"type": "uint256"
				},
				{
					"internalType": "bytes",
					"name": "data",
					"type": "bytes"
				}
			],
			"name": "safeTransferFrom",
			"outputs": [],
			"stateMutability": "nonpayable",
			"type": "function"
		},
		{
			"inputs": [
				{
					"internalType": "uint8",
					"name": "donHostedSecretsSlotID",
					"type": "uint8"
				},
				{
					"internalType": "uint64",
					"name": "donHostedSecretsVersion",
					"type": "uint64"
				},
				{
					"internalType": "string[]",
					"name": "args",
					"type": "string[]"
				},
				{
					"internalType": "uint64",
					"name": "subscriptionId",
					"type": "uint64"
				},
				{
					"internalType": "address",
					"name": "userAddr",
					"type": "address"
				}
			],
			"name": "sendRequest",
			"outputs": [
				{
					"internalType": "bytes32",
					"name": "requestId",
					"type": "bytes32"
				}
			],
			"stateMutability": "nonpayable",
			"type": "function"
		},
		{
			"inputs": [
				{
					"internalType": "address",
					"name": "operator",
					"type": "address"
				},
				{
					"internalType": "bool",
					"name": "approved",
					"type": "bool"
				}
			],
			"name": "setApprovalForAll",
			"outputs": [],
			"stateMutability": "nonpayable",
			"type": "function"
		},
		{
			"inputs": [
				{
					"internalType": "bytes4",
					"name": "interfaceId",
					"type": "bytes4"
				}
			],
			"name": "supportsInterface",
			"outputs": [
				{
					"internalType": "bool",
					"name": "",
					"type": "bool"
				}
			],
			"stateMutability": "view",
			"type": "function"
		},
		{
			"inputs": [],
			"name": "symbol",
			"outputs": [
				{
					"internalType": "string",
					"name": "",
					"type": "string"
				}
			],
			"stateMutability": "view",
			"type": "function"
		},
		{
			"inputs": [],
			"name": "tokenId",
			"outputs": [
				{
					"internalType": "uint256",
					"name": "",
					"type": "uint256"
				}
			],
			"stateMutability": "view",
			"type": "function"
		},
		{
			"inputs": [
				{
					"internalType": "uint256",
					"name": "tokenId",
					"type": "uint256"
				}
			],
			"name": "tokenURI",
			"outputs": [
				{
					"internalType": "string",
					"name": "",
					"type": "string"
				}
			],
			"stateMutability": "view",
			"type": "function"
		},
		{
			"inputs": [
				{
					"internalType": "address",
					"name": "from",
					"type": "address"
				},
				{
					"internalType": "address",
					"name": "to",
					"type": "address"
				},
				{
					"internalType": "uint256",
					"name": "tokenId",
					"type": "uint256"
				}
			],
			"name": "transferFrom",
			"outputs": [],
			"stateMutability": "nonpayable",
			"type": "function"
		}
	]
}